{
	"data": {
		"bytecode": {
			"linkReferences": {},
			"object": "60806040525f600655348015610013575f80fd5b50614133806100215f395ff3fe608060405234801561000f575f80fd5b5060043610610224575f3560e01c80638da5cb5b1161012e578063c58e2942116100b6578063e9483ac01161007a578063e9483ac01461064c578063e9fad8ee1461066a578063f2fde38b14610674578063f7bc2afd14610690578063f7c618c1146106ae57610224565b8063c58e2942146105b8578063c8f33c91146105d6578063ca9d07ba146105f4578063cd3daf9d14610610578063df136d651461062e57610224565b80639f7b4579116100fd5780639f7b45791461050f578063ab8088e21461052b578063acc2166a14610547578063b37fd19014610565578063c2add6781461058157610224565b80638da5cb5b14610487578063919884bf146104a55780639714378c146104d75780639e447fc6146104f357610224565b80633d18b912116101b1578063754ecc2611610180578063754ecc26146103e157806378e97925146103fd5780637b0a47ee1461041b578063845e5182146104395780638b8763471461045757610224565b80633d18b91214610381578063530b97a41461038b57806370a08231146103a7578063715018a6146103d757610224565b80630dad4325116101f85780630dad4325146102c45780630e67940f146102e257806318160ddd1461031257806325c2aaa0146103305780633cdafd191461035157610224565b80628cc2621461022857806306131071146102585780630700037d146102765780630762bed2146102a6575b5f80fd5b610242600480360381019061023d919061327d565b6106cc565b60405161024f91906132c0565b60405180910390f35b610260610714565b60405161026d91906132c0565b60405180910390f35b610290600480360381019061028b919061327d565b61071a565b60405161029d91906132c0565b60405180910390f35b6102ae61072f565b6040516102bb91906132c0565b60405180910390f35b6102cc610735565b6040516102d99190613334565b60405180910390f35b6102fc60048036038101906102f79190613377565b610758565b60405161030991906132c0565b60405180910390f35b61031a6107fe565b60405161032791906132c0565b60405180910390f35b610338610804565b60405161034894939291906133c7565b60405180910390f35b61036b6004803603810190610366919061327d565b610962565b60405161037891906132c0565b60405180910390f35b610389610ae5565b005b6103a560048036038101906103a091906134bb565b610c33565b005b6103c160048036038101906103bc919061327d565b610fa1565b6040516103ce91906132c0565b60405180910390f35b6103df610fe7565b005b6103fb60048036038101906103f69190613532565b610ffa565b005b610405611436565b60405161041291906132c0565b60405180910390f35b61042361143c565b60405161043091906132c0565b60405180910390f35b610441611442565b60405161044e9190613590565b60405180910390f35b610471600480360381019061046c919061327d565b611467565b60405161047e91906132c0565b60405180910390f35b61048f61147c565b60405161049c91906135b8565b60405180910390f35b6104bf60048036038101906104ba919061327d565b6114b1565b6040516104ce93929190613615565b60405180910390f35b6104f160048036038101906104ec919061364a565b611559565b005b61050d6004803603810190610508919061364a565b611906565b005b61052960048036038101906105249190613532565b6119f6565b005b6105456004803603810190610540919061364a565b611d01565b005b61054f6120d0565b60405161055c91906135b8565b60405180910390f35b61057f600480360381019061057a9190613675565b6120f5565b005b61059b6004803603810190610596919061327d565b6121b4565b6040516105af9897969594939291906136c5565b60405180910390f35b6105c0612361565b6040516105cd91906132c0565b60405180910390f35b6105de612367565b6040516105eb91906132c0565b60405180910390f35b61060e6004803603810190610609919061364a565b61236d565b005b61061861266c565b60405161062591906132c0565b60405180910390f35b610636612677565b60405161064391906132c0565b60405180910390f35b61065461267d565b60405161066191906132c0565b60405180910390f35b6106726126cb565b005b61068e6004803603810190610689919061327d565b6126dd565b005b610698612761565b6040516106a591906132c0565b60405180910390f35b6106b6612767565b6040516106c39190613761565b60405180910390f35b5f81600d5f8473ffffffffffffffffffffffffffffffffffffffff1673ffffffffffffffffffffffffffffffffffffffff1681526020019081526020015f2054915050919050565b600e5481565b600d602052805f5260405f205f915090505481565b600a5481565b5f8054906101000a900473ffffffffffffffffffffffffffffffffffffffff1681565b5f805f9054906101000a900473ffffffffffffffffffffffffffffffffffffffff1673ffffffffffffffffffffffffffffffffffffffff16630e67940f8585856040518463ffffffff1660e01b81526004016107b69392919061377a565b602060405180830381865afa1580156107d1573d5f803e3d5ffd5b505050506040513d601f19601f820116820180604052508101906107f591906137c3565b90509392505050565b60015481565b5f805f805f808054906101000a900473ffffffffffffffffffffffffffffffffffffffff1673ffffffffffffffffffffffffffffffffffffffff166318160ddd6040518163ffffffff1660e01b8152600401602060405180830381865afa158015610871573d5f803e3d5ffd5b505050506040513d601f19601f8201168201806040525081019061089591906137c3565b60045f9054906101000a900473ffffffffffffffffffffffffffffffffffffffff1673ffffffffffffffffffffffffffffffffffffffff166370a082315f8054906101000a900473ffffffffffffffffffffffffffffffffffffffff166040518263ffffffff1660e01b815260040161090e91906135b8565b602060405180830381865afa158015610929573d5f803e3d5ffd5b505050506040513d601f19601f8201168201806040525081019061094d91906137c3565b600f5460065494509450945094505090919293565b5f815f600f54600154610975919061381b565b90505f8103610987575f925050610adf565b5f805f8054906101000a900473ffffffffffffffffffffffffffffffffffffffff1673ffffffffffffffffffffffffffffffffffffffff1663919884bf876040518263ffffffff1660e01b81526004016109e191906135b8565b606060405180830381865afa1580156109fc573d5f803e3d5ffd5b505050506040513d601f19601f82011682018060405250810190610a2091906138a2565b92505063ffffffff1691505f816bffffffffffffffffffffffff1690504283111580610a4b57505f81145b15610a5c575f955050505050610adf565b5f846301e1338060025f8b73ffffffffffffffffffffffffffffffffffffffff1673ffffffffffffffffffffffffffffffffffffffff1681526020019081526020015f2054600654610aae91906138f2565b610ab891906138f2565b610ac29190613960565b9050610ad7828261278c90919063ffffffff16565b965050505050505b50919050565b335f600d5f3373ffffffffffffffffffffffffffffffffffffffff1673ffffffffffffffffffffffffffffffffffffffff1681526020019081526020015f205490505f811115610c2f575f600d5f3373ffffffffffffffffffffffffffffffffffffffff1673ffffffffffffffffffffffffffffffffffffffff1681526020019081526020015f2081905550610be060055f9054906101000a900473ffffffffffffffffffffffffffffffffffffffff16338360035f9054906101000a900473ffffffffffffffffffffffffffffffffffffffff1673ffffffffffffffffffffffffffffffffffffffff166127b4909392919063ffffffff16565b3373ffffffffffffffffffffffffffffffffffffffff167fe2403640ba68fed3a2f88b7557551d1993f84b99bb10ff833f0cf8db0c5e048682604051610c2691906132c0565b60405180910390a25b5050565b5f610c3c612836565b90505f815f0160089054906101000a900460ff161590505f825f015f9054906101000a900467ffffffffffffffff1690505f808267ffffffffffffffff16148015610c845750825b90505f60018367ffffffffffffffff16148015610cb757505f3073ffffffffffffffffffffffffffffffffffffffff163b145b905081158015610cc5575080155b15610cfc576040517ff92ee8a900000000000000000000000000000000000000000000000000000000815260040160405180910390fd5b6001855f015f6101000a81548167ffffffffffffffff021916908367ffffffffffffffff1602179055508315610d49576001855f0160086101000a81548160ff0219169083151502179055505b428711610d8b576040517f08c379a0000000000000000000000000000000000000000000000000000000008152600401610d8290613a36565b60405180910390fd5b610d943361285d565b610d9c612871565b895f806101000a81548173ffffffffffffffffffffffffffffffffffffffff021916908373ffffffffffffffffffffffffffffffffffffffff1602179055508860045f6101000a81548173ffffffffffffffffffffffffffffffffffffffff021916908373ffffffffffffffffffffffffffffffffffffffff1602179055508760035f6101000a81548173ffffffffffffffffffffffffffffffffffffffff021916908373ffffffffffffffffffffffffffffffffffffffff1602179055508660078190555086600e81905550866008819055508560055f6101000a81548173ffffffffffffffffffffffffffffffffffffffff021916908373ffffffffffffffffffffffffffffffffffffffff160217905550610f3b5f8054906101000a900473ffffffffffffffffffffffffffffffffffffffff167fffffffffffffffffffffffffffffffffffffffffffffffffffffffffffffffff60045f9054906101000a900473ffffffffffffffffffffffffffffffffffffffff1673ffffffffffffffffffffffffffffffffffffffff166128839092919063ffffffff16565b8315610f95575f855f0160086101000a81548160ff0219169083151502179055507fc7f505b2f371ae2175ee4913f4499e1f2633a7b5936321eed1cdaeb6115181d26001604051610f8c9190613aa0565b60405180910390a15b50505050505050505050565b5f60025f8373ffffffffffffffffffffffffffffffffffffffff1673ffffffffffffffffffffffffffffffffffffffff1681526020019081526020015f20549050919050565b610fef612990565b610ff85f612a17565b565b815f810361103d576040517f08c379a000000000000000000000000000000000000000000000000000000000815260040161103490613b29565b60405180910390fd5b81428111611080576040517f08c379a000000000000000000000000000000000000000000000000000000000815260040161107790613bb7565b60405180910390fd5b5f62093a8060075483611093919061381b565b61109d9190613bd5565b146110dd576040517f08c379a00000000000000000000000000000000000000000000000000000000081526004016110d490613c75565b60405180910390fd5b6110e5612ae8565b335f805f9054906101000a900473ffffffffffffffffffffffffffffffffffffffff1673ffffffffffffffffffffffffffffffffffffffff1663919884bf336040518263ffffffff1660e01b815260040161114091906135b8565b606060405180830381865afa15801561115b573d5f803e3d5ffd5b505050506040513d601f19601f8201168201806040525081019061117f91906138a2565b6bffffffffffffffffffffffff1692505050808611156111f3576111f2333083896111aa919061381b565b60045f9054906101000a900473ffffffffffffffffffffffffffffffffffffffff1673ffffffffffffffffffffffffffffffffffffffff166127b4909392919063ffffffff16565b5b5f4286611200919061381b565b90505f60025f3373ffffffffffffffffffffffffffffffffffffffff1673ffffffffffffffffffffffffffffffffffffffff1681526020019081526020015f205490505f805f9054906101000a900473ffffffffffffffffffffffffffffffffffffffff1673ffffffffffffffffffffffffffffffffffffffff166319225fc0338b866040518463ffffffff1660e01b81526004016112a19392919061377a565b6020604051808303815f875af11580156112bd573d5f803e3d5ffd5b505050506040513d601f19601f820116820180604052508101906112e19190613c93565b6bffffffffffffffffffffffff1690508060025f3373ffffffffffffffffffffffffffffffffffffffff1673ffffffffffffffffffffffffffffffffffffffff1681526020019081526020015f2081905550600954600c5f3373ffffffffffffffffffffffffffffffffffffffff1673ffffffffffffffffffffffffffffffffffffffff1681526020019081526020015f208190555081816001546113869190613cbe565b611390919061381b565b6001819055508060105f8a81526020019081526020015f20600101546113b69190613cbe565b60105f8a81526020019081526020015f206001018190555081600f546113dc919061381b565b600f819055507f14480c50968b1e72780f52b2792faa6924fc344438d200c2bdead4130c1506f933858b86868660405161141b96959493929190613cf1565b60405180910390a15050505050611430612b3c565b50505050565b60075481565b60065481565b60045f9054906101000a900473ffffffffffffffffffffffffffffffffffffffff1681565b600c602052805f5260405f205f915090505481565b5f80611486612b53565b9050805f015f9054906101000a900473ffffffffffffffffffffffffffffffffffffffff1691505090565b5f805f805f9054906101000a900473ffffffffffffffffffffffffffffffffffffffff1673ffffffffffffffffffffffffffffffffffffffff1663919884bf856040518263ffffffff1660e01b815260040161150d91906135b8565b606060405180830381865afa158015611528573d5f803e3d5ffd5b505050506040513d601f19601f8201168201806040525081019061154c91906138a2565b9250925092509193909250565b8042811161159c576040517f08c379a000000000000000000000000000000000000000000000000000000000815260040161159390613bb7565b60405180910390fd5b5f62093a80600754836115af919061381b565b6115b99190613bd5565b146115f9576040517f08c379a00000000000000000000000000000000000000000000000000000000081526004016115f090613c75565b60405180910390fd5b335f805f9054906101000a900473ffffffffffffffffffffffffffffffffffffffff1673ffffffffffffffffffffffffffffffffffffffff1663919884bf336040518263ffffffff1660e01b815260040161165491906135b8565b606060405180830381865afa15801561166f573d5f803e3d5ffd5b505050506040513d601f19601f8201168201806040525081019061169391906138a2565b505090505f60025f3373ffffffffffffffffffffffffffffffffffffffff1673ffffffffffffffffffffffffffffffffffffffff1681526020019081526020015f205490508060105f8463ffffffff1681526020019081526020015f20600101546116fe919061381b565b60105f8463ffffffff1681526020019081526020015f20600101819055505f8263ffffffff168661172f919061381b565b90505f805f9054906101000a900473ffffffffffffffffffffffffffffffffffffffff1673ffffffffffffffffffffffffffffffffffffffff16638409a12333846040518363ffffffff1660e01b815260040161178d929190613d50565b6020604051808303815f875af11580156117a9573d5f803e3d5ffd5b505050506040513d601f19601f820116820180604052508101906117cd9190613c93565b6bffffffffffffffffffffffff169050806001546117eb9190613cbe565b6001819055508060025f3373ffffffffffffffffffffffffffffffffffffffff1673ffffffffffffffffffffffffffffffffffffffff1681526020019081526020015f205461183a9190613cbe565b60025f3373ffffffffffffffffffffffffffffffffffffffff1673ffffffffffffffffffffffffffffffffffffffff1681526020019081526020015f2081905550828160105f8a81526020019081526020015f206001015461189c9190613cbe565b6118a69190613cbe565b60105f8981526020019081526020015f20600101819055507f661475d2bb7f20a2052fdfd8f597e1e76cdb5c12a6b8ca867b1e2eee4ba14d9033858985856040516118f5959493929190613da7565b60405180910390a150505050505050565b3373ffffffffffffffffffffffffffffffffffffffff1660055f9054906101000a900473ffffffffffffffffffffffffffffffffffffffff1673ffffffffffffffffffffffffffffffffffffffff1614611995576040517f08c379a000000000000000000000000000000000000000000000000000000000815260040161198c90613e68565b60405180910390fd5b61199d61267d565b600b8190555042600a819055505f806006549050826006819055507fc390a98ace15a7bb6bab611eedfdbb2685043b241a869420043cdfb23ccfee5081846040516119e9929190613e86565b60405180910390a1505050565b815f8103611a39576040517f08c379a0000000000000000000000000000000000000000000000000000000008152600401611a3090613b29565b60405180910390fd5b81428111611a7c576040517f08c379a0000000000000000000000000000000000000000000000000000000008152600401611a7390613bb7565b60405180910390fd5b5f62093a8060075483611a8f919061381b565b611a999190613bd5565b14611ad9576040517f08c379a0000000000000000000000000000000000000000000000000000000008152600401611ad090613c75565b60405180910390fd5b335f4285611ae7919061381b565b9050611b3733308860045f9054906101000a900473ffffffffffffffffffffffffffffffffffffffff1673ffffffffffffffffffffffffffffffffffffffff166127b4909392919063ffffffff16565b5f805f9054906101000a900473ffffffffffffffffffffffffffffffffffffffff1673ffffffffffffffffffffffffffffffffffffffff16635165da303389856040518463ffffffff1660e01b8152600401611b959392919061377a565b6020604051808303815f875af1158015611bb1573d5f803e3d5ffd5b505050506040513d601f19601f82011682018060405250810190611bd59190613c93565b6bffffffffffffffffffffffff16905080600154611bf39190613cbe565b6001819055508060025f3373ffffffffffffffffffffffffffffffffffffffff1673ffffffffffffffffffffffffffffffffffffffff1681526020019081526020015f2054611c429190613cbe565b60025f3373ffffffffffffffffffffffffffffffffffffffff1673ffffffffffffffffffffffffffffffffffffffff1681526020019081526020015f20819055508060105f8881526020019081526020015f2060010154611ca39190613cbe565b60105f8881526020019081526020015f20600101819055507fe3a07e2ac405f9c908f600ba464ed28dd28f04e308ccc0610a33ca7ed1c59abb33888484604051611cf09493929190613ead565b60405180910390a150505050505050565b335f821115611d5957611d5833308460045f9054906101000a900473ffffffffffffffffffffffffffffffffffffffff1673ffffffffffffffffffffffffffffffffffffffff166127b4909392919063ffffffff16565b5b5f805f9054906101000a900473ffffffffffffffffffffffffffffffffffffffff1673ffffffffffffffffffffffffffffffffffffffff1663919884bf336040518263ffffffff1660e01b8152600401611db391906135b8565b606060405180830381865afa158015611dce573d5f803e3d5ffd5b505050506040513d601f19601f82011682018060405250810190611df291906138a2565b505090505f60025f3373ffffffffffffffffffffffffffffffffffffffff1673ffffffffffffffffffffffffffffffffffffffff1681526020019081526020015f205490508060105f8463ffffffff1681526020019081526020015f2060010154611e5d919061381b565b60105f8463ffffffff1681526020019081526020015f20600101819055505f62093a8060075442611e8e919061381b565b611e989190613bd5565b5f8054906101000a900473ffffffffffffffffffffffffffffffffffffffff1673ffffffffffffffffffffffffffffffffffffffff16636db5c8fd6040518163ffffffff1660e01b8152600401602060405180830381865afa158015611f00573d5f803e3d5ffd5b505050506040513d601f19601f82011682018060405250810190611f2491906137c3565b611f2e919061381b565b90505f8142611f3d9190613cbe565b90505f805f9054906101000a900473ffffffffffffffffffffffffffffffffffffffff1673ffffffffffffffffffffffffffffffffffffffff1663341905bc3389866040518463ffffffff1660e01b8152600401611f9d9392919061377a565b6020604051808303815f875af1158015611fb9573d5f803e3d5ffd5b505050506040513d601f19601f82011682018060405250810190611fdd9190613c93565b6bffffffffffffffffffffffff1690508381600154611ffc9190613cbe565b612006919061381b565b6001819055508060025f3373ffffffffffffffffffffffffffffffffffffffff1673ffffffffffffffffffffffffffffffffffffffff1681526020019081526020015f20819055508060105f8481526020019081526020015f206001015461206e9190613cbe565b60105f8481526020019081526020015f20600101819055507fdef3b43dc97de0c173249b30d246260701e9c30274ec901c416b1be935b230843386848688866040516120bf96959493929190613ef0565b60405180910390a150505050505050565b60055f9054906101000a900473ffffffffffffffffffffffffffffffffffffffff1681565b3373ffffffffffffffffffffffffffffffffffffffff1660055f9054906101000a900473ffffffffffffffffffffffffffffffffffffffff1673ffffffffffffffffffffffffffffffffffffffff1614612184576040517f08c379a000000000000000000000000000000000000000000000000000000000815260040161217b90613e68565b60405180910390fd5b6121af81838573ffffffffffffffffffffffffffffffffffffffff16612b7a9092919063ffffffff16565b505050565b5f805f805f805f805f8054906101000a900473ffffffffffffffffffffffffffffffffffffffff1673ffffffffffffffffffffffffffffffffffffffff1663919884bf8a6040518263ffffffff1660e01b815260040161221491906135b8565b606060405180830381865afa15801561222f573d5f803e3d5ffd5b505050506040513d601f19601f8201168201806040525081019061225391906138a2565b8097508198508299505050508563ffffffff168763ffffffff1611612278575f612285565b85876122849190613f4f565b5b97505f8054906101000a900473ffffffffffffffffffffffffffffffffffffffff1673ffffffffffffffffffffffffffffffffffffffff166370a082318a6040518263ffffffff1660e01b81526004016122df91906135b8565b602060405180830381865afa1580156122fa573d5f803e3d5ffd5b505050506040513d601f19601f8201168201806040525081019061231e91906137c3565b9350612329896106cc565b915060029050428763ffffffff16111561234557600190508392505b5f8763ffffffff1603612356575f90505b919395975091939597565b600f5481565b60085481565b805f81036123b0576040517f08c379a00000000000000000000000000000000000000000000000000000000081526004016123a790613b29565b60405180910390fd5b336123ff33308560045f9054906101000a900473ffffffffffffffffffffffffffffffffffffffff1673ffffffffffffffffffffffffffffffffffffffff166127b4909392919063ffffffff16565b5f805f9054906101000a900473ffffffffffffffffffffffffffffffffffffffff1673ffffffffffffffffffffffffffffffffffffffff16630aa3ae7e33866040518363ffffffff1660e01b815260040161245b929190613d50565b6020604051808303815f875af1158015612477573d5f803e3d5ffd5b505050506040513d601f19601f8201168201806040525081019061249b9190613c93565b6bffffffffffffffffffffffff1690505f805f9054906101000a900473ffffffffffffffffffffffffffffffffffffffff1673ffffffffffffffffffffffffffffffffffffffff1663919884bf336040518263ffffffff1660e01b815260040161250591906135b8565b606060405180830381865afa158015612520573d5f803e3d5ffd5b505050506040513d601f19601f8201168201806040525081019061254491906138a2565b50509050816001546125569190613cbe565b6001819055508160025f3373ffffffffffffffffffffffffffffffffffffffff1673ffffffffffffffffffffffffffffffffffffffff1681526020019081526020015f20546125a59190613cbe565b60025f3373ffffffffffffffffffffffffffffffffffffffff1673ffffffffffffffffffffffffffffffffffffffff1681526020019081526020015f20819055508160105f8363ffffffff1681526020019081526020015f206001015461260c9190613cbe565b60105f8363ffffffff1681526020019081526020015f20600101819055507fe5ed0451c3c49e91c18ea603cfa7cd0833f466abb605e6e8a5964c5ffa453cde33868460405161265d9392919061377a565b60405180910390a15050505050565b5f8060095491505090565b60095481565b5f60075442101561269257600b5490506126c8565b6006546126a3600754600a54612bf9565b426126ae919061381b565b6126b891906138f2565b600b546126c59190613cbe565b90505b90565b6126d3610ae5565b6126db612c11565b565b6126e5612990565b5f73ffffffffffffffffffffffffffffffffffffffff168173ffffffffffffffffffffffffffffffffffffffff1603612755575f6040517f1e4fbdf700000000000000000000000000000000000000000000000000000000815260040161274c91906135b8565b60405180910390fd5b61275e81612a17565b50565b600b5481565b60035f9054906101000a900473ffffffffffffffffffffffffffffffffffffffff1681565b5f81670de0b6b3a7640000846127a291906138f2565b6127ac9190613960565b905092915050565b612830848573ffffffffffffffffffffffffffffffffffffffff166323b872dd8686866040516024016127e993929190613f86565b604051602081830303815290604052915060e01b6020820180517bffffffffffffffffffffffffffffffffffffffffffffffffffffffff8381831617835250505050612ded565b50505050565b5f7ff0c57e16840df040f15088dc2f81fe391c3923bec73e23a9662efc9c229c6a00905090565b612865612e82565b61286e81612ec2565b50565b612879612e82565b612881612f46565b565b5f8373ffffffffffffffffffffffffffffffffffffffff1663095ea7b384846040516024016128b3929190613d50565b604051602081830303815290604052915060e01b6020820180517bffffffffffffffffffffffffffffffffffffffffffffffffffffffff838183161783525050505090506129018482612f65565b61298a5761297f848573ffffffffffffffffffffffffffffffffffffffff1663095ea7b3865f604051602401612938929190613ff4565b604051602081830303815290604052915060e01b6020820180517bffffffffffffffffffffffffffffffffffffffffffffffffffffffff8381831617835250505050612ded565b6129898482612ded565b5b50505050565b612998613024565b73ffffffffffffffffffffffffffffffffffffffff166129b661147c565b73ffffffffffffffffffffffffffffffffffffffff1614612a15576129d9613024565b6040517f118cdaa7000000000000000000000000000000000000000000000000000000008152600401612a0c91906135b8565b60405180910390fd5b565b5f612a20612b53565b90505f815f015f9054906101000a900473ffffffffffffffffffffffffffffffffffffffff16905082825f015f6101000a81548173ffffffffffffffffffffffffffffffffffffffff021916908373ffffffffffffffffffffffffffffffffffffffff1602179055508273ffffffffffffffffffffffffffffffffffffffff168173ffffffffffffffffffffffffffffffffffffffff167f8be0079c531659141344cd1fd0a4f28419497f9722a3daafe3b4186f6b6457e060405160405180910390a3505050565b5f612af161302b565b90506002815f015403612b30576040517f3ee5aeb500000000000000000000000000000000000000000000000000000000815260040160405180910390fd5b6002815f018190555050565b5f612b4561302b565b90506001815f018190555050565b5f7f9016d09d72d40fdae2fd8ceac6b6234c7706214fd39c1cd1e609a0528c199300905090565b612bf4838473ffffffffffffffffffffffffffffffffffffffff1663a9059cbb8585604051602401612bad929190613d50565b604051602081830303815290604052915060e01b6020820180517bffffffffffffffffffffffffffffffffffffffffffffffffffffffff8381831617835250505050612ded565b505050565b5f818311612c075781612c09565b825b905092915050565b5f805f9054906101000a900473ffffffffffffffffffffffffffffffffffffffff1673ffffffffffffffffffffffffffffffffffffffff16634eea9a8d336040518263ffffffff1660e01b8152600401612c6b91906135b8565b6020604051808303815f875af1158015612c87573d5f803e3d5ffd5b505050506040513d601f19601f82011682018060405250810190612cab9190613c93565b6bffffffffffffffffffffffff1690505f60025f3373ffffffffffffffffffffffffffffffffffffffff1673ffffffffffffffffffffffffffffffffffffffff1681526020019081526020015f2054905080600154612d0a919061381b565b6001819055508060025f3373ffffffffffffffffffffffffffffffffffffffff1673ffffffffffffffffffffffffffffffffffffffff1681526020019081526020015f2054612d59919061381b565b60025f3373ffffffffffffffffffffffffffffffffffffffff1673ffffffffffffffffffffffffffffffffffffffff1681526020019081526020015f208190555080600f54612da8919061381b565b600f819055507ff279e6a1f5e320cca91135676d9cb6e44ca8a08c0b88342bcdb1144f6511b568338383604051612de19392919061377a565b60405180910390a15050565b5f612e17828473ffffffffffffffffffffffffffffffffffffffff1661305290919063ffffffff16565b90505f815114158015612e3b575080806020019051810190612e399190614050565b155b15612e7d57826040517f5274afe7000000000000000000000000000000000000000000000000000000008152600401612e7491906135b8565b60405180910390fd5b505050565b612e8a613067565b612ec0576040517fd7e6bcf800000000000000000000000000000000000000000000000000000000815260040160405180910390fd5b565b612eca612e82565b5f73ffffffffffffffffffffffffffffffffffffffff168173ffffffffffffffffffffffffffffffffffffffff1603612f3a575f6040517f1e4fbdf7000000000000000000000000000000000000000000000000000000008152600401612f3191906135b8565b60405180910390fd5b612f4381612a17565b50565b612f4e612e82565b5f612f5761302b565b90506001815f018190555050565b5f805f8473ffffffffffffffffffffffffffffffffffffffff1684604051612f8d91906140e7565b5f604051808303815f865af19150503d805f8114612fc6576040519150601f19603f3d011682016040523d82523d5f602084013e612fcb565b606091505b5091509150818015612ff857505f81511480612ff7575080806020019051810190612ff69190614050565b5b5b801561301a57505f8573ffffffffffffffffffffffffffffffffffffffff163b115b9250505092915050565b5f33905090565b5f7f9b779b17422d0df92223018b32b4d1fa46e071723d6817e2486d003becc55f00905090565b606061305f83835f613085565b905092915050565b5f613070612836565b5f0160089054906101000a900460ff16905090565b6060814710156130cc57306040517fcd7860590000000000000000000000000000000000000000000000000000000081526004016130c391906135b8565b60405180910390fd5b5f808573ffffffffffffffffffffffffffffffffffffffff1684866040516130f491906140e7565b5f6040518083038185875af1925050503d805f811461312e576040519150601f19603f3d011682016040523d82523d5f602084013e613133565b606091505b509150915061314386838361314e565b925050509392505050565b6060826131635761315e826131db565b6131d3565b5f825114801561318957505f8473ffffffffffffffffffffffffffffffffffffffff163b145b156131cb57836040517f9996b3150000000000000000000000000000000000000000000000000000000081526004016131c291906135b8565b60405180910390fd5b8190506131d4565b5b9392505050565b5f815111156131ed5780518082602001fd5b6040517f1425ea4200000000000000000000000000000000000000000000000000000000815260040160405180910390fd5b5f80fd5b5f73ffffffffffffffffffffffffffffffffffffffff82169050919050565b5f61324c82613223565b9050919050565b61325c81613242565b8114613266575f80fd5b50565b5f8135905061327781613253565b92915050565b5f602082840312156132925761329161321f565b5b5f61329f84828501613269565b91505092915050565b5f819050919050565b6132ba816132a8565b82525050565b5f6020820190506132d35f8301846132b1565b92915050565b5f819050919050565b5f6132fc6132f76132f284613223565b6132d9565b613223565b9050919050565b5f61330d826132e2565b9050919050565b5f61331e82613303565b9050919050565b61332e81613314565b82525050565b5f6020820190506133475f830184613325565b92915050565b613356816132a8565b8114613360575f80fd5b50565b5f813590506133718161334d565b92915050565b5f805f6060848603121561338e5761338d61321f565b5b5f61339b86828701613269565b93505060206133ac86828701613363565b92505060406133bd86828701613363565b9150509250925092565b5f6080820190506133da5f8301876132b1565b6133e760208301866132b1565b6133f460408301856132b1565b61340160608301846132b1565b95945050505050565b5f61341482613242565b9050919050565b6134248161340a565b811461342e575f80fd5b50565b5f8135905061343f8161341b565b92915050565b5f61344f82613242565b9050919050565b61345f81613445565b8114613469575f80fd5b50565b5f8135905061347a81613456565b92915050565b5f61348a82613242565b9050919050565b61349a81613480565b81146134a4575f80fd5b50565b5f813590506134b581613491565b92915050565b5f805f805f60a086880312156134d4576134d361321f565b5b5f6134e188828901613431565b95505060206134f28882890161346c565b9450506040613503888289016134a7565b935050606061351488828901613363565b925050608061352588828901613269565b9150509295509295909350565b5f80604083850312156135485761354761321f565b5b5f61355585828601613363565b925050602061356685828601613363565b9150509250929050565b5f61357a82613303565b9050919050565b61358a81613570565b82525050565b5f6020820190506135a35f830184613581565b92915050565b6135b281613242565b82525050565b5f6020820190506135cb5f8301846135a9565b92915050565b5f63ffffffff82169050919050565b6135e9816135d1565b82525050565b5f6bffffffffffffffffffffffff82169050919050565b61360f816135ef565b82525050565b5f6060820190506136285f8301866135e0565b61363560208301856135e0565b6136426040830184613606565b949350505050565b5f6020828403121561365f5761365e61321f565b5b5f61366c84828501613363565b91505092915050565b5f805f6060848603121561368c5761368b61321f565b5b5f613699868287016134a7565b93505060206136aa86828701613363565b92505060406136bb86828701613269565b9150509250925092565b5f610100820190506136d95f83018b6135e0565b6136e6602083018a6135e0565b6136f360408301896135e0565b6137006060830188613606565b61370d60808301876132b1565b61371a60a08301866132b1565b61372760c08301856132b1565b61373460e08301846132b1565b9998505050505050505050565b5f61374b82613303565b9050919050565b61375b81613741565b82525050565b5f6020820190506137745f830184613752565b92915050565b5f60608201905061378d5f8301866135a9565b61379a60208301856132b1565b6137a760408301846132b1565b949350505050565b5f815190506137bd8161334d565b92915050565b5f602082840312156137d8576137d761321f565b5b5f6137e5848285016137af565b91505092915050565b7f4e487b71000000000000000000000000000000000000000000000000000000005f52601160045260245ffd5b5f613825826132a8565b9150613830836132a8565b9250828203905081811115613848576138476137ee565b5b92915050565b613857816135d1565b8114613861575f80fd5b50565b5f815190506138728161384e565b92915050565b613881816135ef565b811461388b575f80fd5b50565b5f8151905061389c81613878565b92915050565b5f805f606084860312156138b9576138b861321f565b5b5f6138c686828701613864565b93505060206138d786828701613864565b92505060406138e88682870161388e565b9150509250925092565b5f6138fc826132a8565b9150613907836132a8565b9250828202613915816132a8565b9150828204841483151761392c5761392b6137ee565b5b5092915050565b7f4e487b71000000000000000000000000000000000000000000000000000000005f52601260045260245ffd5b5f61396a826132a8565b9150613975836132a8565b92508261398557613984613933565b5b828204905092915050565b5f82825260208201905092915050565b7f76654141484d616e616765723a2053746172742074696d65206d7573742062655f8201527f2067726561746572207468616e2074686520626c6f636b2074696d657374616d60208201527f7000000000000000000000000000000000000000000000000000000000000000604082015250565b5f613a20604183613990565b9150613a2b826139a0565b606082019050919050565b5f6020820190508181035f830152613a4d81613a14565b9050919050565b5f819050919050565b5f67ffffffffffffffff82169050919050565b5f613a8a613a85613a8084613a54565b6132d9565b613a5d565b9050919050565b613a9a81613a70565b82525050565b5f602082019050613ab35f830184613a91565b92915050565b7f76654141484d616e616765723a205374616b6520616d6f756e742063616e206e5f8201527f6f74206265207a65726f21000000000000000000000000000000000000000000602082015250565b5f613b13602b83613990565b9150613b1e82613ab9565b604082019050919050565b5f6020820190508181035f830152613b4081613b07565b9050919050565b7f76654141484d616e616765723a204475652074696d65206d75737420626520675f8201527f726561746572207468616e207468652063757272656e742074696d6500000000602082015250565b5f613ba1603c83613990565b9150613bac82613b47565b604082019050919050565b5f6020820190508181035f830152613bce81613b95565b9050919050565b5f613bdf826132a8565b9150613bea836132a8565b925082613bfa57613bf9613933565b5b828206905092915050565b7f76654141484d616e616765723a20546865206d696e696d756d207374657020735f8201527f697a65206d75737420626520604d494e5f535445506000000000000000000000602082015250565b5f613c5f603683613990565b9150613c6a82613c05565b604082019050919050565b5f6020820190508181035f830152613c8c81613c53565b9050919050565b5f60208284031215613ca857613ca761321f565b5b5f613cb58482850161388e565b91505092915050565b5f613cc8826132a8565b9150613cd3836132a8565b9250828201905080821115613ceb57613cea6137ee565b5b92915050565b5f60c082019050613d045f8301896135a9565b613d1160208301886132b1565b613d1e60408301876132b1565b613d2b60608301866132b1565b613d3860808301856132b1565b613d4560a08301846132b1565b979650505050505050565b5f604082019050613d635f8301856135a9565b613d7060208301846132b1565b9392505050565b5f613d91613d8c613d87846135d1565b6132d9565b6132a8565b9050919050565b613da181613d77565b82525050565b5f60a082019050613dba5f8301886135a9565b613dc76020830187613d98565b613dd460408301866132b1565b613de160608301856132b1565b613dee60808301846132b1565b9695505050505050565b7f76654141484d616e616765723a2063616c6c6572206973206e6f7420746865205f8201527f7265776172644469737472696275746f72000000000000000000000000000000602082015250565b5f613e52603183613990565b9150613e5d82613df8565b604082019050919050565b5f6020820190508181035f830152613e7f81613e46565b9050919050565b5f604082019050613e995f8301856132b1565b613ea660208301846132b1565b9392505050565b5f608082019050613ec05f8301876135a9565b613ecd60208301866132b1565b613eda60408301856132b1565b613ee760608301846132b1565b95945050505050565b5f60c082019050613f035f8301896135a9565b613f106020830188613d98565b613f1d60408301876132b1565b613f2a60608301866132b1565b613f3760808301856132b1565b613f4460a08301846132b1565b979650505050505050565b5f613f59826135d1565b9150613f64836135d1565b9250828203905063ffffffff811115613f8057613f7f6137ee565b5b92915050565b5f606082019050613f995f8301866135a9565b613fa660208301856135a9565b613fb360408301846132b1565b949350505050565b5f819050919050565b5f613fde613fd9613fd484613fbb565b6132d9565b6132a8565b9050919050565b613fee81613fc4565b82525050565b5f6040820190506140075f8301856135a9565b6140146020830184613fe5565b9392505050565b5f8115159050919050565b61402f8161401b565b8114614039575f80fd5b50565b5f8151905061404a81614026565b92915050565b5f602082840312156140655761406461321f565b5b5f6140728482850161403c565b91505092915050565b5f81519050919050565b5f81905092915050565b5f5b838110156140ac578082015181840152602081019050614091565b5f8484015250505050565b5f6140c18261407b565b6140cb8185614085565b93506140db81856020860161408f565b80840191505092915050565b5f6140f282846140b7565b91508190509291505056fea264697066735822122079976e144b2aa5491c458f9391d8b58544f0cc203685ab539283e7e07016fff364736f6c63430008140033",
			"opcodes": "PUSH1 0x80 PUSH1 0x40 MSTORE PUSH0 PUSH1 0x6 SSTORE CALLVALUE DUP1 ISZERO PUSH2 0x13 JUMPI PUSH0 DUP1 REVERT JUMPDEST POP PUSH2 0x4133 DUP1 PUSH2 0x21 PUSH0 CODECOPY PUSH0 RETURN INVALID PUSH1 0x80 PUSH1 0x40 MSTORE CALLVALUE DUP1 ISZERO PUSH2 0xF JUMPI PUSH0 DUP1 REVERT JUMPDEST POP PUSH1 0x4 CALLDATASIZE LT PUSH2 0x224 JUMPI PUSH0 CALLDATALOAD PUSH1 0xE0 SHR DUP1 PUSH4 0x8DA5CB5B GT PUSH2 0x12E JUMPI DUP1 PUSH4 0xC58E2942 GT PUSH2 0xB6 JUMPI DUP1 PUSH4 0xE9483AC0 GT PUSH2 0x7A JUMPI DUP1 PUSH4 0xE9483AC0 EQ PUSH2 0x64C JUMPI DUP1 PUSH4 0xE9FAD8EE EQ PUSH2 0x66A JUMPI DUP1 PUSH4 0xF2FDE38B EQ PUSH2 0x674 JUMPI DUP1 PUSH4 0xF7BC2AFD EQ PUSH2 0x690 JUMPI DUP1 PUSH4 0xF7C618C1 EQ PUSH2 0x6AE JUMPI PUSH2 0x224 JUMP JUMPDEST DUP1 PUSH4 0xC58E2942 EQ PUSH2 0x5B8 JUMPI DUP1 PUSH4 0xC8F33C91 EQ PUSH2 0x5D6 JUMPI DUP1 PUSH4 0xCA9D07BA EQ PUSH2 0x5F4 JUMPI DUP1 PUSH4 0xCD3DAF9D EQ PUSH2 0x610 JUMPI DUP1 PUSH4 0xDF136D65 EQ PUSH2 0x62E JUMPI PUSH2 0x224 JUMP JUMPDEST DUP1 PUSH4 0x9F7B4579 GT PUSH2 0xFD JUMPI DUP1 PUSH4 0x9F7B4579 EQ PUSH2 0x50F JUMPI DUP1 PUSH4 0xAB8088E2 EQ PUSH2 0x52B JUMPI DUP1 PUSH4 0xACC2166A EQ PUSH2 0x547 JUMPI DUP1 PUSH4 0xB37FD190 EQ PUSH2 0x565 JUMPI DUP1 PUSH4 0xC2ADD678 EQ PUSH2 0x581 JUMPI PUSH2 0x224 JUMP JUMPDEST DUP1 PUSH4 0x8DA5CB5B EQ PUSH2 0x487 JUMPI DUP1 PUSH4 0x919884BF EQ PUSH2 0x4A5 JUMPI DUP1 PUSH4 0x9714378C EQ PUSH2 0x4D7 JUMPI DUP1 PUSH4 0x9E447FC6 EQ PUSH2 0x4F3 JUMPI PUSH2 0x224 JUMP JUMPDEST DUP1 PUSH4 0x3D18B912 GT PUSH2 0x1B1 JUMPI DUP1 PUSH4 0x754ECC26 GT PUSH2 0x180 JUMPI DUP1 PUSH4 0x754ECC26 EQ PUSH2 0x3E1 JUMPI DUP1 PUSH4 0x78E97925 EQ PUSH2 0x3FD JUMPI DUP1 PUSH4 0x7B0A47EE EQ PUSH2 0x41B JUMPI DUP1 PUSH4 0x845E5182 EQ PUSH2 0x439 JUMPI DUP1 PUSH4 0x8B876347 EQ PUSH2 0x457 JUMPI PUSH2 0x224 JUMP JUMPDEST DUP1 PUSH4 0x3D18B912 EQ PUSH2 0x381 JUMPI DUP1 PUSH4 0x530B97A4 EQ PUSH2 0x38B JUMPI DUP1 PUSH4 0x70A08231 EQ PUSH2 0x3A7 JUMPI DUP1 PUSH4 0x715018A6 EQ PUSH2 0x3D7 JUMPI PUSH2 0x224 JUMP JUMPDEST DUP1 PUSH4 0xDAD4325 GT PUSH2 0x1F8 JUMPI DUP1 PUSH4 0xDAD4325 EQ PUSH2 0x2C4 JUMPI DUP1 PUSH4 0xE67940F EQ PUSH2 0x2E2 JUMPI DUP1 PUSH4 0x18160DDD EQ PUSH2 0x312 JUMPI DUP1 PUSH4 0x25C2AAA0 EQ PUSH2 0x330 JUMPI DUP1 PUSH4 0x3CDAFD19 EQ PUSH2 0x351 JUMPI PUSH2 0x224 JUMP JUMPDEST DUP1 PUSH3 0x8CC262 EQ PUSH2 0x228 JUMPI DUP1 PUSH4 0x6131071 EQ PUSH2 0x258 JUMPI DUP1 PUSH4 0x700037D EQ PUSH2 0x276 JUMPI DUP1 PUSH4 0x762BED2 EQ PUSH2 0x2A6 JUMPI JUMPDEST PUSH0 DUP1 REVERT JUMPDEST PUSH2 0x242 PUSH1 0x4 DUP1 CALLDATASIZE SUB DUP2 ADD SWAP1 PUSH2 0x23D SWAP2 SWAP1 PUSH2 0x327D JUMP JUMPDEST PUSH2 0x6CC JUMP JUMPDEST PUSH1 0x40 MLOAD PUSH2 0x24F SWAP2 SWAP1 PUSH2 0x32C0 JUMP JUMPDEST PUSH1 0x40 MLOAD DUP1 SWAP2 SUB SWAP1 RETURN JUMPDEST PUSH2 0x260 PUSH2 0x714 JUMP JUMPDEST PUSH1 0x40 MLOAD PUSH2 0x26D SWAP2 SWAP1 PUSH2 0x32C0 JUMP JUMPDEST PUSH1 0x40 MLOAD DUP1 SWAP2 SUB SWAP1 RETURN JUMPDEST PUSH2 0x290 PUSH1 0x4 DUP1 CALLDATASIZE SUB DUP2 ADD SWAP1 PUSH2 0x28B SWAP2 SWAP1 PUSH2 0x327D JUMP JUMPDEST PUSH2 0x71A JUMP JUMPDEST PUSH1 0x40 MLOAD PUSH2 0x29D SWAP2 SWAP1 PUSH2 0x32C0 JUMP JUMPDEST PUSH1 0x40 MLOAD DUP1 SWAP2 SUB SWAP1 RETURN JUMPDEST PUSH2 0x2AE PUSH2 0x72F JUMP JUMPDEST PUSH1 0x40 MLOAD PUSH2 0x2BB SWAP2 SWAP1 PUSH2 0x32C0 JUMP JUMPDEST PUSH1 0x40 MLOAD DUP1 SWAP2 SUB SWAP1 RETURN JUMPDEST PUSH2 0x2CC PUSH2 0x735 JUMP JUMPDEST PUSH1 0x40 MLOAD PUSH2 0x2D9 SWAP2 SWAP1 PUSH2 0x3334 JUMP JUMPDEST PUSH1 0x40 MLOAD DUP1 SWAP2 SUB SWAP1 RETURN JUMPDEST PUSH2 0x2FC PUSH1 0x4 DUP1 CALLDATASIZE SUB DUP2 ADD SWAP1 PUSH2 0x2F7 SWAP2 SWAP1 PUSH2 0x3377 JUMP JUMPDEST PUSH2 0x758 JUMP JUMPDEST PUSH1 0x40 MLOAD PUSH2 0x309 SWAP2 SWAP1 PUSH2 0x32C0 JUMP JUMPDEST PUSH1 0x40 MLOAD DUP1 SWAP2 SUB SWAP1 RETURN JUMPDEST PUSH2 0x31A PUSH2 0x7FE JUMP JUMPDEST PUSH1 0x40 MLOAD PUSH2 0x327 SWAP2 SWAP1 PUSH2 0x32C0 JUMP JUMPDEST PUSH1 0x40 MLOAD DUP1 SWAP2 SUB SWAP1 RETURN JUMPDEST PUSH2 0x338 PUSH2 0x804 JUMP JUMPDEST PUSH1 0x40 MLOAD PUSH2 0x348 SWAP5 SWAP4 SWAP3 SWAP2 SWAP1 PUSH2 0x33C7 JUMP JUMPDEST PUSH1 0x40 MLOAD DUP1 SWAP2 SUB SWAP1 RETURN JUMPDEST PUSH2 0x36B PUSH1 0x4 DUP1 CALLDATASIZE SUB DUP2 ADD SWAP1 PUSH2 0x366 SWAP2 SWAP1 PUSH2 0x327D JUMP JUMPDEST PUSH2 0x962 JUMP JUMPDEST PUSH1 0x40 MLOAD PUSH2 0x378 SWAP2 SWAP1 PUSH2 0x32C0 JUMP JUMPDEST PUSH1 0x40 MLOAD DUP1 SWAP2 SUB SWAP1 RETURN JUMPDEST PUSH2 0x389 PUSH2 0xAE5 JUMP JUMPDEST STOP JUMPDEST PUSH2 0x3A5 PUSH1 0x4 DUP1 CALLDATASIZE SUB DUP2 ADD SWAP1 PUSH2 0x3A0 SWAP2 SWAP1 PUSH2 0x34BB JUMP JUMPDEST PUSH2 0xC33 JUMP JUMPDEST STOP JUMPDEST PUSH2 0x3C1 PUSH1 0x4 DUP1 CALLDATASIZE SUB DUP2 ADD SWAP1 PUSH2 0x3BC SWAP2 SWAP1 PUSH2 0x327D JUMP JUMPDEST PUSH2 0xFA1 JUMP JUMPDEST PUSH1 0x40 MLOAD PUSH2 0x3CE SWAP2 SWAP1 PUSH2 0x32C0 JUMP JUMPDEST PUSH1 0x40 MLOAD DUP1 SWAP2 SUB SWAP1 RETURN JUMPDEST PUSH2 0x3DF PUSH2 0xFE7 JUMP JUMPDEST STOP JUMPDEST PUSH2 0x3FB PUSH1 0x4 DUP1 CALLDATASIZE SUB DUP2 ADD SWAP1 PUSH2 0x3F6 SWAP2 SWAP1 PUSH2 0x3532 JUMP JUMPDEST PUSH2 0xFFA JUMP JUMPDEST STOP JUMPDEST PUSH2 0x405 PUSH2 0x1436 JUMP JUMPDEST PUSH1 0x40 MLOAD PUSH2 0x412 SWAP2 SWAP1 PUSH2 0x32C0 JUMP JUMPDEST PUSH1 0x40 MLOAD DUP1 SWAP2 SUB SWAP1 RETURN JUMPDEST PUSH2 0x423 PUSH2 0x143C JUMP JUMPDEST PUSH1 0x40 MLOAD PUSH2 0x430 SWAP2 SWAP1 PUSH2 0x32C0 JUMP JUMPDEST PUSH1 0x40 MLOAD DUP1 SWAP2 SUB SWAP1 RETURN JUMPDEST PUSH2 0x441 PUSH2 0x1442 JUMP JUMPDEST PUSH1 0x40 MLOAD PUSH2 0x44E SWAP2 SWAP1 PUSH2 0x3590 JUMP JUMPDEST PUSH1 0x40 MLOAD DUP1 SWAP2 SUB SWAP1 RETURN JUMPDEST PUSH2 0x471 PUSH1 0x4 DUP1 CALLDATASIZE SUB DUP2 ADD SWAP1 PUSH2 0x46C SWAP2 SWAP1 PUSH2 0x327D JUMP JUMPDEST PUSH2 0x1467 JUMP JUMPDEST PUSH1 0x40 MLOAD PUSH2 0x47E SWAP2 SWAP1 PUSH2 0x32C0 JUMP JUMPDEST PUSH1 0x40 MLOAD DUP1 SWAP2 SUB SWAP1 RETURN JUMPDEST PUSH2 0x48F PUSH2 0x147C JUMP JUMPDEST PUSH1 0x40 MLOAD PUSH2 0x49C SWAP2 SWAP1 PUSH2 0x35B8 JUMP JUMPDEST PUSH1 0x40 MLOAD DUP1 SWAP2 SUB SWAP1 RETURN JUMPDEST PUSH2 0x4BF PUSH1 0x4 DUP1 CALLDATASIZE SUB DUP2 ADD SWAP1 PUSH2 0x4BA SWAP2 SWAP1 PUSH2 0x327D JUMP JUMPDEST PUSH2 0x14B1 JUMP JUMPDEST PUSH1 0x40 MLOAD PUSH2 0x4CE SWAP4 SWAP3 SWAP2 SWAP1 PUSH2 0x3615 JUMP JUMPDEST PUSH1 0x40 MLOAD DUP1 SWAP2 SUB SWAP1 RETURN JUMPDEST PUSH2 0x4F1 PUSH1 0x4 DUP1 CALLDATASIZE SUB DUP2 ADD SWAP1 PUSH2 0x4EC SWAP2 SWAP1 PUSH2 0x364A JUMP JUMPDEST PUSH2 0x1559 JUMP JUMPDEST STOP JUMPDEST PUSH2 0x50D PUSH1 0x4 DUP1 CALLDATASIZE SUB DUP2 ADD SWAP1 PUSH2 0x508 SWAP2 SWAP1 PUSH2 0x364A JUMP JUMPDEST PUSH2 0x1906 JUMP JUMPDEST STOP JUMPDEST PUSH2 0x529 PUSH1 0x4 DUP1 CALLDATASIZE SUB DUP2 ADD SWAP1 PUSH2 0x524 SWAP2 SWAP1 PUSH2 0x3532 JUMP JUMPDEST PUSH2 0x19F6 JUMP JUMPDEST STOP JUMPDEST PUSH2 0x545 PUSH1 0x4 DUP1 CALLDATASIZE SUB DUP2 ADD SWAP1 PUSH2 0x540 SWAP2 SWAP1 PUSH2 0x364A JUMP JUMPDEST PUSH2 0x1D01 JUMP JUMPDEST STOP JUMPDEST PUSH2 0x54F PUSH2 0x20D0 JUMP JUMPDEST PUSH1 0x40 MLOAD PUSH2 0x55C SWAP2 SWAP1 PUSH2 0x35B8 JUMP JUMPDEST PUSH1 0x40 MLOAD DUP1 SWAP2 SUB SWAP1 RETURN JUMPDEST PUSH2 0x57F PUSH1 0x4 DUP1 CALLDATASIZE SUB DUP2 ADD SWAP1 PUSH2 0x57A SWAP2 SWAP1 PUSH2 0x3675 JUMP JUMPDEST PUSH2 0x20F5 JUMP JUMPDEST STOP JUMPDEST PUSH2 0x59B PUSH1 0x4 DUP1 CALLDATASIZE SUB DUP2 ADD SWAP1 PUSH2 0x596 SWAP2 SWAP1 PUSH2 0x327D JUMP JUMPDEST PUSH2 0x21B4 JUMP JUMPDEST PUSH1 0x40 MLOAD PUSH2 0x5AF SWAP9 SWAP8 SWAP7 SWAP6 SWAP5 SWAP4 SWAP3 SWAP2 SWAP1 PUSH2 0x36C5 JUMP JUMPDEST PUSH1 0x40 MLOAD DUP1 SWAP2 SUB SWAP1 RETURN JUMPDEST PUSH2 0x5C0 PUSH2 0x2361 JUMP JUMPDEST PUSH1 0x40 MLOAD PUSH2 0x5CD SWAP2 SWAP1 PUSH2 0x32C0 JUMP JUMPDEST PUSH1 0x40 MLOAD DUP1 SWAP2 SUB SWAP1 RETURN JUMPDEST PUSH2 0x5DE PUSH2 0x2367 JUMP JUMPDEST PUSH1 0x40 MLOAD PUSH2 0x5EB SWAP2 SWAP1 PUSH2 0x32C0 JUMP JUMPDEST PUSH1 0x40 MLOAD DUP1 SWAP2 SUB SWAP1 RETURN JUMPDEST PUSH2 0x60E PUSH1 0x4 DUP1 CALLDATASIZE SUB DUP2 ADD SWAP1 PUSH2 0x609 SWAP2 SWAP1 PUSH2 0x364A JUMP JUMPDEST PUSH2 0x236D JUMP JUMPDEST STOP JUMPDEST PUSH2 0x618 PUSH2 0x266C JUMP JUMPDEST PUSH1 0x40 MLOAD PUSH2 0x625 SWAP2 SWAP1 PUSH2 0x32C0 JUMP JUMPDEST PUSH1 0x40 MLOAD DUP1 SWAP2 SUB SWAP1 RETURN JUMPDEST PUSH2 0x636 PUSH2 0x2677 JUMP JUMPDEST PUSH1 0x40 MLOAD PUSH2 0x643 SWAP2 SWAP1 PUSH2 0x32C0 JUMP JUMPDEST PUSH1 0x40 MLOAD DUP1 SWAP2 SUB SWAP1 RETURN JUMPDEST PUSH2 0x654 PUSH2 0x267D JUMP JUMPDEST PUSH1 0x40 MLOAD PUSH2 0x661 SWAP2 SWAP1 PUSH2 0x32C0 JUMP JUMPDEST PUSH1 0x40 MLOAD DUP1 SWAP2 SUB SWAP1 RETURN JUMPDEST PUSH2 0x672 PUSH2 0x26CB JUMP JUMPDEST STOP JUMPDEST PUSH2 0x68E PUSH1 0x4 DUP1 CALLDATASIZE SUB DUP2 ADD SWAP1 PUSH2 0x689 SWAP2 SWAP1 PUSH2 0x327D JUMP JUMPDEST PUSH2 0x26DD JUMP JUMPDEST STOP JUMPDEST PUSH2 0x698 PUSH2 0x2761 JUMP JUMPDEST PUSH1 0x40 MLOAD PUSH2 0x6A5 SWAP2 SWAP1 PUSH2 0x32C0 JUMP JUMPDEST PUSH1 0x40 MLOAD DUP1 SWAP2 SUB SWAP1 RETURN JUMPDEST PUSH2 0x6B6 PUSH2 0x2767 JUMP JUMPDEST PUSH1 0x40 MLOAD PUSH2 0x6C3 SWAP2 SWAP1 PUSH2 0x3761 JUMP JUMPDEST PUSH1 0x40 MLOAD DUP1 SWAP2 SUB SWAP1 RETURN JUMPDEST PUSH0 DUP2 PUSH1 0xD PUSH0 DUP5 PUSH20 0xFFFFFFFFFFFFFFFFFFFFFFFFFFFFFFFFFFFFFFFF AND PUSH20 0xFFFFFFFFFFFFFFFFFFFFFFFFFFFFFFFFFFFFFFFF AND DUP2 MSTORE PUSH1 0x20 ADD SWAP1 DUP2 MSTORE PUSH1 0x20 ADD PUSH0 KECCAK256 SLOAD SWAP2 POP POP SWAP2 SWAP1 POP JUMP JUMPDEST PUSH1 0xE SLOAD DUP2 JUMP JUMPDEST PUSH1 0xD PUSH1 0x20 MSTORE DUP1 PUSH0 MSTORE PUSH1 0x40 PUSH0 KECCAK256 PUSH0 SWAP2 POP SWAP1 POP SLOAD DUP2 JUMP JUMPDEST PUSH1 0xA SLOAD DUP2 JUMP JUMPDEST PUSH0 DUP1 SLOAD SWAP1 PUSH2 0x100 EXP SWAP1 DIV PUSH20 0xFFFFFFFFFFFFFFFFFFFFFFFFFFFFFFFFFFFFFFFF AND DUP2 JUMP JUMPDEST PUSH0 DUP1 PUSH0 SWAP1 SLOAD SWAP1 PUSH2 0x100 EXP SWAP1 DIV PUSH20 0xFFFFFFFFFFFFFFFFFFFFFFFFFFFFFFFFFFFFFFFF AND PUSH20 0xFFFFFFFFFFFFFFFFFFFFFFFFFFFFFFFFFFFFFFFF AND PUSH4 0xE67940F DUP6 DUP6 DUP6 PUSH1 0x40 MLOAD DUP5 PUSH4 0xFFFFFFFF AND PUSH1 0xE0 SHL DUP2 MSTORE PUSH1 0x4 ADD PUSH2 0x7B6 SWAP4 SWAP3 SWAP2 SWAP1 PUSH2 0x377A JUMP JUMPDEST PUSH1 0x20 PUSH1 0x40 MLOAD DUP1 DUP4 SUB DUP2 DUP7 GAS STATICCALL ISZERO DUP1 ISZERO PUSH2 0x7D1 JUMPI RETURNDATASIZE PUSH0 DUP1 RETURNDATACOPY RETURNDATASIZE PUSH0 REVERT JUMPDEST POP POP POP POP PUSH1 0x40 MLOAD RETURNDATASIZE PUSH1 0x1F NOT PUSH1 0x1F DUP3 ADD AND DUP3 ADD DUP1 PUSH1 0x40 MSTORE POP DUP2 ADD SWAP1 PUSH2 0x7F5 SWAP2 SWAP1 PUSH2 0x37C3 JUMP JUMPDEST SWAP1 POP SWAP4 SWAP3 POP POP POP JUMP JUMPDEST PUSH1 0x1 SLOAD DUP2 JUMP JUMPDEST PUSH0 DUP1 PUSH0 DUP1 PUSH0 DUP1 DUP1 SLOAD SWAP1 PUSH2 0x100 EXP SWAP1 DIV PUSH20 0xFFFFFFFFFFFFFFFFFFFFFFFFFFFFFFFFFFFFFFFF AND PUSH20 0xFFFFFFFFFFFFFFFFFFFFFFFFFFFFFFFFFFFFFFFF AND PUSH4 0x18160DDD PUSH1 0x40 MLOAD DUP2 PUSH4 0xFFFFFFFF AND PUSH1 0xE0 SHL DUP2 MSTORE PUSH1 0x4 ADD PUSH1 0x20 PUSH1 0x40 MLOAD DUP1 DUP4 SUB DUP2 DUP7 GAS STATICCALL ISZERO DUP1 ISZERO PUSH2 0x871 JUMPI RETURNDATASIZE PUSH0 DUP1 RETURNDATACOPY RETURNDATASIZE PUSH0 REVERT JUMPDEST POP POP POP POP PUSH1 0x40 MLOAD RETURNDATASIZE PUSH1 0x1F NOT PUSH1 0x1F DUP3 ADD AND DUP3 ADD DUP1 PUSH1 0x40 MSTORE POP DUP2 ADD SWAP1 PUSH2 0x895 SWAP2 SWAP1 PUSH2 0x37C3 JUMP JUMPDEST PUSH1 0x4 PUSH0 SWAP1 SLOAD SWAP1 PUSH2 0x100 EXP SWAP1 DIV PUSH20 0xFFFFFFFFFFFFFFFFFFFFFFFFFFFFFFFFFFFFFFFF AND PUSH20 0xFFFFFFFFFFFFFFFFFFFFFFFFFFFFFFFFFFFFFFFF AND PUSH4 0x70A08231 PUSH0 DUP1 SLOAD SWAP1 PUSH2 0x100 EXP SWAP1 DIV PUSH20 0xFFFFFFFFFFFFFFFFFFFFFFFFFFFFFFFFFFFFFFFF AND PUSH1 0x40 MLOAD DUP3 PUSH4 0xFFFFFFFF AND PUSH1 0xE0 SHL DUP2 MSTORE PUSH1 0x4 ADD PUSH2 0x90E SWAP2 SWAP1 PUSH2 0x35B8 JUMP JUMPDEST PUSH1 0x20 PUSH1 0x40 MLOAD DUP1 DUP4 SUB DUP2 DUP7 GAS STATICCALL ISZERO DUP1 ISZERO PUSH2 0x929 JUMPI RETURNDATASIZE PUSH0 DUP1 RETURNDATACOPY RETURNDATASIZE PUSH0 REVERT JUMPDEST POP POP POP POP PUSH1 0x40 MLOAD RETURNDATASIZE PUSH1 0x1F NOT PUSH1 0x1F DUP3 ADD AND DUP3 ADD DUP1 PUSH1 0x40 MSTORE POP DUP2 ADD SWAP1 PUSH2 0x94D SWAP2 SWAP1 PUSH2 0x37C3 JUMP JUMPDEST PUSH1 0xF SLOAD PUSH1 0x6 SLOAD SWAP5 POP SWAP5 POP SWAP5 POP SWAP5 POP POP SWAP1 SWAP2 SWAP3 SWAP4 JUMP JUMPDEST PUSH0 DUP2 PUSH0 PUSH1 0xF SLOAD PUSH1 0x1 SLOAD PUSH2 0x975 SWAP2 SWAP1 PUSH2 0x381B JUMP JUMPDEST SWAP1 POP PUSH0 DUP2 SUB PUSH2 0x987 JUMPI PUSH0 SWAP3 POP POP PUSH2 0xADF JUMP JUMPDEST PUSH0 DUP1 PUSH0 DUP1 SLOAD SWAP1 PUSH2 0x100 EXP SWAP1 DIV PUSH20 0xFFFFFFFFFFFFFFFFFFFFFFFFFFFFFFFFFFFFFFFF AND PUSH20 0xFFFFFFFFFFFFFFFFFFFFFFFFFFFFFFFFFFFFFFFF AND PUSH4 0x919884BF DUP8 PUSH1 0x40 MLOAD DUP3 PUSH4 0xFFFFFFFF AND PUSH1 0xE0 SHL DUP2 MSTORE PUSH1 0x4 ADD PUSH2 0x9E1 SWAP2 SWAP1 PUSH2 0x35B8 JUMP JUMPDEST PUSH1 0x60 PUSH1 0x40 MLOAD DUP1 DUP4 SUB DUP2 DUP7 GAS STATICCALL ISZERO DUP1 ISZERO PUSH2 0x9FC JUMPI RETURNDATASIZE PUSH0 DUP1 RETURNDATACOPY RETURNDATASIZE PUSH0 REVERT JUMPDEST POP POP POP POP PUSH1 0x40 MLOAD RETURNDATASIZE PUSH1 0x1F NOT PUSH1 0x1F DUP3 ADD AND DUP3 ADD DUP1 PUSH1 0x40 MSTORE POP DUP2 ADD SWAP1 PUSH2 0xA20 SWAP2 SWAP1 PUSH2 0x38A2 JUMP JUMPDEST SWAP3 POP POP PUSH4 0xFFFFFFFF AND SWAP2 POP PUSH0 DUP2 PUSH12 0xFFFFFFFFFFFFFFFFFFFFFFFF AND SWAP1 POP TIMESTAMP DUP4 GT ISZERO DUP1 PUSH2 0xA4B JUMPI POP PUSH0 DUP2 EQ JUMPDEST ISZERO PUSH2 0xA5C JUMPI PUSH0 SWAP6 POP POP POP POP POP PUSH2 0xADF JUMP JUMPDEST PUSH0 DUP5 PUSH4 0x1E13380 PUSH1 0x2 PUSH0 DUP12 PUSH20 0xFFFFFFFFFFFFFFFFFFFFFFFFFFFFFFFFFFFFFFFF AND PUSH20 0xFFFFFFFFFFFFFFFFFFFFFFFFFFFFFFFFFFFFFFFF AND DUP2 MSTORE PUSH1 0x20 ADD SWAP1 DUP2 MSTORE PUSH1 0x20 ADD PUSH0 KECCAK256 SLOAD PUSH1 0x6 SLOAD PUSH2 0xAAE SWAP2 SWAP1 PUSH2 0x38F2 JUMP JUMPDEST PUSH2 0xAB8 SWAP2 SWAP1 PUSH2 0x38F2 JUMP JUMPDEST PUSH2 0xAC2 SWAP2 SWAP1 PUSH2 0x3960 JUMP JUMPDEST SWAP1 POP PUSH2 0xAD7 DUP3 DUP3 PUSH2 0x278C SWAP1 SWAP2 SWAP1 PUSH4 0xFFFFFFFF AND JUMP JUMPDEST SWAP7 POP POP POP POP POP POP JUMPDEST POP SWAP2 SWAP1 POP JUMP JUMPDEST CALLER PUSH0 PUSH1 0xD PUSH0 CALLER PUSH20 0xFFFFFFFFFFFFFFFFFFFFFFFFFFFFFFFFFFFFFFFF AND PUSH20 0xFFFFFFFFFFFFFFFFFFFFFFFFFFFFFFFFFFFFFFFF AND DUP2 MSTORE PUSH1 0x20 ADD SWAP1 DUP2 MSTORE PUSH1 0x20 ADD PUSH0 KECCAK256 SLOAD SWAP1 POP PUSH0 DUP2 GT ISZERO PUSH2 0xC2F JUMPI PUSH0 PUSH1 0xD PUSH0 CALLER PUSH20 0xFFFFFFFFFFFFFFFFFFFFFFFFFFFFFFFFFFFFFFFF AND PUSH20 0xFFFFFFFFFFFFFFFFFFFFFFFFFFFFFFFFFFFFFFFF AND DUP2 MSTORE PUSH1 0x20 ADD SWAP1 DUP2 MSTORE PUSH1 0x20 ADD PUSH0 KECCAK256 DUP2 SWAP1 SSTORE POP PUSH2 0xBE0 PUSH1 0x5 PUSH0 SWAP1 SLOAD SWAP1 PUSH2 0x100 EXP SWAP1 DIV PUSH20 0xFFFFFFFFFFFFFFFFFFFFFFFFFFFFFFFFFFFFFFFF AND CALLER DUP4 PUSH1 0x3 PUSH0 SWAP1 SLOAD SWAP1 PUSH2 0x100 EXP SWAP1 DIV PUSH20 0xFFFFFFFFFFFFFFFFFFFFFFFFFFFFFFFFFFFFFFFF AND PUSH20 0xFFFFFFFFFFFFFFFFFFFFFFFFFFFFFFFFFFFFFFFF AND PUSH2 0x27B4 SWAP1 SWAP4 SWAP3 SWAP2 SWAP1 PUSH4 0xFFFFFFFF AND JUMP JUMPDEST CALLER PUSH20 0xFFFFFFFFFFFFFFFFFFFFFFFFFFFFFFFFFFFFFFFF AND PUSH32 0xE2403640BA68FED3A2F88B7557551D1993F84B99BB10FF833F0CF8DB0C5E0486 DUP3 PUSH1 0x40 MLOAD PUSH2 0xC26 SWAP2 SWAP1 PUSH2 0x32C0 JUMP JUMPDEST PUSH1 0x40 MLOAD DUP1 SWAP2 SUB SWAP1 LOG2 JUMPDEST POP POP JUMP JUMPDEST PUSH0 PUSH2 0xC3C PUSH2 0x2836 JUMP JUMPDEST SWAP1 POP PUSH0 DUP2 PUSH0 ADD PUSH1 0x8 SWAP1 SLOAD SWAP1 PUSH2 0x100 EXP SWAP1 DIV PUSH1 0xFF AND ISZERO SWAP1 POP PUSH0 DUP3 PUSH0 ADD PUSH0 SWAP1 SLOAD SWAP1 PUSH2 0x100 EXP SWAP1 DIV PUSH8 0xFFFFFFFFFFFFFFFF AND SWAP1 POP PUSH0 DUP1 DUP3 PUSH8 0xFFFFFFFFFFFFFFFF AND EQ DUP1 ISZERO PUSH2 0xC84 JUMPI POP DUP3 JUMPDEST SWAP1 POP PUSH0 PUSH1 0x1 DUP4 PUSH8 0xFFFFFFFFFFFFFFFF AND EQ DUP1 ISZERO PUSH2 0xCB7 JUMPI POP PUSH0 ADDRESS PUSH20 0xFFFFFFFFFFFFFFFFFFFFFFFFFFFFFFFFFFFFFFFF AND EXTCODESIZE EQ JUMPDEST SWAP1 POP DUP2 ISZERO DUP1 ISZERO PUSH2 0xCC5 JUMPI POP DUP1 ISZERO JUMPDEST ISZERO PUSH2 0xCFC JUMPI PUSH1 0x40 MLOAD PUSH32 0xF92EE8A900000000000000000000000000000000000000000000000000000000 DUP2 MSTORE PUSH1 0x4 ADD PUSH1 0x40 MLOAD DUP1 SWAP2 SUB SWAP1 REVERT JUMPDEST PUSH1 0x1 DUP6 PUSH0 ADD PUSH0 PUSH2 0x100 EXP DUP2 SLOAD DUP2 PUSH8 0xFFFFFFFFFFFFFFFF MUL NOT AND SWAP1 DUP4 PUSH8 0xFFFFFFFFFFFFFFFF AND MUL OR SWAP1 SSTORE POP DUP4 ISZERO PUSH2 0xD49 JUMPI PUSH1 0x1 DUP6 PUSH0 ADD PUSH1 0x8 PUSH2 0x100 EXP DUP2 SLOAD DUP2 PUSH1 0xFF MUL NOT AND SWAP1 DUP4 ISZERO ISZERO MUL OR SWAP1 SSTORE POP JUMPDEST TIMESTAMP DUP8 GT PUSH2 0xD8B JUMPI PUSH1 0x40 MLOAD PUSH32 0x8C379A000000000000000000000000000000000000000000000000000000000 DUP2 MSTORE PUSH1 0x4 ADD PUSH2 0xD82 SWAP1 PUSH2 0x3A36 JUMP JUMPDEST PUSH1 0x40 MLOAD DUP1 SWAP2 SUB SWAP1 REVERT JUMPDEST PUSH2 0xD94 CALLER PUSH2 0x285D JUMP JUMPDEST PUSH2 0xD9C PUSH2 0x2871 JUMP JUMPDEST DUP10 PUSH0 DUP1 PUSH2 0x100 EXP DUP2 SLOAD DUP2 PUSH20 0xFFFFFFFFFFFFFFFFFFFFFFFFFFFFFFFFFFFFFFFF MUL NOT AND SWAP1 DUP4 PUSH20 0xFFFFFFFFFFFFFFFFFFFFFFFFFFFFFFFFFFFFFFFF AND MUL OR SWAP1 SSTORE POP DUP9 PUSH1 0x4 PUSH0 PUSH2 0x100 EXP DUP2 SLOAD DUP2 PUSH20 0xFFFFFFFFFFFFFFFFFFFFFFFFFFFFFFFFFFFFFFFF MUL NOT AND SWAP1 DUP4 PUSH20 0xFFFFFFFFFFFFFFFFFFFFFFFFFFFFFFFFFFFFFFFF AND MUL OR SWAP1 SSTORE POP DUP8 PUSH1 0x3 PUSH0 PUSH2 0x100 EXP DUP2 SLOAD DUP2 PUSH20 0xFFFFFFFFFFFFFFFFFFFFFFFFFFFFFFFFFFFFFFFF MUL NOT AND SWAP1 DUP4 PUSH20 0xFFFFFFFFFFFFFFFFFFFFFFFFFFFFFFFFFFFFFFFF AND MUL OR SWAP1 SSTORE POP DUP7 PUSH1 0x7 DUP2 SWAP1 SSTORE POP DUP7 PUSH1 0xE DUP2 SWAP1 SSTORE POP DUP7 PUSH1 0x8 DUP2 SWAP1 SSTORE POP DUP6 PUSH1 0x5 PUSH0 PUSH2 0x100 EXP DUP2 SLOAD DUP2 PUSH20 0xFFFFFFFFFFFFFFFFFFFFFFFFFFFFFFFFFFFFFFFF MUL NOT AND SWAP1 DUP4 PUSH20 0xFFFFFFFFFFFFFFFFFFFFFFFFFFFFFFFFFFFFFFFF AND MUL OR SWAP1 SSTORE POP PUSH2 0xF3B PUSH0 DUP1 SLOAD SWAP1 PUSH2 0x100 EXP SWAP1 DIV PUSH20 0xFFFFFFFFFFFFFFFFFFFFFFFFFFFFFFFFFFFFFFFF AND PUSH32 0xFFFFFFFFFFFFFFFFFFFFFFFFFFFFFFFFFFFFFFFFFFFFFFFFFFFFFFFFFFFFFFFF PUSH1 0x4 PUSH0 SWAP1 SLOAD SWAP1 PUSH2 0x100 EXP SWAP1 DIV PUSH20 0xFFFFFFFFFFFFFFFFFFFFFFFFFFFFFFFFFFFFFFFF AND PUSH20 0xFFFFFFFFFFFFFFFFFFFFFFFFFFFFFFFFFFFFFFFF AND PUSH2 0x2883 SWAP1 SWAP3 SWAP2 SWAP1 PUSH4 0xFFFFFFFF AND JUMP JUMPDEST DUP4 ISZERO PUSH2 0xF95 JUMPI PUSH0 DUP6 PUSH0 ADD PUSH1 0x8 PUSH2 0x100 EXP DUP2 SLOAD DUP2 PUSH1 0xFF MUL NOT AND SWAP1 DUP4 ISZERO ISZERO MUL OR SWAP1 SSTORE POP PUSH32 0xC7F505B2F371AE2175EE4913F4499E1F2633A7B5936321EED1CDAEB6115181D2 PUSH1 0x1 PUSH1 0x40 MLOAD PUSH2 0xF8C SWAP2 SWAP1 PUSH2 0x3AA0 JUMP JUMPDEST PUSH1 0x40 MLOAD DUP1 SWAP2 SUB SWAP1 LOG1 JUMPDEST POP POP POP POP POP POP POP POP POP POP JUMP JUMPDEST PUSH0 PUSH1 0x2 PUSH0 DUP4 PUSH20 0xFFFFFFFFFFFFFFFFFFFFFFFFFFFFFFFFFFFFFFFF AND PUSH20 0xFFFFFFFFFFFFFFFFFFFFFFFFFFFFFFFFFFFFFFFF AND DUP2 MSTORE PUSH1 0x20 ADD SWAP1 DUP2 MSTORE PUSH1 0x20 ADD PUSH0 KECCAK256 SLOAD SWAP1 POP SWAP2 SWAP1 POP JUMP JUMPDEST PUSH2 0xFEF PUSH2 0x2990 JUMP JUMPDEST PUSH2 0xFF8 PUSH0 PUSH2 0x2A17 JUMP JUMPDEST JUMP JUMPDEST DUP2 PUSH0 DUP2 SUB PUSH2 0x103D JUMPI PUSH1 0x40 MLOAD PUSH32 0x8C379A000000000000000000000000000000000000000000000000000000000 DUP2 MSTORE PUSH1 0x4 ADD PUSH2 0x1034 SWAP1 PUSH2 0x3B29 JUMP JUMPDEST PUSH1 0x40 MLOAD DUP1 SWAP2 SUB SWAP1 REVERT JUMPDEST DUP2 TIMESTAMP DUP2 GT PUSH2 0x1080 JUMPI PUSH1 0x40 MLOAD PUSH32 0x8C379A000000000000000000000000000000000000000000000000000000000 DUP2 MSTORE PUSH1 0x4 ADD PUSH2 0x1077 SWAP1 PUSH2 0x3BB7 JUMP JUMPDEST PUSH1 0x40 MLOAD DUP1 SWAP2 SUB SWAP1 REVERT JUMPDEST PUSH0 PUSH3 0x93A80 PUSH1 0x7 SLOAD DUP4 PUSH2 0x1093 SWAP2 SWAP1 PUSH2 0x381B JUMP JUMPDEST PUSH2 0x109D SWAP2 SWAP1 PUSH2 0x3BD5 JUMP JUMPDEST EQ PUSH2 0x10DD JUMPI PUSH1 0x40 MLOAD PUSH32 0x8C379A000000000000000000000000000000000000000000000000000000000 DUP2 MSTORE PUSH1 0x4 ADD PUSH2 0x10D4 SWAP1 PUSH2 0x3C75 JUMP JUMPDEST PUSH1 0x40 MLOAD DUP1 SWAP2 SUB SWAP1 REVERT JUMPDEST PUSH2 0x10E5 PUSH2 0x2AE8 JUMP JUMPDEST CALLER PUSH0 DUP1 PUSH0 SWAP1 SLOAD SWAP1 PUSH2 0x100 EXP SWAP1 DIV PUSH20 0xFFFFFFFFFFFFFFFFFFFFFFFFFFFFFFFFFFFFFFFF AND PUSH20 0xFFFFFFFFFFFFFFFFFFFFFFFFFFFFFFFFFFFFFFFF AND PUSH4 0x919884BF CALLER PUSH1 0x40 MLOAD DUP3 PUSH4 0xFFFFFFFF AND PUSH1 0xE0 SHL DUP2 MSTORE PUSH1 0x4 ADD PUSH2 0x1140 SWAP2 SWAP1 PUSH2 0x35B8 JUMP JUMPDEST PUSH1 0x60 PUSH1 0x40 MLOAD DUP1 DUP4 SUB DUP2 DUP7 GAS STATICCALL ISZERO DUP1 ISZERO PUSH2 0x115B JUMPI RETURNDATASIZE PUSH0 DUP1 RETURNDATACOPY RETURNDATASIZE PUSH0 REVERT JUMPDEST POP POP POP POP PUSH1 0x40 MLOAD RETURNDATASIZE PUSH1 0x1F NOT PUSH1 0x1F DUP3 ADD AND DUP3 ADD DUP1 PUSH1 0x40 MSTORE POP DUP2 ADD SWAP1 PUSH2 0x117F SWAP2 SWAP1 PUSH2 0x38A2 JUMP JUMPDEST PUSH12 0xFFFFFFFFFFFFFFFFFFFFFFFF AND SWAP3 POP POP POP DUP1 DUP7 GT ISZERO PUSH2 0x11F3 JUMPI PUSH2 0x11F2 CALLER ADDRESS DUP4 DUP10 PUSH2 0x11AA SWAP2 SWAP1 PUSH2 0x381B JUMP JUMPDEST PUSH1 0x4 PUSH0 SWAP1 SLOAD SWAP1 PUSH2 0x100 EXP SWAP1 DIV PUSH20 0xFFFFFFFFFFFFFFFFFFFFFFFFFFFFFFFFFFFFFFFF AND PUSH20 0xFFFFFFFFFFFFFFFFFFFFFFFFFFFFFFFFFFFFFFFF AND PUSH2 0x27B4 SWAP1 SWAP4 SWAP3 SWAP2 SWAP1 PUSH4 0xFFFFFFFF AND JUMP JUMPDEST JUMPDEST PUSH0 TIMESTAMP DUP7 PUSH2 0x1200 SWAP2 SWAP1 PUSH2 0x381B JUMP JUMPDEST SWAP1 POP PUSH0 PUSH1 0x2 PUSH0 CALLER PUSH20 0xFFFFFFFFFFFFFFFFFFFFFFFFFFFFFFFFFFFFFFFF AND PUSH20 0xFFFFFFFFFFFFFFFFFFFFFFFFFFFFFFFFFFFFFFFF AND DUP2 MSTORE PUSH1 0x20 ADD SWAP1 DUP2 MSTORE PUSH1 0x20 ADD PUSH0 KECCAK256 SLOAD SWAP1 POP PUSH0 DUP1 PUSH0 SWAP1 SLOAD SWAP1 PUSH2 0x100 EXP SWAP1 DIV PUSH20 0xFFFFFFFFFFFFFFFFFFFFFFFFFFFFFFFFFFFFFFFF AND PUSH20 0xFFFFFFFFFFFFFFFFFFFFFFFFFFFFFFFFFFFFFFFF AND PUSH4 0x19225FC0 CALLER DUP12 DUP7 PUSH1 0x40 MLOAD DUP5 PUSH4 0xFFFFFFFF AND PUSH1 0xE0 SHL DUP2 MSTORE PUSH1 0x4 ADD PUSH2 0x12A1 SWAP4 SWAP3 SWAP2 SWAP1 PUSH2 0x377A JUMP JUMPDEST PUSH1 0x20 PUSH1 0x40 MLOAD DUP1 DUP4 SUB DUP2 PUSH0 DUP8 GAS CALL ISZERO DUP1 ISZERO PUSH2 0x12BD JUMPI RETURNDATASIZE PUSH0 DUP1 RETURNDATACOPY RETURNDATASIZE PUSH0 REVERT JUMPDEST POP POP POP POP PUSH1 0x40 MLOAD RETURNDATASIZE PUSH1 0x1F NOT PUSH1 0x1F DUP3 ADD AND DUP3 ADD DUP1 PUSH1 0x40 MSTORE POP DUP2 ADD SWAP1 PUSH2 0x12E1 SWAP2 SWAP1 PUSH2 0x3C93 JUMP JUMPDEST PUSH12 0xFFFFFFFFFFFFFFFFFFFFFFFF AND SWAP1 POP DUP1 PUSH1 0x2 PUSH0 CALLER PUSH20 0xFFFFFFFFFFFFFFFFFFFFFFFFFFFFFFFFFFFFFFFF AND PUSH20 0xFFFFFFFFFFFFFFFFFFFFFFFFFFFFFFFFFFFFFFFF AND DUP2 MSTORE PUSH1 0x20 ADD SWAP1 DUP2 MSTORE PUSH1 0x20 ADD PUSH0 KECCAK256 DUP2 SWAP1 SSTORE POP PUSH1 0x9 SLOAD PUSH1 0xC PUSH0 CALLER PUSH20 0xFFFFFFFFFFFFFFFFFFFFFFFFFFFFFFFFFFFFFFFF AND PUSH20 0xFFFFFFFFFFFFFFFFFFFFFFFFFFFFFFFFFFFFFFFF AND DUP2 MSTORE PUSH1 0x20 ADD SWAP1 DUP2 MSTORE PUSH1 0x20 ADD PUSH0 KECCAK256 DUP2 SWAP1 SSTORE POP DUP2 DUP2 PUSH1 0x1 SLOAD PUSH2 0x1386 SWAP2 SWAP1 PUSH2 0x3CBE JUMP JUMPDEST PUSH2 0x1390 SWAP2 SWAP1 PUSH2 0x381B JUMP JUMPDEST PUSH1 0x1 DUP2 SWAP1 SSTORE POP DUP1 PUSH1 0x10 PUSH0 DUP11 DUP2 MSTORE PUSH1 0x20 ADD SWAP1 DUP2 MSTORE PUSH1 0x20 ADD PUSH0 KECCAK256 PUSH1 0x1 ADD SLOAD PUSH2 0x13B6 SWAP2 SWAP1 PUSH2 0x3CBE JUMP JUMPDEST PUSH1 0x10 PUSH0 DUP11 DUP2 MSTORE PUSH1 0x20 ADD SWAP1 DUP2 MSTORE PUSH1 0x20 ADD PUSH0 KECCAK256 PUSH1 0x1 ADD DUP2 SWAP1 SSTORE POP DUP2 PUSH1 0xF SLOAD PUSH2 0x13DC SWAP2 SWAP1 PUSH2 0x381B JUMP JUMPDEST PUSH1 0xF DUP2 SWAP1 SSTORE POP PUSH32 0x14480C50968B1E72780F52B2792FAA6924FC344438D200C2BDEAD4130C1506F9 CALLER DUP6 DUP12 DUP7 DUP7 DUP7 PUSH1 0x40 MLOAD PUSH2 0x141B SWAP7 SWAP6 SWAP5 SWAP4 SWAP3 SWAP2 SWAP1 PUSH2 0x3CF1 JUMP JUMPDEST PUSH1 0x40 MLOAD DUP1 SWAP2 SUB SWAP1 LOG1 POP POP POP POP POP PUSH2 0x1430 PUSH2 0x2B3C JUMP JUMPDEST POP POP POP POP JUMP JUMPDEST PUSH1 0x7 SLOAD DUP2 JUMP JUMPDEST PUSH1 0x6 SLOAD DUP2 JUMP JUMPDEST PUSH1 0x4 PUSH0 SWAP1 SLOAD SWAP1 PUSH2 0x100 EXP SWAP1 DIV PUSH20 0xFFFFFFFFFFFFFFFFFFFFFFFFFFFFFFFFFFFFFFFF AND DUP2 JUMP JUMPDEST PUSH1 0xC PUSH1 0x20 MSTORE DUP1 PUSH0 MSTORE PUSH1 0x40 PUSH0 KECCAK256 PUSH0 SWAP2 POP SWAP1 POP SLOAD DUP2 JUMP JUMPDEST PUSH0 DUP1 PUSH2 0x1486 PUSH2 0x2B53 JUMP JUMPDEST SWAP1 POP DUP1 PUSH0 ADD PUSH0 SWAP1 SLOAD SWAP1 PUSH2 0x100 EXP SWAP1 DIV PUSH20 0xFFFFFFFFFFFFFFFFFFFFFFFFFFFFFFFFFFFFFFFF AND SWAP2 POP POP SWAP1 JUMP JUMPDEST PUSH0 DUP1 PUSH0 DUP1 PUSH0 SWAP1 SLOAD SWAP1 PUSH2 0x100 EXP SWAP1 DIV PUSH20 0xFFFFFFFFFFFFFFFFFFFFFFFFFFFFFFFFFFFFFFFF AND PUSH20 0xFFFFFFFFFFFFFFFFFFFFFFFFFFFFFFFFFFFFFFFF AND PUSH4 0x919884BF DUP6 PUSH1 0x40 MLOAD DUP3 PUSH4 0xFFFFFFFF AND PUSH1 0xE0 SHL DUP2 MSTORE PUSH1 0x4 ADD PUSH2 0x150D SWAP2 SWAP1 PUSH2 0x35B8 JUMP JUMPDEST PUSH1 0x60 PUSH1 0x40 MLOAD DUP1 DUP4 SUB DUP2 DUP7 GAS STATICCALL ISZERO DUP1 ISZERO PUSH2 0x1528 JUMPI RETURNDATASIZE PUSH0 DUP1 RETURNDATACOPY RETURNDATASIZE PUSH0 REVERT JUMPDEST POP POP POP POP PUSH1 0x40 MLOAD RETURNDATASIZE PUSH1 0x1F NOT PUSH1 0x1F DUP3 ADD AND DUP3 ADD DUP1 PUSH1 0x40 MSTORE POP DUP2 ADD SWAP1 PUSH2 0x154C SWAP2 SWAP1 PUSH2 0x38A2 JUMP JUMPDEST SWAP3 POP SWAP3 POP SWAP3 POP SWAP2 SWAP4 SWAP1 SWAP3 POP JUMP JUMPDEST DUP1 TIMESTAMP DUP2 GT PUSH2 0x159C JUMPI PUSH1 0x40 MLOAD PUSH32 0x8C379A000000000000000000000000000000000000000000000000000000000 DUP2 MSTORE PUSH1 0x4 ADD PUSH2 0x1593 SWAP1 PUSH2 0x3BB7 JUMP JUMPDEST PUSH1 0x40 MLOAD DUP1 SWAP2 SUB SWAP1 REVERT JUMPDEST PUSH0 PUSH3 0x93A80 PUSH1 0x7 SLOAD DUP4 PUSH2 0x15AF SWAP2 SWAP1 PUSH2 0x381B JUMP JUMPDEST PUSH2 0x15B9 SWAP2 SWAP1 PUSH2 0x3BD5 JUMP JUMPDEST EQ PUSH2 0x15F9 JUMPI PUSH1 0x40 MLOAD PUSH32 0x8C379A000000000000000000000000000000000000000000000000000000000 DUP2 MSTORE PUSH1 0x4 ADD PUSH2 0x15F0 SWAP1 PUSH2 0x3C75 JUMP JUMPDEST PUSH1 0x40 MLOAD DUP1 SWAP2 SUB SWAP1 REVERT JUMPDEST CALLER PUSH0 DUP1 PUSH0 SWAP1 SLOAD SWAP1 PUSH2 0x100 EXP SWAP1 DIV PUSH20 0xFFFFFFFFFFFFFFFFFFFFFFFFFFFFFFFFFFFFFFFF AND PUSH20 0xFFFFFFFFFFFFFFFFFFFFFFFFFFFFFFFFFFFFFFFF AND PUSH4 0x919884BF CALLER PUSH1 0x40 MLOAD DUP3 PUSH4 0xFFFFFFFF AND PUSH1 0xE0 SHL DUP2 MSTORE PUSH1 0x4 ADD PUSH2 0x1654 SWAP2 SWAP1 PUSH2 0x35B8 JUMP JUMPDEST PUSH1 0x60 PUSH1 0x40 MLOAD DUP1 DUP4 SUB DUP2 DUP7 GAS STATICCALL ISZERO DUP1 ISZERO PUSH2 0x166F JUMPI RETURNDATASIZE PUSH0 DUP1 RETURNDATACOPY RETURNDATASIZE PUSH0 REVERT JUMPDEST POP POP POP POP PUSH1 0x40 MLOAD RETURNDATASIZE PUSH1 0x1F NOT PUSH1 0x1F DUP3 ADD AND DUP3 ADD DUP1 PUSH1 0x40 MSTORE POP DUP2 ADD SWAP1 PUSH2 0x1693 SWAP2 SWAP1 PUSH2 0x38A2 JUMP JUMPDEST POP POP SWAP1 POP PUSH0 PUSH1 0x2 PUSH0 CALLER PUSH20 0xFFFFFFFFFFFFFFFFFFFFFFFFFFFFFFFFFFFFFFFF AND PUSH20 0xFFFFFFFFFFFFFFFFFFFFFFFFFFFFFFFFFFFFFFFF AND DUP2 MSTORE PUSH1 0x20 ADD SWAP1 DUP2 MSTORE PUSH1 0x20 ADD PUSH0 KECCAK256 SLOAD SWAP1 POP DUP1 PUSH1 0x10 PUSH0 DUP5 PUSH4 0xFFFFFFFF AND DUP2 MSTORE PUSH1 0x20 ADD SWAP1 DUP2 MSTORE PUSH1 0x20 ADD PUSH0 KECCAK256 PUSH1 0x1 ADD SLOAD PUSH2 0x16FE SWAP2 SWAP1 PUSH2 0x381B JUMP JUMPDEST PUSH1 0x10 PUSH0 DUP5 PUSH4 0xFFFFFFFF AND DUP2 MSTORE PUSH1 0x20 ADD SWAP1 DUP2 MSTORE PUSH1 0x20 ADD PUSH0 KECCAK256 PUSH1 0x1 ADD DUP2 SWAP1 SSTORE POP PUSH0 DUP3 PUSH4 0xFFFFFFFF AND DUP7 PUSH2 0x172F SWAP2 SWAP1 PUSH2 0x381B JUMP JUMPDEST SWAP1 POP PUSH0 DUP1 PUSH0 SWAP1 SLOAD SWAP1 PUSH2 0x100 EXP SWAP1 DIV PUSH20 0xFFFFFFFFFFFFFFFFFFFFFFFFFFFFFFFFFFFFFFFF AND PUSH20 0xFFFFFFFFFFFFFFFFFFFFFFFFFFFFFFFFFFFFFFFF AND PUSH4 0x8409A123 CALLER DUP5 PUSH1 0x40 MLOAD DUP4 PUSH4 0xFFFFFFFF AND PUSH1 0xE0 SHL DUP2 MSTORE PUSH1 0x4 ADD PUSH2 0x178D SWAP3 SWAP2 SWAP1 PUSH2 0x3D50 JUMP JUMPDEST PUSH1 0x20 PUSH1 0x40 MLOAD DUP1 DUP4 SUB DUP2 PUSH0 DUP8 GAS CALL ISZERO DUP1 ISZERO PUSH2 0x17A9 JUMPI RETURNDATASIZE PUSH0 DUP1 RETURNDATACOPY RETURNDATASIZE PUSH0 REVERT JUMPDEST POP POP POP POP PUSH1 0x40 MLOAD RETURNDATASIZE PUSH1 0x1F NOT PUSH1 0x1F DUP3 ADD AND DUP3 ADD DUP1 PUSH1 0x40 MSTORE POP DUP2 ADD SWAP1 PUSH2 0x17CD SWAP2 SWAP1 PUSH2 0x3C93 JUMP JUMPDEST PUSH12 0xFFFFFFFFFFFFFFFFFFFFFFFF AND SWAP1 POP DUP1 PUSH1 0x1 SLOAD PUSH2 0x17EB SWAP2 SWAP1 PUSH2 0x3CBE JUMP JUMPDEST PUSH1 0x1 DUP2 SWAP1 SSTORE POP DUP1 PUSH1 0x2 PUSH0 CALLER PUSH20 0xFFFFFFFFFFFFFFFFFFFFFFFFFFFFFFFFFFFFFFFF AND PUSH20 0xFFFFFFFFFFFFFFFFFFFFFFFFFFFFFFFFFFFFFFFF AND DUP2 MSTORE PUSH1 0x20 ADD SWAP1 DUP2 MSTORE PUSH1 0x20 ADD PUSH0 KECCAK256 SLOAD PUSH2 0x183A SWAP2 SWAP1 PUSH2 0x3CBE JUMP JUMPDEST PUSH1 0x2 PUSH0 CALLER PUSH20 0xFFFFFFFFFFFFFFFFFFFFFFFFFFFFFFFFFFFFFFFF AND PUSH20 0xFFFFFFFFFFFFFFFFFFFFFFFFFFFFFFFFFFFFFFFF AND DUP2 MSTORE PUSH1 0x20 ADD SWAP1 DUP2 MSTORE PUSH1 0x20 ADD PUSH0 KECCAK256 DUP2 SWAP1 SSTORE POP DUP3 DUP2 PUSH1 0x10 PUSH0 DUP11 DUP2 MSTORE PUSH1 0x20 ADD SWAP1 DUP2 MSTORE PUSH1 0x20 ADD PUSH0 KECCAK256 PUSH1 0x1 ADD SLOAD PUSH2 0x189C SWAP2 SWAP1 PUSH2 0x3CBE JUMP JUMPDEST PUSH2 0x18A6 SWAP2 SWAP1 PUSH2 0x3CBE JUMP JUMPDEST PUSH1 0x10 PUSH0 DUP10 DUP2 MSTORE PUSH1 0x20 ADD SWAP1 DUP2 MSTORE PUSH1 0x20 ADD PUSH0 KECCAK256 PUSH1 0x1 ADD DUP2 SWAP1 SSTORE POP PUSH32 0x661475D2BB7F20A2052FDFD8F597E1E76CDB5C12A6B8CA867B1E2EEE4BA14D90 CALLER DUP6 DUP10 DUP6 DUP6 PUSH1 0x40 MLOAD PUSH2 0x18F5 SWAP6 SWAP5 SWAP4 SWAP3 SWAP2 SWAP1 PUSH2 0x3DA7 JUMP JUMPDEST PUSH1 0x40 MLOAD DUP1 SWAP2 SUB SWAP1 LOG1 POP POP POP POP POP POP POP JUMP JUMPDEST CALLER PUSH20 0xFFFFFFFFFFFFFFFFFFFFFFFFFFFFFFFFFFFFFFFF AND PUSH1 0x5 PUSH0 SWAP1 SLOAD SWAP1 PUSH2 0x100 EXP SWAP1 DIV PUSH20 0xFFFFFFFFFFFFFFFFFFFFFFFFFFFFFFFFFFFFFFFF AND PUSH20 0xFFFFFFFFFFFFFFFFFFFFFFFFFFFFFFFFFFFFFFFF AND EQ PUSH2 0x1995 JUMPI PUSH1 0x40 MLOAD PUSH32 0x8C379A000000000000000000000000000000000000000000000000000000000 DUP2 MSTORE PUSH1 0x4 ADD PUSH2 0x198C SWAP1 PUSH2 0x3E68 JUMP JUMPDEST PUSH1 0x40 MLOAD DUP1 SWAP2 SUB SWAP1 REVERT JUMPDEST PUSH2 0x199D PUSH2 0x267D JUMP JUMPDEST PUSH1 0xB DUP2 SWAP1 SSTORE POP TIMESTAMP PUSH1 0xA DUP2 SWAP1 SSTORE POP PUSH0 DUP1 PUSH1 0x6 SLOAD SWAP1 POP DUP3 PUSH1 0x6 DUP2 SWAP1 SSTORE POP PUSH32 0xC390A98ACE15A7BB6BAB611EEDFDBB2685043B241A869420043CDFB23CCFEE50 DUP2 DUP5 PUSH1 0x40 MLOAD PUSH2 0x19E9 SWAP3 SWAP2 SWAP1 PUSH2 0x3E86 JUMP JUMPDEST PUSH1 0x40 MLOAD DUP1 SWAP2 SUB SWAP1 LOG1 POP POP POP JUMP JUMPDEST DUP2 PUSH0 DUP2 SUB PUSH2 0x1A39 JUMPI PUSH1 0x40 MLOAD PUSH32 0x8C379A000000000000000000000000000000000000000000000000000000000 DUP2 MSTORE PUSH1 0x4 ADD PUSH2 0x1A30 SWAP1 PUSH2 0x3B29 JUMP JUMPDEST PUSH1 0x40 MLOAD DUP1 SWAP2 SUB SWAP1 REVERT JUMPDEST DUP2 TIMESTAMP DUP2 GT PUSH2 0x1A7C JUMPI PUSH1 0x40 MLOAD PUSH32 0x8C379A000000000000000000000000000000000000000000000000000000000 DUP2 MSTORE PUSH1 0x4 ADD PUSH2 0x1A73 SWAP1 PUSH2 0x3BB7 JUMP JUMPDEST PUSH1 0x40 MLOAD DUP1 SWAP2 SUB SWAP1 REVERT JUMPDEST PUSH0 PUSH3 0x93A80 PUSH1 0x7 SLOAD DUP4 PUSH2 0x1A8F SWAP2 SWAP1 PUSH2 0x381B JUMP JUMPDEST PUSH2 0x1A99 SWAP2 SWAP1 PUSH2 0x3BD5 JUMP JUMPDEST EQ PUSH2 0x1AD9 JUMPI PUSH1 0x40 MLOAD PUSH32 0x8C379A000000000000000000000000000000000000000000000000000000000 DUP2 MSTORE PUSH1 0x4 ADD PUSH2 0x1AD0 SWAP1 PUSH2 0x3C75 JUMP JUMPDEST PUSH1 0x40 MLOAD DUP1 SWAP2 SUB SWAP1 REVERT JUMPDEST CALLER PUSH0 TIMESTAMP DUP6 PUSH2 0x1AE7 SWAP2 SWAP1 PUSH2 0x381B JUMP JUMPDEST SWAP1 POP PUSH2 0x1B37 CALLER ADDRESS DUP9 PUSH1 0x4 PUSH0 SWAP1 SLOAD SWAP1 PUSH2 0x100 EXP SWAP1 DIV PUSH20 0xFFFFFFFFFFFFFFFFFFFFFFFFFFFFFFFFFFFFFFFF AND PUSH20 0xFFFFFFFFFFFFFFFFFFFFFFFFFFFFFFFFFFFFFFFF AND PUSH2 0x27B4 SWAP1 SWAP4 SWAP3 SWAP2 SWAP1 PUSH4 0xFFFFFFFF AND JUMP JUMPDEST PUSH0 DUP1 PUSH0 SWAP1 SLOAD SWAP1 PUSH2 0x100 EXP SWAP1 DIV PUSH20 0xFFFFFFFFFFFFFFFFFFFFFFFFFFFFFFFFFFFFFFFF AND PUSH20 0xFFFFFFFFFFFFFFFFFFFFFFFFFFFFFFFFFFFFFFFF AND PUSH4 0x5165DA30 CALLER DUP10 DUP6 PUSH1 0x40 MLOAD DUP5 PUSH4 0xFFFFFFFF AND PUSH1 0xE0 SHL DUP2 MSTORE PUSH1 0x4 ADD PUSH2 0x1B95 SWAP4 SWAP3 SWAP2 SWAP1 PUSH2 0x377A JUMP JUMPDEST PUSH1 0x20 PUSH1 0x40 MLOAD DUP1 DUP4 SUB DUP2 PUSH0 DUP8 GAS CALL ISZERO DUP1 ISZERO PUSH2 0x1BB1 JUMPI RETURNDATASIZE PUSH0 DUP1 RETURNDATACOPY RETURNDATASIZE PUSH0 REVERT JUMPDEST POP POP POP POP PUSH1 0x40 MLOAD RETURNDATASIZE PUSH1 0x1F NOT PUSH1 0x1F DUP3 ADD AND DUP3 ADD DUP1 PUSH1 0x40 MSTORE POP DUP2 ADD SWAP1 PUSH2 0x1BD5 SWAP2 SWAP1 PUSH2 0x3C93 JUMP JUMPDEST PUSH12 0xFFFFFFFFFFFFFFFFFFFFFFFF AND SWAP1 POP DUP1 PUSH1 0x1 SLOAD PUSH2 0x1BF3 SWAP2 SWAP1 PUSH2 0x3CBE JUMP JUMPDEST PUSH1 0x1 DUP2 SWAP1 SSTORE POP DUP1 PUSH1 0x2 PUSH0 CALLER PUSH20 0xFFFFFFFFFFFFFFFFFFFFFFFFFFFFFFFFFFFFFFFF AND PUSH20 0xFFFFFFFFFFFFFFFFFFFFFFFFFFFFFFFFFFFFFFFF AND DUP2 MSTORE PUSH1 0x20 ADD SWAP1 DUP2 MSTORE PUSH1 0x20 ADD PUSH0 KECCAK256 SLOAD PUSH2 0x1C42 SWAP2 SWAP1 PUSH2 0x3CBE JUMP JUMPDEST PUSH1 0x2 PUSH0 CALLER PUSH20 0xFFFFFFFFFFFFFFFFFFFFFFFFFFFFFFFFFFFFFFFF AND PUSH20 0xFFFFFFFFFFFFFFFFFFFFFFFFFFFFFFFFFFFFFFFF AND DUP2 MSTORE PUSH1 0x20 ADD SWAP1 DUP2 MSTORE PUSH1 0x20 ADD PUSH0 KECCAK256 DUP2 SWAP1 SSTORE POP DUP1 PUSH1 0x10 PUSH0 DUP9 DUP2 MSTORE PUSH1 0x20 ADD SWAP1 DUP2 MSTORE PUSH1 0x20 ADD PUSH0 KECCAK256 PUSH1 0x1 ADD SLOAD PUSH2 0x1CA3 SWAP2 SWAP1 PUSH2 0x3CBE JUMP JUMPDEST PUSH1 0x10 PUSH0 DUP9 DUP2 MSTORE PUSH1 0x20 ADD SWAP1 DUP2 MSTORE PUSH1 0x20 ADD PUSH0 KECCAK256 PUSH1 0x1 ADD DUP2 SWAP1 SSTORE POP PUSH32 0xE3A07E2AC405F9C908F600BA464ED28DD28F04E308CCC0610A33CA7ED1C59ABB CALLER DUP9 DUP5 DUP5 PUSH1 0x40 MLOAD PUSH2 0x1CF0 SWAP5 SWAP4 SWAP3 SWAP2 SWAP1 PUSH2 0x3EAD JUMP JUMPDEST PUSH1 0x40 MLOAD DUP1 SWAP2 SUB SWAP1 LOG1 POP POP POP POP POP POP POP JUMP JUMPDEST CALLER PUSH0 DUP3 GT ISZERO PUSH2 0x1D59 JUMPI PUSH2 0x1D58 CALLER ADDRESS DUP5 PUSH1 0x4 PUSH0 SWAP1 SLOAD SWAP1 PUSH2 0x100 EXP SWAP1 DIV PUSH20 0xFFFFFFFFFFFFFFFFFFFFFFFFFFFFFFFFFFFFFFFF AND PUSH20 0xFFFFFFFFFFFFFFFFFFFFFFFFFFFFFFFFFFFFFFFF AND PUSH2 0x27B4 SWAP1 SWAP4 SWAP3 SWAP2 SWAP1 PUSH4 0xFFFFFFFF AND JUMP JUMPDEST JUMPDEST PUSH0 DUP1 PUSH0 SWAP1 SLOAD SWAP1 PUSH2 0x100 EXP SWAP1 DIV PUSH20 0xFFFFFFFFFFFFFFFFFFFFFFFFFFFFFFFFFFFFFFFF AND PUSH20 0xFFFFFFFFFFFFFFFFFFFFFFFFFFFFFFFFFFFFFFFF AND PUSH4 0x919884BF CALLER PUSH1 0x40 MLOAD DUP3 PUSH4 0xFFFFFFFF AND PUSH1 0xE0 SHL DUP2 MSTORE PUSH1 0x4 ADD PUSH2 0x1DB3 SWAP2 SWAP1 PUSH2 0x35B8 JUMP JUMPDEST PUSH1 0x60 PUSH1 0x40 MLOAD DUP1 DUP4 SUB DUP2 DUP7 GAS STATICCALL ISZERO DUP1 ISZERO PUSH2 0x1DCE JUMPI RETURNDATASIZE PUSH0 DUP1 RETURNDATACOPY RETURNDATASIZE PUSH0 REVERT JUMPDEST POP POP POP POP PUSH1 0x40 MLOAD RETURNDATASIZE PUSH1 0x1F NOT PUSH1 0x1F DUP3 ADD AND DUP3 ADD DUP1 PUSH1 0x40 MSTORE POP DUP2 ADD SWAP1 PUSH2 0x1DF2 SWAP2 SWAP1 PUSH2 0x38A2 JUMP JUMPDEST POP POP SWAP1 POP PUSH0 PUSH1 0x2 PUSH0 CALLER PUSH20 0xFFFFFFFFFFFFFFFFFFFFFFFFFFFFFFFFFFFFFFFF AND PUSH20 0xFFFFFFFFFFFFFFFFFFFFFFFFFFFFFFFFFFFFFFFF AND DUP2 MSTORE PUSH1 0x20 ADD SWAP1 DUP2 MSTORE PUSH1 0x20 ADD PUSH0 KECCAK256 SLOAD SWAP1 POP DUP1 PUSH1 0x10 PUSH0 DUP5 PUSH4 0xFFFFFFFF AND DUP2 MSTORE PUSH1 0x20 ADD SWAP1 DUP2 MSTORE PUSH1 0x20 ADD PUSH0 KECCAK256 PUSH1 0x1 ADD SLOAD PUSH2 0x1E5D SWAP2 SWAP1 PUSH2 0x381B JUMP JUMPDEST PUSH1 0x10 PUSH0 DUP5 PUSH4 0xFFFFFFFF AND DUP2 MSTORE PUSH1 0x20 ADD SWAP1 DUP2 MSTORE PUSH1 0x20 ADD PUSH0 KECCAK256 PUSH1 0x1 ADD DUP2 SWAP1 SSTORE POP PUSH0 PUSH3 0x93A80 PUSH1 0x7 SLOAD TIMESTAMP PUSH2 0x1E8E SWAP2 SWAP1 PUSH2 0x381B JUMP JUMPDEST PUSH2 0x1E98 SWAP2 SWAP1 PUSH2 0x3BD5 JUMP JUMPDEST PUSH0 DUP1 SLOAD SWAP1 PUSH2 0x100 EXP SWAP1 DIV PUSH20 0xFFFFFFFFFFFFFFFFFFFFFFFFFFFFFFFFFFFFFFFF AND PUSH20 0xFFFFFFFFFFFFFFFFFFFFFFFFFFFFFFFFFFFFFFFF AND PUSH4 0x6DB5C8FD PUSH1 0x40 MLOAD DUP2 PUSH4 0xFFFFFFFF AND PUSH1 0xE0 SHL DUP2 MSTORE PUSH1 0x4 ADD PUSH1 0x20 PUSH1 0x40 MLOAD DUP1 DUP4 SUB DUP2 DUP7 GAS STATICCALL ISZERO DUP1 ISZERO PUSH2 0x1F00 JUMPI RETURNDATASIZE PUSH0 DUP1 RETURNDATACOPY RETURNDATASIZE PUSH0 REVERT JUMPDEST POP POP POP POP PUSH1 0x40 MLOAD RETURNDATASIZE PUSH1 0x1F NOT PUSH1 0x1F DUP3 ADD AND DUP3 ADD DUP1 PUSH1 0x40 MSTORE POP DUP2 ADD SWAP1 PUSH2 0x1F24 SWAP2 SWAP1 PUSH2 0x37C3 JUMP JUMPDEST PUSH2 0x1F2E SWAP2 SWAP1 PUSH2 0x381B JUMP JUMPDEST SWAP1 POP PUSH0 DUP2 TIMESTAMP PUSH2 0x1F3D SWAP2 SWAP1 PUSH2 0x3CBE JUMP JUMPDEST SWAP1 POP PUSH0 DUP1 PUSH0 SWAP1 SLOAD SWAP1 PUSH2 0x100 EXP SWAP1 DIV PUSH20 0xFFFFFFFFFFFFFFFFFFFFFFFFFFFFFFFFFFFFFFFF AND PUSH20 0xFFFFFFFFFFFFFFFFFFFFFFFFFFFFFFFFFFFFFFFF AND PUSH4 0x341905BC CALLER DUP10 DUP7 PUSH1 0x40 MLOAD DUP5 PUSH4 0xFFFFFFFF AND PUSH1 0xE0 SHL DUP2 MSTORE PUSH1 0x4 ADD PUSH2 0x1F9D SWAP4 SWAP3 SWAP2 SWAP1 PUSH2 0x377A JUMP JUMPDEST PUSH1 0x20 PUSH1 0x40 MLOAD DUP1 DUP4 SUB DUP2 PUSH0 DUP8 GAS CALL ISZERO DUP1 ISZERO PUSH2 0x1FB9 JUMPI RETURNDATASIZE PUSH0 DUP1 RETURNDATACOPY RETURNDATASIZE PUSH0 REVERT JUMPDEST POP POP POP POP PUSH1 0x40 MLOAD RETURNDATASIZE PUSH1 0x1F NOT PUSH1 0x1F DUP3 ADD AND DUP3 ADD DUP1 PUSH1 0x40 MSTORE POP DUP2 ADD SWAP1 PUSH2 0x1FDD SWAP2 SWAP1 PUSH2 0x3C93 JUMP JUMPDEST PUSH12 0xFFFFFFFFFFFFFFFFFFFFFFFF AND SWAP1 POP DUP4 DUP2 PUSH1 0x1 SLOAD PUSH2 0x1FFC SWAP2 SWAP1 PUSH2 0x3CBE JUMP JUMPDEST PUSH2 0x2006 SWAP2 SWAP1 PUSH2 0x381B JUMP JUMPDEST PUSH1 0x1 DUP2 SWAP1 SSTORE POP DUP1 PUSH1 0x2 PUSH0 CALLER PUSH20 0xFFFFFFFFFFFFFFFFFFFFFFFFFFFFFFFFFFFFFFFF AND PUSH20 0xFFFFFFFFFFFFFFFFFFFFFFFFFFFFFFFFFFFFFFFF AND DUP2 MSTORE PUSH1 0x20 ADD SWAP1 DUP2 MSTORE PUSH1 0x20 ADD PUSH0 KECCAK256 DUP2 SWAP1 SSTORE POP DUP1 PUSH1 0x10 PUSH0 DUP5 DUP2 MSTORE PUSH1 0x20 ADD SWAP1 DUP2 MSTORE PUSH1 0x20 ADD PUSH0 KECCAK256 PUSH1 0x1 ADD SLOAD PUSH2 0x206E SWAP2 SWAP1 PUSH2 0x3CBE JUMP JUMPDEST PUSH1 0x10 PUSH0 DUP5 DUP2 MSTORE PUSH1 0x20 ADD SWAP1 DUP2 MSTORE PUSH1 0x20 ADD PUSH0 KECCAK256 PUSH1 0x1 ADD DUP2 SWAP1 SSTORE POP PUSH32 0xDEF3B43DC97DE0C173249B30D246260701E9C30274EC901C416B1BE935B23084 CALLER DUP7 DUP5 DUP7 DUP9 DUP7 PUSH1 0x40 MLOAD PUSH2 0x20BF SWAP7 SWAP6 SWAP5 SWAP4 SWAP3 SWAP2 SWAP1 PUSH2 0x3EF0 JUMP JUMPDEST PUSH1 0x40 MLOAD DUP1 SWAP2 SUB SWAP1 LOG1 POP POP POP POP POP POP POP JUMP JUMPDEST PUSH1 0x5 PUSH0 SWAP1 SLOAD SWAP1 PUSH2 0x100 EXP SWAP1 DIV PUSH20 0xFFFFFFFFFFFFFFFFFFFFFFFFFFFFFFFFFFFFFFFF AND DUP2 JUMP JUMPDEST CALLER PUSH20 0xFFFFFFFFFFFFFFFFFFFFFFFFFFFFFFFFFFFFFFFF AND PUSH1 0x5 PUSH0 SWAP1 SLOAD SWAP1 PUSH2 0x100 EXP SWAP1 DIV PUSH20 0xFFFFFFFFFFFFFFFFFFFFFFFFFFFFFFFFFFFFFFFF AND PUSH20 0xFFFFFFFFFFFFFFFFFFFFFFFFFFFFFFFFFFFFFFFF AND EQ PUSH2 0x2184 JUMPI PUSH1 0x40 MLOAD PUSH32 0x8C379A000000000000000000000000000000000000000000000000000000000 DUP2 MSTORE PUSH1 0x4 ADD PUSH2 0x217B SWAP1 PUSH2 0x3E68 JUMP JUMPDEST PUSH1 0x40 MLOAD DUP1 SWAP2 SUB SWAP1 REVERT JUMPDEST PUSH2 0x21AF DUP2 DUP4 DUP6 PUSH20 0xFFFFFFFFFFFFFFFFFFFFFFFFFFFFFFFFFFFFFFFF AND PUSH2 0x2B7A SWAP1 SWAP3 SWAP2 SWAP1 PUSH4 0xFFFFFFFF AND JUMP JUMPDEST POP POP POP JUMP JUMPDEST PUSH0 DUP1 PUSH0 DUP1 PUSH0 DUP1 PUSH0 DUP1 PUSH0 DUP1 SLOAD SWAP1 PUSH2 0x100 EXP SWAP1 DIV PUSH20 0xFFFFFFFFFFFFFFFFFFFFFFFFFFFFFFFFFFFFFFFF AND PUSH20 0xFFFFFFFFFFFFFFFFFFFFFFFFFFFFFFFFFFFFFFFF AND PUSH4 0x919884BF DUP11 PUSH1 0x40 MLOAD DUP3 PUSH4 0xFFFFFFFF AND PUSH1 0xE0 SHL DUP2 MSTORE PUSH1 0x4 ADD PUSH2 0x2214 SWAP2 SWAP1 PUSH2 0x35B8 JUMP JUMPDEST PUSH1 0x60 PUSH1 0x40 MLOAD DUP1 DUP4 SUB DUP2 DUP7 GAS STATICCALL ISZERO DUP1 ISZERO PUSH2 0x222F JUMPI RETURNDATASIZE PUSH0 DUP1 RETURNDATACOPY RETURNDATASIZE PUSH0 REVERT JUMPDEST POP POP POP POP PUSH1 0x40 MLOAD RETURNDATASIZE PUSH1 0x1F NOT PUSH1 0x1F DUP3 ADD AND DUP3 ADD DUP1 PUSH1 0x40 MSTORE POP DUP2 ADD SWAP1 PUSH2 0x2253 SWAP2 SWAP1 PUSH2 0x38A2 JUMP JUMPDEST DUP1 SWAP8 POP DUP2 SWAP9 POP DUP3 SWAP10 POP POP POP POP DUP6 PUSH4 0xFFFFFFFF AND DUP8 PUSH4 0xFFFFFFFF AND GT PUSH2 0x2278 JUMPI PUSH0 PUSH2 0x2285 JUMP JUMPDEST DUP6 DUP8 PUSH2 0x2284 SWAP2 SWAP1 PUSH2 0x3F4F JUMP JUMPDEST JUMPDEST SWAP8 POP PUSH0 DUP1 SLOAD SWAP1 PUSH2 0x100 EXP SWAP1 DIV PUSH20 0xFFFFFFFFFFFFFFFFFFFFFFFFFFFFFFFFFFFFFFFF AND PUSH20 0xFFFFFFFFFFFFFFFFFFFFFFFFFFFFFFFFFFFFFFFF AND PUSH4 0x70A08231 DUP11 PUSH1 0x40 MLOAD DUP3 PUSH4 0xFFFFFFFF AND PUSH1 0xE0 SHL DUP2 MSTORE PUSH1 0x4 ADD PUSH2 0x22DF SWAP2 SWAP1 PUSH2 0x35B8 JUMP JUMPDEST PUSH1 0x20 PUSH1 0x40 MLOAD DUP1 DUP4 SUB DUP2 DUP7 GAS STATICCALL ISZERO DUP1 ISZERO PUSH2 0x22FA JUMPI RETURNDATASIZE PUSH0 DUP1 RETURNDATACOPY RETURNDATASIZE PUSH0 REVERT JUMPDEST POP POP POP POP PUSH1 0x40 MLOAD RETURNDATASIZE PUSH1 0x1F NOT PUSH1 0x1F DUP3 ADD AND DUP3 ADD DUP1 PUSH1 0x40 MSTORE POP DUP2 ADD SWAP1 PUSH2 0x231E SWAP2 SWAP1 PUSH2 0x37C3 JUMP JUMPDEST SWAP4 POP PUSH2 0x2329 DUP10 PUSH2 0x6CC JUMP JUMPDEST SWAP2 POP PUSH1 0x2 SWAP1 POP TIMESTAMP DUP8 PUSH4 0xFFFFFFFF AND GT ISZERO PUSH2 0x2345 JUMPI PUSH1 0x1 SWAP1 POP DUP4 SWAP3 POP JUMPDEST PUSH0 DUP8 PUSH4 0xFFFFFFFF AND SUB PUSH2 0x2356 JUMPI PUSH0 SWAP1 POP JUMPDEST SWAP2 SWAP4 SWAP6 SWAP8 POP SWAP2 SWAP4 SWAP6 SWAP8 JUMP JUMPDEST PUSH1 0xF SLOAD DUP2 JUMP JUMPDEST PUSH1 0x8 SLOAD DUP2 JUMP JUMPDEST DUP1 PUSH0 DUP2 SUB PUSH2 0x23B0 JUMPI PUSH1 0x40 MLOAD PUSH32 0x8C379A000000000000000000000000000000000000000000000000000000000 DUP2 MSTORE PUSH1 0x4 ADD PUSH2 0x23A7 SWAP1 PUSH2 0x3B29 JUMP JUMPDEST PUSH1 0x40 MLOAD DUP1 SWAP2 SUB SWAP1 REVERT JUMPDEST CALLER PUSH2 0x23FF CALLER ADDRESS DUP6 PUSH1 0x4 PUSH0 SWAP1 SLOAD SWAP1 PUSH2 0x100 EXP SWAP1 DIV PUSH20 0xFFFFFFFFFFFFFFFFFFFFFFFFFFFFFFFFFFFFFFFF AND PUSH20 0xFFFFFFFFFFFFFFFFFFFFFFFFFFFFFFFFFFFFFFFF AND PUSH2 0x27B4 SWAP1 SWAP4 SWAP3 SWAP2 SWAP1 PUSH4 0xFFFFFFFF AND JUMP JUMPDEST PUSH0 DUP1 PUSH0 SWAP1 SLOAD SWAP1 PUSH2 0x100 EXP SWAP1 DIV PUSH20 0xFFFFFFFFFFFFFFFFFFFFFFFFFFFFFFFFFFFFFFFF AND PUSH20 0xFFFFFFFFFFFFFFFFFFFFFFFFFFFFFFFFFFFFFFFF AND PUSH4 0xAA3AE7E CALLER DUP7 PUSH1 0x40 MLOAD DUP4 PUSH4 0xFFFFFFFF AND PUSH1 0xE0 SHL DUP2 MSTORE PUSH1 0x4 ADD PUSH2 0x245B SWAP3 SWAP2 SWAP1 PUSH2 0x3D50 JUMP JUMPDEST PUSH1 0x20 PUSH1 0x40 MLOAD DUP1 DUP4 SUB DUP2 PUSH0 DUP8 GAS CALL ISZERO DUP1 ISZERO PUSH2 0x2477 JUMPI RETURNDATASIZE PUSH0 DUP1 RETURNDATACOPY RETURNDATASIZE PUSH0 REVERT JUMPDEST POP POP POP POP PUSH1 0x40 MLOAD RETURNDATASIZE PUSH1 0x1F NOT PUSH1 0x1F DUP3 ADD AND DUP3 ADD DUP1 PUSH1 0x40 MSTORE POP DUP2 ADD SWAP1 PUSH2 0x249B SWAP2 SWAP1 PUSH2 0x3C93 JUMP JUMPDEST PUSH12 0xFFFFFFFFFFFFFFFFFFFFFFFF AND SWAP1 POP PUSH0 DUP1 PUSH0 SWAP1 SLOAD SWAP1 PUSH2 0x100 EXP SWAP1 DIV PUSH20 0xFFFFFFFFFFFFFFFFFFFFFFFFFFFFFFFFFFFFFFFF AND PUSH20 0xFFFFFFFFFFFFFFFFFFFFFFFFFFFFFFFFFFFFFFFF AND PUSH4 0x919884BF CALLER PUSH1 0x40 MLOAD DUP3 PUSH4 0xFFFFFFFF AND PUSH1 0xE0 SHL DUP2 MSTORE PUSH1 0x4 ADD PUSH2 0x2505 SWAP2 SWAP1 PUSH2 0x35B8 JUMP JUMPDEST PUSH1 0x60 PUSH1 0x40 MLOAD DUP1 DUP4 SUB DUP2 DUP7 GAS STATICCALL ISZERO DUP1 ISZERO PUSH2 0x2520 JUMPI RETURNDATASIZE PUSH0 DUP1 RETURNDATACOPY RETURNDATASIZE PUSH0 REVERT JUMPDEST POP POP POP POP PUSH1 0x40 MLOAD RETURNDATASIZE PUSH1 0x1F NOT PUSH1 0x1F DUP3 ADD AND DUP3 ADD DUP1 PUSH1 0x40 MSTORE POP DUP2 ADD SWAP1 PUSH2 0x2544 SWAP2 SWAP1 PUSH2 0x38A2 JUMP JUMPDEST POP POP SWAP1 POP DUP2 PUSH1 0x1 SLOAD PUSH2 0x2556 SWAP2 SWAP1 PUSH2 0x3CBE JUMP JUMPDEST PUSH1 0x1 DUP2 SWAP1 SSTORE POP DUP2 PUSH1 0x2 PUSH0 CALLER PUSH20 0xFFFFFFFFFFFFFFFFFFFFFFFFFFFFFFFFFFFFFFFF AND PUSH20 0xFFFFFFFFFFFFFFFFFFFFFFFFFFFFFFFFFFFFFFFF AND DUP2 MSTORE PUSH1 0x20 ADD SWAP1 DUP2 MSTORE PUSH1 0x20 ADD PUSH0 KECCAK256 SLOAD PUSH2 0x25A5 SWAP2 SWAP1 PUSH2 0x3CBE JUMP JUMPDEST PUSH1 0x2 PUSH0 CALLER PUSH20 0xFFFFFFFFFFFFFFFFFFFFFFFFFFFFFFFFFFFFFFFF AND PUSH20 0xFFFFFFFFFFFFFFFFFFFFFFFFFFFFFFFFFFFFFFFF AND DUP2 MSTORE PUSH1 0x20 ADD SWAP1 DUP2 MSTORE PUSH1 0x20 ADD PUSH0 KECCAK256 DUP2 SWAP1 SSTORE POP DUP2 PUSH1 0x10 PUSH0 DUP4 PUSH4 0xFFFFFFFF AND DUP2 MSTORE PUSH1 0x20 ADD SWAP1 DUP2 MSTORE PUSH1 0x20 ADD PUSH0 KECCAK256 PUSH1 0x1 ADD SLOAD PUSH2 0x260C SWAP2 SWAP1 PUSH2 0x3CBE JUMP JUMPDEST PUSH1 0x10 PUSH0 DUP4 PUSH4 0xFFFFFFFF AND DUP2 MSTORE PUSH1 0x20 ADD SWAP1 DUP2 MSTORE PUSH1 0x20 ADD PUSH0 KECCAK256 PUSH1 0x1 ADD DUP2 SWAP1 SSTORE POP PUSH32 0xE5ED0451C3C49E91C18EA603CFA7CD0833F466ABB605E6E8A5964C5FFA453CDE CALLER DUP7 DUP5 PUSH1 0x40 MLOAD PUSH2 0x265D SWAP4 SWAP3 SWAP2 SWAP1 PUSH2 0x377A JUMP JUMPDEST PUSH1 0x40 MLOAD DUP1 SWAP2 SUB SWAP1 LOG1 POP POP POP POP POP JUMP JUMPDEST PUSH0 DUP1 PUSH1 0x9 SLOAD SWAP2 POP POP SWAP1 JUMP JUMPDEST PUSH1 0x9 SLOAD DUP2 JUMP JUMPDEST PUSH0 PUSH1 0x7 SLOAD TIMESTAMP LT ISZERO PUSH2 0x2692 JUMPI PUSH1 0xB SLOAD SWAP1 POP PUSH2 0x26C8 JUMP JUMPDEST PUSH1 0x6 SLOAD PUSH2 0x26A3 PUSH1 0x7 SLOAD PUSH1 0xA SLOAD PUSH2 0x2BF9 JUMP JUMPDEST TIMESTAMP PUSH2 0x26AE SWAP2 SWAP1 PUSH2 0x381B JUMP JUMPDEST PUSH2 0x26B8 SWAP2 SWAP1 PUSH2 0x38F2 JUMP JUMPDEST PUSH1 0xB SLOAD PUSH2 0x26C5 SWAP2 SWAP1 PUSH2 0x3CBE JUMP JUMPDEST SWAP1 POP JUMPDEST SWAP1 JUMP JUMPDEST PUSH2 0x26D3 PUSH2 0xAE5 JUMP JUMPDEST PUSH2 0x26DB PUSH2 0x2C11 JUMP JUMPDEST JUMP JUMPDEST PUSH2 0x26E5 PUSH2 0x2990 JUMP JUMPDEST PUSH0 PUSH20 0xFFFFFFFFFFFFFFFFFFFFFFFFFFFFFFFFFFFFFFFF AND DUP2 PUSH20 0xFFFFFFFFFFFFFFFFFFFFFFFFFFFFFFFFFFFFFFFF AND SUB PUSH2 0x2755 JUMPI PUSH0 PUSH1 0x40 MLOAD PUSH32 0x1E4FBDF700000000000000000000000000000000000000000000000000000000 DUP2 MSTORE PUSH1 0x4 ADD PUSH2 0x274C SWAP2 SWAP1 PUSH2 0x35B8 JUMP JUMPDEST PUSH1 0x40 MLOAD DUP1 SWAP2 SUB SWAP1 REVERT JUMPDEST PUSH2 0x275E DUP2 PUSH2 0x2A17 JUMP JUMPDEST POP JUMP JUMPDEST PUSH1 0xB SLOAD DUP2 JUMP JUMPDEST PUSH1 0x3 PUSH0 SWAP1 SLOAD SWAP1 PUSH2 0x100 EXP SWAP1 DIV PUSH20 0xFFFFFFFFFFFFFFFFFFFFFFFFFFFFFFFFFFFFFFFF AND DUP2 JUMP JUMPDEST PUSH0 DUP2 PUSH8 0xDE0B6B3A7640000 DUP5 PUSH2 0x27A2 SWAP2 SWAP1 PUSH2 0x38F2 JUMP JUMPDEST PUSH2 0x27AC SWAP2 SWAP1 PUSH2 0x3960 JUMP JUMPDEST SWAP1 POP SWAP3 SWAP2 POP POP JUMP JUMPDEST PUSH2 0x2830 DUP5 DUP6 PUSH20 0xFFFFFFFFFFFFFFFFFFFFFFFFFFFFFFFFFFFFFFFF AND PUSH4 0x23B872DD DUP7 DUP7 DUP7 PUSH1 0x40 MLOAD PUSH1 0x24 ADD PUSH2 0x27E9 SWAP4 SWAP3 SWAP2 SWAP1 PUSH2 0x3F86 JUMP JUMPDEST PUSH1 0x40 MLOAD PUSH1 0x20 DUP2 DUP4 SUB SUB DUP2 MSTORE SWAP1 PUSH1 0x40 MSTORE SWAP2 POP PUSH1 0xE0 SHL PUSH1 0x20 DUP3 ADD DUP1 MLOAD PUSH28 0xFFFFFFFFFFFFFFFFFFFFFFFFFFFFFFFFFFFFFFFFFFFFFFFFFFFFFFFF DUP4 DUP2 DUP4 AND OR DUP4 MSTORE POP POP POP POP PUSH2 0x2DED JUMP JUMPDEST POP POP POP POP JUMP JUMPDEST PUSH0 PUSH32 0xF0C57E16840DF040F15088DC2F81FE391C3923BEC73E23A9662EFC9C229C6A00 SWAP1 POP SWAP1 JUMP JUMPDEST PUSH2 0x2865 PUSH2 0x2E82 JUMP JUMPDEST PUSH2 0x286E DUP2 PUSH2 0x2EC2 JUMP JUMPDEST POP JUMP JUMPDEST PUSH2 0x2879 PUSH2 0x2E82 JUMP JUMPDEST PUSH2 0x2881 PUSH2 0x2F46 JUMP JUMPDEST JUMP JUMPDEST PUSH0 DUP4 PUSH20 0xFFFFFFFFFFFFFFFFFFFFFFFFFFFFFFFFFFFFFFFF AND PUSH4 0x95EA7B3 DUP5 DUP5 PUSH1 0x40 MLOAD PUSH1 0x24 ADD PUSH2 0x28B3 SWAP3 SWAP2 SWAP1 PUSH2 0x3D50 JUMP JUMPDEST PUSH1 0x40 MLOAD PUSH1 0x20 DUP2 DUP4 SUB SUB DUP2 MSTORE SWAP1 PUSH1 0x40 MSTORE SWAP2 POP PUSH1 0xE0 SHL PUSH1 0x20 DUP3 ADD DUP1 MLOAD PUSH28 0xFFFFFFFFFFFFFFFFFFFFFFFFFFFFFFFFFFFFFFFFFFFFFFFFFFFFFFFF DUP4 DUP2 DUP4 AND OR DUP4 MSTORE POP POP POP POP SWAP1 POP PUSH2 0x2901 DUP5 DUP3 PUSH2 0x2F65 JUMP JUMPDEST PUSH2 0x298A JUMPI PUSH2 0x297F DUP5 DUP6 PUSH20 0xFFFFFFFFFFFFFFFFFFFFFFFFFFFFFFFFFFFFFFFF AND PUSH4 0x95EA7B3 DUP7 PUSH0 PUSH1 0x40 MLOAD PUSH1 0x24 ADD PUSH2 0x2938 SWAP3 SWAP2 SWAP1 PUSH2 0x3FF4 JUMP JUMPDEST PUSH1 0x40 MLOAD PUSH1 0x20 DUP2 DUP4 SUB SUB DUP2 MSTORE SWAP1 PUSH1 0x40 MSTORE SWAP2 POP PUSH1 0xE0 SHL PUSH1 0x20 DUP3 ADD DUP1 MLOAD PUSH28 0xFFFFFFFFFFFFFFFFFFFFFFFFFFFFFFFFFFFFFFFFFFFFFFFFFFFFFFFF DUP4 DUP2 DUP4 AND OR DUP4 MSTORE POP POP POP POP PUSH2 0x2DED JUMP JUMPDEST PUSH2 0x2989 DUP5 DUP3 PUSH2 0x2DED JUMP JUMPDEST JUMPDEST POP POP POP POP JUMP JUMPDEST PUSH2 0x2998 PUSH2 0x3024 JUMP JUMPDEST PUSH20 0xFFFFFFFFFFFFFFFFFFFFFFFFFFFFFFFFFFFFFFFF AND PUSH2 0x29B6 PUSH2 0x147C JUMP JUMPDEST PUSH20 0xFFFFFFFFFFFFFFFFFFFFFFFFFFFFFFFFFFFFFFFF AND EQ PUSH2 0x2A15 JUMPI PUSH2 0x29D9 PUSH2 0x3024 JUMP JUMPDEST PUSH1 0x40 MLOAD PUSH32 0x118CDAA700000000000000000000000000000000000000000000000000000000 DUP2 MSTORE PUSH1 0x4 ADD PUSH2 0x2A0C SWAP2 SWAP1 PUSH2 0x35B8 JUMP JUMPDEST PUSH1 0x40 MLOAD DUP1 SWAP2 SUB SWAP1 REVERT JUMPDEST JUMP JUMPDEST PUSH0 PUSH2 0x2A20 PUSH2 0x2B53 JUMP JUMPDEST SWAP1 POP PUSH0 DUP2 PUSH0 ADD PUSH0 SWAP1 SLOAD SWAP1 PUSH2 0x100 EXP SWAP1 DIV PUSH20 0xFFFFFFFFFFFFFFFFFFFFFFFFFFFFFFFFFFFFFFFF AND SWAP1 POP DUP3 DUP3 PUSH0 ADD PUSH0 PUSH2 0x100 EXP DUP2 SLOAD DUP2 PUSH20 0xFFFFFFFFFFFFFFFFFFFFFFFFFFFFFFFFFFFFFFFF MUL NOT AND SWAP1 DUP4 PUSH20 0xFFFFFFFFFFFFFFFFFFFFFFFFFFFFFFFFFFFFFFFF AND MUL OR SWAP1 SSTORE POP DUP3 PUSH20 0xFFFFFFFFFFFFFFFFFFFFFFFFFFFFFFFFFFFFFFFF AND DUP2 PUSH20 0xFFFFFFFFFFFFFFFFFFFFFFFFFFFFFFFFFFFFFFFF AND PUSH32 0x8BE0079C531659141344CD1FD0A4F28419497F9722A3DAAFE3B4186F6B6457E0 PUSH1 0x40 MLOAD PUSH1 0x40 MLOAD DUP1 SWAP2 SUB SWAP1 LOG3 POP POP POP JUMP JUMPDEST PUSH0 PUSH2 0x2AF1 PUSH2 0x302B JUMP JUMPDEST SWAP1 POP PUSH1 0x2 DUP2 PUSH0 ADD SLOAD SUB PUSH2 0x2B30 JUMPI PUSH1 0x40 MLOAD PUSH32 0x3EE5AEB500000000000000000000000000000000000000000000000000000000 DUP2 MSTORE PUSH1 0x4 ADD PUSH1 0x40 MLOAD DUP1 SWAP2 SUB SWAP1 REVERT JUMPDEST PUSH1 0x2 DUP2 PUSH0 ADD DUP2 SWAP1 SSTORE POP POP JUMP JUMPDEST PUSH0 PUSH2 0x2B45 PUSH2 0x302B JUMP JUMPDEST SWAP1 POP PUSH1 0x1 DUP2 PUSH0 ADD DUP2 SWAP1 SSTORE POP POP JUMP JUMPDEST PUSH0 PUSH32 0x9016D09D72D40FDAE2FD8CEAC6B6234C7706214FD39C1CD1E609A0528C199300 SWAP1 POP SWAP1 JUMP JUMPDEST PUSH2 0x2BF4 DUP4 DUP5 PUSH20 0xFFFFFFFFFFFFFFFFFFFFFFFFFFFFFFFFFFFFFFFF AND PUSH4 0xA9059CBB DUP6 DUP6 PUSH1 0x40 MLOAD PUSH1 0x24 ADD PUSH2 0x2BAD SWAP3 SWAP2 SWAP1 PUSH2 0x3D50 JUMP JUMPDEST PUSH1 0x40 MLOAD PUSH1 0x20 DUP2 DUP4 SUB SUB DUP2 MSTORE SWAP1 PUSH1 0x40 MSTORE SWAP2 POP PUSH1 0xE0 SHL PUSH1 0x20 DUP3 ADD DUP1 MLOAD PUSH28 0xFFFFFFFFFFFFFFFFFFFFFFFFFFFFFFFFFFFFFFFFFFFFFFFFFFFFFFFF DUP4 DUP2 DUP4 AND OR DUP4 MSTORE POP POP POP POP PUSH2 0x2DED JUMP JUMPDEST POP POP POP JUMP JUMPDEST PUSH0 DUP2 DUP4 GT PUSH2 0x2C07 JUMPI DUP2 PUSH2 0x2C09 JUMP JUMPDEST DUP3 JUMPDEST SWAP1 POP SWAP3 SWAP2 POP POP JUMP JUMPDEST PUSH0 DUP1 PUSH0 SWAP1 SLOAD SWAP1 PUSH2 0x100 EXP SWAP1 DIV PUSH20 0xFFFFFFFFFFFFFFFFFFFFFFFFFFFFFFFFFFFFFFFF AND PUSH20 0xFFFFFFFFFFFFFFFFFFFFFFFFFFFFFFFFFFFFFFFF AND PUSH4 0x4EEA9A8D CALLER PUSH1 0x40 MLOAD DUP3 PUSH4 0xFFFFFFFF AND PUSH1 0xE0 SHL DUP2 MSTORE PUSH1 0x4 ADD PUSH2 0x2C6B SWAP2 SWAP1 PUSH2 0x35B8 JUMP JUMPDEST PUSH1 0x20 PUSH1 0x40 MLOAD DUP1 DUP4 SUB DUP2 PUSH0 DUP8 GAS CALL ISZERO DUP1 ISZERO PUSH2 0x2C87 JUMPI RETURNDATASIZE PUSH0 DUP1 RETURNDATACOPY RETURNDATASIZE PUSH0 REVERT JUMPDEST POP POP POP POP PUSH1 0x40 MLOAD RETURNDATASIZE PUSH1 0x1F NOT PUSH1 0x1F DUP3 ADD AND DUP3 ADD DUP1 PUSH1 0x40 MSTORE POP DUP2 ADD SWAP1 PUSH2 0x2CAB SWAP2 SWAP1 PUSH2 0x3C93 JUMP JUMPDEST PUSH12 0xFFFFFFFFFFFFFFFFFFFFFFFF AND SWAP1 POP PUSH0 PUSH1 0x2 PUSH0 CALLER PUSH20 0xFFFFFFFFFFFFFFFFFFFFFFFFFFFFFFFFFFFFFFFF AND PUSH20 0xFFFFFFFFFFFFFFFFFFFFFFFFFFFFFFFFFFFFFFFF AND DUP2 MSTORE PUSH1 0x20 ADD SWAP1 DUP2 MSTORE PUSH1 0x20 ADD PUSH0 KECCAK256 SLOAD SWAP1 POP DUP1 PUSH1 0x1 SLOAD PUSH2 0x2D0A SWAP2 SWAP1 PUSH2 0x381B JUMP JUMPDEST PUSH1 0x1 DUP2 SWAP1 SSTORE POP DUP1 PUSH1 0x2 PUSH0 CALLER PUSH20 0xFFFFFFFFFFFFFFFFFFFFFFFFFFFFFFFFFFFFFFFF AND PUSH20 0xFFFFFFFFFFFFFFFFFFFFFFFFFFFFFFFFFFFFFFFF AND DUP2 MSTORE PUSH1 0x20 ADD SWAP1 DUP2 MSTORE PUSH1 0x20 ADD PUSH0 KECCAK256 SLOAD PUSH2 0x2D59 SWAP2 SWAP1 PUSH2 0x381B JUMP JUMPDEST PUSH1 0x2 PUSH0 CALLER PUSH20 0xFFFFFFFFFFFFFFFFFFFFFFFFFFFFFFFFFFFFFFFF AND PUSH20 0xFFFFFFFFFFFFFFFFFFFFFFFFFFFFFFFFFFFFFFFF AND DUP2 MSTORE PUSH1 0x20 ADD SWAP1 DUP2 MSTORE PUSH1 0x20 ADD PUSH0 KECCAK256 DUP2 SWAP1 SSTORE POP DUP1 PUSH1 0xF SLOAD PUSH2 0x2DA8 SWAP2 SWAP1 PUSH2 0x381B JUMP JUMPDEST PUSH1 0xF DUP2 SWAP1 SSTORE POP PUSH32 0xF279E6A1F5E320CCA91135676D9CB6E44CA8A08C0B88342BCDB1144F6511B568 CALLER DUP4 DUP4 PUSH1 0x40 MLOAD PUSH2 0x2DE1 SWAP4 SWAP3 SWAP2 SWAP1 PUSH2 0x377A JUMP JUMPDEST PUSH1 0x40 MLOAD DUP1 SWAP2 SUB SWAP1 LOG1 POP POP JUMP JUMPDEST PUSH0 PUSH2 0x2E17 DUP3 DUP5 PUSH20 0xFFFFFFFFFFFFFFFFFFFFFFFFFFFFFFFFFFFFFFFF AND PUSH2 0x3052 SWAP1 SWAP2 SWAP1 PUSH4 0xFFFFFFFF AND JUMP JUMPDEST SWAP1 POP PUSH0 DUP2 MLOAD EQ ISZERO DUP1 ISZERO PUSH2 0x2E3B JUMPI POP DUP1 DUP1 PUSH1 0x20 ADD SWAP1 MLOAD DUP2 ADD SWAP1 PUSH2 0x2E39 SWAP2 SWAP1 PUSH2 0x4050 JUMP JUMPDEST ISZERO JUMPDEST ISZERO PUSH2 0x2E7D JUMPI DUP3 PUSH1 0x40 MLOAD PUSH32 0x5274AFE700000000000000000000000000000000000000000000000000000000 DUP2 MSTORE PUSH1 0x4 ADD PUSH2 0x2E74 SWAP2 SWAP1 PUSH2 0x35B8 JUMP JUMPDEST PUSH1 0x40 MLOAD DUP1 SWAP2 SUB SWAP1 REVERT JUMPDEST POP POP POP JUMP JUMPDEST PUSH2 0x2E8A PUSH2 0x3067 JUMP JUMPDEST PUSH2 0x2EC0 JUMPI PUSH1 0x40 MLOAD PUSH32 0xD7E6BCF800000000000000000000000000000000000000000000000000000000 DUP2 MSTORE PUSH1 0x4 ADD PUSH1 0x40 MLOAD DUP1 SWAP2 SUB SWAP1 REVERT JUMPDEST JUMP JUMPDEST PUSH2 0x2ECA PUSH2 0x2E82 JUMP JUMPDEST PUSH0 PUSH20 0xFFFFFFFFFFFFFFFFFFFFFFFFFFFFFFFFFFFFFFFF AND DUP2 PUSH20 0xFFFFFFFFFFFFFFFFFFFFFFFFFFFFFFFFFFFFFFFF AND SUB PUSH2 0x2F3A JUMPI PUSH0 PUSH1 0x40 MLOAD PUSH32 0x1E4FBDF700000000000000000000000000000000000000000000000000000000 DUP2 MSTORE PUSH1 0x4 ADD PUSH2 0x2F31 SWAP2 SWAP1 PUSH2 0x35B8 JUMP JUMPDEST PUSH1 0x40 MLOAD DUP1 SWAP2 SUB SWAP1 REVERT JUMPDEST PUSH2 0x2F43 DUP2 PUSH2 0x2A17 JUMP JUMPDEST POP JUMP JUMPDEST PUSH2 0x2F4E PUSH2 0x2E82 JUMP JUMPDEST PUSH0 PUSH2 0x2F57 PUSH2 0x302B JUMP JUMPDEST SWAP1 POP PUSH1 0x1 DUP2 PUSH0 ADD DUP2 SWAP1 SSTORE POP POP JUMP JUMPDEST PUSH0 DUP1 PUSH0 DUP5 PUSH20 0xFFFFFFFFFFFFFFFFFFFFFFFFFFFFFFFFFFFFFFFF AND DUP5 PUSH1 0x40 MLOAD PUSH2 0x2F8D SWAP2 SWAP1 PUSH2 0x40E7 JUMP JUMPDEST PUSH0 PUSH1 0x40 MLOAD DUP1 DUP4 SUB DUP2 PUSH0 DUP7 GAS CALL SWAP2 POP POP RETURNDATASIZE DUP1 PUSH0 DUP2 EQ PUSH2 0x2FC6 JUMPI PUSH1 0x40 MLOAD SWAP2 POP PUSH1 0x1F NOT PUSH1 0x3F RETURNDATASIZE ADD AND DUP3 ADD PUSH1 0x40 MSTORE RETURNDATASIZE DUP3 MSTORE RETURNDATASIZE PUSH0 PUSH1 0x20 DUP5 ADD RETURNDATACOPY PUSH2 0x2FCB JUMP JUMPDEST PUSH1 0x60 SWAP2 POP JUMPDEST POP SWAP2 POP SWAP2 POP DUP2 DUP1 ISZERO PUSH2 0x2FF8 JUMPI POP PUSH0 DUP2 MLOAD EQ DUP1 PUSH2 0x2FF7 JUMPI POP DUP1 DUP1 PUSH1 0x20 ADD SWAP1 MLOAD DUP2 ADD SWAP1 PUSH2 0x2FF6 SWAP2 SWAP1 PUSH2 0x4050 JUMP JUMPDEST JUMPDEST JUMPDEST DUP1 ISZERO PUSH2 0x301A JUMPI POP PUSH0 DUP6 PUSH20 0xFFFFFFFFFFFFFFFFFFFFFFFFFFFFFFFFFFFFFFFF AND EXTCODESIZE GT JUMPDEST SWAP3 POP POP POP SWAP3 SWAP2 POP POP JUMP JUMPDEST PUSH0 CALLER SWAP1 POP SWAP1 JUMP JUMPDEST PUSH0 PUSH32 0x9B779B17422D0DF92223018B32B4D1FA46E071723D6817E2486D003BECC55F00 SWAP1 POP SWAP1 JUMP JUMPDEST PUSH1 0x60 PUSH2 0x305F DUP4 DUP4 PUSH0 PUSH2 0x3085 JUMP JUMPDEST SWAP1 POP SWAP3 SWAP2 POP POP JUMP JUMPDEST PUSH0 PUSH2 0x3070 PUSH2 0x2836 JUMP JUMPDEST PUSH0 ADD PUSH1 0x8 SWAP1 SLOAD SWAP1 PUSH2 0x100 EXP SWAP1 DIV PUSH1 0xFF AND SWAP1 POP SWAP1 JUMP JUMPDEST PUSH1 0x60 DUP2 SELFBALANCE LT ISZERO PUSH2 0x30CC JUMPI ADDRESS PUSH1 0x40 MLOAD PUSH32 0xCD78605900000000000000000000000000000000000000000000000000000000 DUP2 MSTORE PUSH1 0x4 ADD PUSH2 0x30C3 SWAP2 SWAP1 PUSH2 0x35B8 JUMP JUMPDEST PUSH1 0x40 MLOAD DUP1 SWAP2 SUB SWAP1 REVERT JUMPDEST PUSH0 DUP1 DUP6 PUSH20 0xFFFFFFFFFFFFFFFFFFFFFFFFFFFFFFFFFFFFFFFF AND DUP5 DUP7 PUSH1 0x40 MLOAD PUSH2 0x30F4 SWAP2 SWAP1 PUSH2 0x40E7 JUMP JUMPDEST PUSH0 PUSH1 0x40 MLOAD DUP1 DUP4 SUB DUP2 DUP6 DUP8 GAS CALL SWAP3 POP POP POP RETURNDATASIZE DUP1 PUSH0 DUP2 EQ PUSH2 0x312E JUMPI PUSH1 0x40 MLOAD SWAP2 POP PUSH1 0x1F NOT PUSH1 0x3F RETURNDATASIZE ADD AND DUP3 ADD PUSH1 0x40 MSTORE RETURNDATASIZE DUP3 MSTORE RETURNDATASIZE PUSH0 PUSH1 0x20 DUP5 ADD RETURNDATACOPY PUSH2 0x3133 JUMP JUMPDEST PUSH1 0x60 SWAP2 POP JUMPDEST POP SWAP2 POP SWAP2 POP PUSH2 0x3143 DUP7 DUP4 DUP4 PUSH2 0x314E JUMP JUMPDEST SWAP3 POP POP POP SWAP4 SWAP3 POP POP POP JUMP JUMPDEST PUSH1 0x60 DUP3 PUSH2 0x3163 JUMPI PUSH2 0x315E DUP3 PUSH2 0x31DB JUMP JUMPDEST PUSH2 0x31D3 JUMP JUMPDEST PUSH0 DUP3 MLOAD EQ DUP1 ISZERO PUSH2 0x3189 JUMPI POP PUSH0 DUP5 PUSH20 0xFFFFFFFFFFFFFFFFFFFFFFFFFFFFFFFFFFFFFFFF AND EXTCODESIZE EQ JUMPDEST ISZERO PUSH2 0x31CB JUMPI DUP4 PUSH1 0x40 MLOAD PUSH32 0x9996B31500000000000000000000000000000000000000000000000000000000 DUP2 MSTORE PUSH1 0x4 ADD PUSH2 0x31C2 SWAP2 SWAP1 PUSH2 0x35B8 JUMP JUMPDEST PUSH1 0x40 MLOAD DUP1 SWAP2 SUB SWAP1 REVERT JUMPDEST DUP2 SWAP1 POP PUSH2 0x31D4 JUMP JUMPDEST JUMPDEST SWAP4 SWAP3 POP POP POP JUMP JUMPDEST PUSH0 DUP2 MLOAD GT ISZERO PUSH2 0x31ED JUMPI DUP1 MLOAD DUP1 DUP3 PUSH1 0x20 ADD REVERT JUMPDEST PUSH1 0x40 MLOAD PUSH32 0x1425EA4200000000000000000000000000000000000000000000000000000000 DUP2 MSTORE PUSH1 0x4 ADD PUSH1 0x40 MLOAD DUP1 SWAP2 SUB SWAP1 REVERT JUMPDEST PUSH0 DUP1 REVERT JUMPDEST PUSH0 PUSH20 0xFFFFFFFFFFFFFFFFFFFFFFFFFFFFFFFFFFFFFFFF DUP3 AND SWAP1 POP SWAP2 SWAP1 POP JUMP JUMPDEST PUSH0 PUSH2 0x324C DUP3 PUSH2 0x3223 JUMP JUMPDEST SWAP1 POP SWAP2 SWAP1 POP JUMP JUMPDEST PUSH2 0x325C DUP2 PUSH2 0x3242 JUMP JUMPDEST DUP2 EQ PUSH2 0x3266 JUMPI PUSH0 DUP1 REVERT JUMPDEST POP JUMP JUMPDEST PUSH0 DUP2 CALLDATALOAD SWAP1 POP PUSH2 0x3277 DUP2 PUSH2 0x3253 JUMP JUMPDEST SWAP3 SWAP2 POP POP JUMP JUMPDEST PUSH0 PUSH1 0x20 DUP3 DUP5 SUB SLT ISZERO PUSH2 0x3292 JUMPI PUSH2 0x3291 PUSH2 0x321F JUMP JUMPDEST JUMPDEST PUSH0 PUSH2 0x329F DUP5 DUP3 DUP6 ADD PUSH2 0x3269 JUMP JUMPDEST SWAP2 POP POP SWAP3 SWAP2 POP POP JUMP JUMPDEST PUSH0 DUP2 SWAP1 POP SWAP2 SWAP1 POP JUMP JUMPDEST PUSH2 0x32BA DUP2 PUSH2 0x32A8 JUMP JUMPDEST DUP3 MSTORE POP POP JUMP JUMPDEST PUSH0 PUSH1 0x20 DUP3 ADD SWAP1 POP PUSH2 0x32D3 PUSH0 DUP4 ADD DUP5 PUSH2 0x32B1 JUMP JUMPDEST SWAP3 SWAP2 POP POP JUMP JUMPDEST PUSH0 DUP2 SWAP1 POP SWAP2 SWAP1 POP JUMP JUMPDEST PUSH0 PUSH2 0x32FC PUSH2 0x32F7 PUSH2 0x32F2 DUP5 PUSH2 0x3223 JUMP JUMPDEST PUSH2 0x32D9 JUMP JUMPDEST PUSH2 0x3223 JUMP JUMPDEST SWAP1 POP SWAP2 SWAP1 POP JUMP JUMPDEST PUSH0 PUSH2 0x330D DUP3 PUSH2 0x32E2 JUMP JUMPDEST SWAP1 POP SWAP2 SWAP1 POP JUMP JUMPDEST PUSH0 PUSH2 0x331E DUP3 PUSH2 0x3303 JUMP JUMPDEST SWAP1 POP SWAP2 SWAP1 POP JUMP JUMPDEST PUSH2 0x332E DUP2 PUSH2 0x3314 JUMP JUMPDEST DUP3 MSTORE POP POP JUMP JUMPDEST PUSH0 PUSH1 0x20 DUP3 ADD SWAP1 POP PUSH2 0x3347 PUSH0 DUP4 ADD DUP5 PUSH2 0x3325 JUMP JUMPDEST SWAP3 SWAP2 POP POP JUMP JUMPDEST PUSH2 0x3356 DUP2 PUSH2 0x32A8 JUMP JUMPDEST DUP2 EQ PUSH2 0x3360 JUMPI PUSH0 DUP1 REVERT JUMPDEST POP JUMP JUMPDEST PUSH0 DUP2 CALLDATALOAD SWAP1 POP PUSH2 0x3371 DUP2 PUSH2 0x334D JUMP JUMPDEST SWAP3 SWAP2 POP POP JUMP JUMPDEST PUSH0 DUP1 PUSH0 PUSH1 0x60 DUP5 DUP7 SUB SLT ISZERO PUSH2 0x338E JUMPI PUSH2 0x338D PUSH2 0x321F JUMP JUMPDEST JUMPDEST PUSH0 PUSH2 0x339B DUP7 DUP3 DUP8 ADD PUSH2 0x3269 JUMP JUMPDEST SWAP4 POP POP PUSH1 0x20 PUSH2 0x33AC DUP7 DUP3 DUP8 ADD PUSH2 0x3363 JUMP JUMPDEST SWAP3 POP POP PUSH1 0x40 PUSH2 0x33BD DUP7 DUP3 DUP8 ADD PUSH2 0x3363 JUMP JUMPDEST SWAP2 POP POP SWAP3 POP SWAP3 POP SWAP3 JUMP JUMPDEST PUSH0 PUSH1 0x80 DUP3 ADD SWAP1 POP PUSH2 0x33DA PUSH0 DUP4 ADD DUP8 PUSH2 0x32B1 JUMP JUMPDEST PUSH2 0x33E7 PUSH1 0x20 DUP4 ADD DUP7 PUSH2 0x32B1 JUMP JUMPDEST PUSH2 0x33F4 PUSH1 0x40 DUP4 ADD DUP6 PUSH2 0x32B1 JUMP JUMPDEST PUSH2 0x3401 PUSH1 0x60 DUP4 ADD DUP5 PUSH2 0x32B1 JUMP JUMPDEST SWAP6 SWAP5 POP POP POP POP POP JUMP JUMPDEST PUSH0 PUSH2 0x3414 DUP3 PUSH2 0x3242 JUMP JUMPDEST SWAP1 POP SWAP2 SWAP1 POP JUMP JUMPDEST PUSH2 0x3424 DUP2 PUSH2 0x340A JUMP JUMPDEST DUP2 EQ PUSH2 0x342E JUMPI PUSH0 DUP1 REVERT JUMPDEST POP JUMP JUMPDEST PUSH0 DUP2 CALLDATALOAD SWAP1 POP PUSH2 0x343F DUP2 PUSH2 0x341B JUMP JUMPDEST SWAP3 SWAP2 POP POP JUMP JUMPDEST PUSH0 PUSH2 0x344F DUP3 PUSH2 0x3242 JUMP JUMPDEST SWAP1 POP SWAP2 SWAP1 POP JUMP JUMPDEST PUSH2 0x345F DUP2 PUSH2 0x3445 JUMP JUMPDEST DUP2 EQ PUSH2 0x3469 JUMPI PUSH0 DUP1 REVERT JUMPDEST POP JUMP JUMPDEST PUSH0 DUP2 CALLDATALOAD SWAP1 POP PUSH2 0x347A DUP2 PUSH2 0x3456 JUMP JUMPDEST SWAP3 SWAP2 POP POP JUMP JUMPDEST PUSH0 PUSH2 0x348A DUP3 PUSH2 0x3242 JUMP JUMPDEST SWAP1 POP SWAP2 SWAP1 POP JUMP JUMPDEST PUSH2 0x349A DUP2 PUSH2 0x3480 JUMP JUMPDEST DUP2 EQ PUSH2 0x34A4 JUMPI PUSH0 DUP1 REVERT JUMPDEST POP JUMP JUMPDEST PUSH0 DUP2 CALLDATALOAD SWAP1 POP PUSH2 0x34B5 DUP2 PUSH2 0x3491 JUMP JUMPDEST SWAP3 SWAP2 POP POP JUMP JUMPDEST PUSH0 DUP1 PUSH0 DUP1 PUSH0 PUSH1 0xA0 DUP7 DUP9 SUB SLT ISZERO PUSH2 0x34D4 JUMPI PUSH2 0x34D3 PUSH2 0x321F JUMP JUMPDEST JUMPDEST PUSH0 PUSH2 0x34E1 DUP9 DUP3 DUP10 ADD PUSH2 0x3431 JUMP JUMPDEST SWAP6 POP POP PUSH1 0x20 PUSH2 0x34F2 DUP9 DUP3 DUP10 ADD PUSH2 0x346C JUMP JUMPDEST SWAP5 POP POP PUSH1 0x40 PUSH2 0x3503 DUP9 DUP3 DUP10 ADD PUSH2 0x34A7 JUMP JUMPDEST SWAP4 POP POP PUSH1 0x60 PUSH2 0x3514 DUP9 DUP3 DUP10 ADD PUSH2 0x3363 JUMP JUMPDEST SWAP3 POP POP PUSH1 0x80 PUSH2 0x3525 DUP9 DUP3 DUP10 ADD PUSH2 0x3269 JUMP JUMPDEST SWAP2 POP POP SWAP3 SWAP6 POP SWAP3 SWAP6 SWAP1 SWAP4 POP JUMP JUMPDEST PUSH0 DUP1 PUSH1 0x40 DUP4 DUP6 SUB SLT ISZERO PUSH2 0x3548 JUMPI PUSH2 0x3547 PUSH2 0x321F JUMP JUMPDEST JUMPDEST PUSH0 PUSH2 0x3555 DUP6 DUP3 DUP7 ADD PUSH2 0x3363 JUMP JUMPDEST SWAP3 POP POP PUSH1 0x20 PUSH2 0x3566 DUP6 DUP3 DUP7 ADD PUSH2 0x3363 JUMP JUMPDEST SWAP2 POP POP SWAP3 POP SWAP3 SWAP1 POP JUMP JUMPDEST PUSH0 PUSH2 0x357A DUP3 PUSH2 0x3303 JUMP JUMPDEST SWAP1 POP SWAP2 SWAP1 POP JUMP JUMPDEST PUSH2 0x358A DUP2 PUSH2 0x3570 JUMP JUMPDEST DUP3 MSTORE POP POP JUMP JUMPDEST PUSH0 PUSH1 0x20 DUP3 ADD SWAP1 POP PUSH2 0x35A3 PUSH0 DUP4 ADD DUP5 PUSH2 0x3581 JUMP JUMPDEST SWAP3 SWAP2 POP POP JUMP JUMPDEST PUSH2 0x35B2 DUP2 PUSH2 0x3242 JUMP JUMPDEST DUP3 MSTORE POP POP JUMP JUMPDEST PUSH0 PUSH1 0x20 DUP3 ADD SWAP1 POP PUSH2 0x35CB PUSH0 DUP4 ADD DUP5 PUSH2 0x35A9 JUMP JUMPDEST SWAP3 SWAP2 POP POP JUMP JUMPDEST PUSH0 PUSH4 0xFFFFFFFF DUP3 AND SWAP1 POP SWAP2 SWAP1 POP JUMP JUMPDEST PUSH2 0x35E9 DUP2 PUSH2 0x35D1 JUMP JUMPDEST DUP3 MSTORE POP POP JUMP JUMPDEST PUSH0 PUSH12 0xFFFFFFFFFFFFFFFFFFFFFFFF DUP3 AND SWAP1 POP SWAP2 SWAP1 POP JUMP JUMPDEST PUSH2 0x360F DUP2 PUSH2 0x35EF JUMP JUMPDEST DUP3 MSTORE POP POP JUMP JUMPDEST PUSH0 PUSH1 0x60 DUP3 ADD SWAP1 POP PUSH2 0x3628 PUSH0 DUP4 ADD DUP7 PUSH2 0x35E0 JUMP JUMPDEST PUSH2 0x3635 PUSH1 0x20 DUP4 ADD DUP6 PUSH2 0x35E0 JUMP JUMPDEST PUSH2 0x3642 PUSH1 0x40 DUP4 ADD DUP5 PUSH2 0x3606 JUMP JUMPDEST SWAP5 SWAP4 POP POP POP POP JUMP JUMPDEST PUSH0 PUSH1 0x20 DUP3 DUP5 SUB SLT ISZERO PUSH2 0x365F JUMPI PUSH2 0x365E PUSH2 0x321F JUMP JUMPDEST JUMPDEST PUSH0 PUSH2 0x366C DUP5 DUP3 DUP6 ADD PUSH2 0x3363 JUMP JUMPDEST SWAP2 POP POP SWAP3 SWAP2 POP POP JUMP JUMPDEST PUSH0 DUP1 PUSH0 PUSH1 0x60 DUP5 DUP7 SUB SLT ISZERO PUSH2 0x368C JUMPI PUSH2 0x368B PUSH2 0x321F JUMP JUMPDEST JUMPDEST PUSH0 PUSH2 0x3699 DUP7 DUP3 DUP8 ADD PUSH2 0x34A7 JUMP JUMPDEST SWAP4 POP POP PUSH1 0x20 PUSH2 0x36AA DUP7 DUP3 DUP8 ADD PUSH2 0x3363 JUMP JUMPDEST SWAP3 POP POP PUSH1 0x40 PUSH2 0x36BB DUP7 DUP3 DUP8 ADD PUSH2 0x3269 JUMP JUMPDEST SWAP2 POP POP SWAP3 POP SWAP3 POP SWAP3 JUMP JUMPDEST PUSH0 PUSH2 0x100 DUP3 ADD SWAP1 POP PUSH2 0x36D9 PUSH0 DUP4 ADD DUP12 PUSH2 0x35E0 JUMP JUMPDEST PUSH2 0x36E6 PUSH1 0x20 DUP4 ADD DUP11 PUSH2 0x35E0 JUMP JUMPDEST PUSH2 0x36F3 PUSH1 0x40 DUP4 ADD DUP10 PUSH2 0x35E0 JUMP JUMPDEST PUSH2 0x3700 PUSH1 0x60 DUP4 ADD DUP9 PUSH2 0x3606 JUMP JUMPDEST PUSH2 0x370D PUSH1 0x80 DUP4 ADD DUP8 PUSH2 0x32B1 JUMP JUMPDEST PUSH2 0x371A PUSH1 0xA0 DUP4 ADD DUP7 PUSH2 0x32B1 JUMP JUMPDEST PUSH2 0x3727 PUSH1 0xC0 DUP4 ADD DUP6 PUSH2 0x32B1 JUMP JUMPDEST PUSH2 0x3734 PUSH1 0xE0 DUP4 ADD DUP5 PUSH2 0x32B1 JUMP JUMPDEST SWAP10 SWAP9 POP POP POP POP POP POP POP POP POP JUMP JUMPDEST PUSH0 PUSH2 0x374B DUP3 PUSH2 0x3303 JUMP JUMPDEST SWAP1 POP SWAP2 SWAP1 POP JUMP JUMPDEST PUSH2 0x375B DUP2 PUSH2 0x3741 JUMP JUMPDEST DUP3 MSTORE POP POP JUMP JUMPDEST PUSH0 PUSH1 0x20 DUP3 ADD SWAP1 POP PUSH2 0x3774 PUSH0 DUP4 ADD DUP5 PUSH2 0x3752 JUMP JUMPDEST SWAP3 SWAP2 POP POP JUMP JUMPDEST PUSH0 PUSH1 0x60 DUP3 ADD SWAP1 POP PUSH2 0x378D PUSH0 DUP4 ADD DUP7 PUSH2 0x35A9 JUMP JUMPDEST PUSH2 0x379A PUSH1 0x20 DUP4 ADD DUP6 PUSH2 0x32B1 JUMP JUMPDEST PUSH2 0x37A7 PUSH1 0x40 DUP4 ADD DUP5 PUSH2 0x32B1 JUMP JUMPDEST SWAP5 SWAP4 POP POP POP POP JUMP JUMPDEST PUSH0 DUP2 MLOAD SWAP1 POP PUSH2 0x37BD DUP2 PUSH2 0x334D JUMP JUMPDEST SWAP3 SWAP2 POP POP JUMP JUMPDEST PUSH0 PUSH1 0x20 DUP3 DUP5 SUB SLT ISZERO PUSH2 0x37D8 JUMPI PUSH2 0x37D7 PUSH2 0x321F JUMP JUMPDEST JUMPDEST PUSH0 PUSH2 0x37E5 DUP5 DUP3 DUP6 ADD PUSH2 0x37AF JUMP JUMPDEST SWAP2 POP POP SWAP3 SWAP2 POP POP JUMP JUMPDEST PUSH32 0x4E487B7100000000000000000000000000000000000000000000000000000000 PUSH0 MSTORE PUSH1 0x11 PUSH1 0x4 MSTORE PUSH1 0x24 PUSH0 REVERT JUMPDEST PUSH0 PUSH2 0x3825 DUP3 PUSH2 0x32A8 JUMP JUMPDEST SWAP2 POP PUSH2 0x3830 DUP4 PUSH2 0x32A8 JUMP JUMPDEST SWAP3 POP DUP3 DUP3 SUB SWAP1 POP DUP2 DUP2 GT ISZERO PUSH2 0x3848 JUMPI PUSH2 0x3847 PUSH2 0x37EE JUMP JUMPDEST JUMPDEST SWAP3 SWAP2 POP POP JUMP JUMPDEST PUSH2 0x3857 DUP2 PUSH2 0x35D1 JUMP JUMPDEST DUP2 EQ PUSH2 0x3861 JUMPI PUSH0 DUP1 REVERT JUMPDEST POP JUMP JUMPDEST PUSH0 DUP2 MLOAD SWAP1 POP PUSH2 0x3872 DUP2 PUSH2 0x384E JUMP JUMPDEST SWAP3 SWAP2 POP POP JUMP JUMPDEST PUSH2 0x3881 DUP2 PUSH2 0x35EF JUMP JUMPDEST DUP2 EQ PUSH2 0x388B JUMPI PUSH0 DUP1 REVERT JUMPDEST POP JUMP JUMPDEST PUSH0 DUP2 MLOAD SWAP1 POP PUSH2 0x389C DUP2 PUSH2 0x3878 JUMP JUMPDEST SWAP3 SWAP2 POP POP JUMP JUMPDEST PUSH0 DUP1 PUSH0 PUSH1 0x60 DUP5 DUP7 SUB SLT ISZERO PUSH2 0x38B9 JUMPI PUSH2 0x38B8 PUSH2 0x321F JUMP JUMPDEST JUMPDEST PUSH0 PUSH2 0x38C6 DUP7 DUP3 DUP8 ADD PUSH2 0x3864 JUMP JUMPDEST SWAP4 POP POP PUSH1 0x20 PUSH2 0x38D7 DUP7 DUP3 DUP8 ADD PUSH2 0x3864 JUMP JUMPDEST SWAP3 POP POP PUSH1 0x40 PUSH2 0x38E8 DUP7 DUP3 DUP8 ADD PUSH2 0x388E JUMP JUMPDEST SWAP2 POP POP SWAP3 POP SWAP3 POP SWAP3 JUMP JUMPDEST PUSH0 PUSH2 0x38FC DUP3 PUSH2 0x32A8 JUMP JUMPDEST SWAP2 POP PUSH2 0x3907 DUP4 PUSH2 0x32A8 JUMP JUMPDEST SWAP3 POP DUP3 DUP3 MUL PUSH2 0x3915 DUP2 PUSH2 0x32A8 JUMP JUMPDEST SWAP2 POP DUP3 DUP3 DIV DUP5 EQ DUP4 ISZERO OR PUSH2 0x392C JUMPI PUSH2 0x392B PUSH2 0x37EE JUMP JUMPDEST JUMPDEST POP SWAP3 SWAP2 POP POP JUMP JUMPDEST PUSH32 0x4E487B7100000000000000000000000000000000000000000000000000000000 PUSH0 MSTORE PUSH1 0x12 PUSH1 0x4 MSTORE PUSH1 0x24 PUSH0 REVERT JUMPDEST PUSH0 PUSH2 0x396A DUP3 PUSH2 0x32A8 JUMP JUMPDEST SWAP2 POP PUSH2 0x3975 DUP4 PUSH2 0x32A8 JUMP JUMPDEST SWAP3 POP DUP3 PUSH2 0x3985 JUMPI PUSH2 0x3984 PUSH2 0x3933 JUMP JUMPDEST JUMPDEST DUP3 DUP3 DIV SWAP1 POP SWAP3 SWAP2 POP POP JUMP JUMPDEST PUSH0 DUP3 DUP3 MSTORE PUSH1 0x20 DUP3 ADD SWAP1 POP SWAP3 SWAP2 POP POP JUMP JUMPDEST PUSH32 0x76654141484D616E616765723A2053746172742074696D65206D757374206265 PUSH0 DUP3 ADD MSTORE PUSH32 0x2067726561746572207468616E2074686520626C6F636B2074696D657374616D PUSH1 0x20 DUP3 ADD MSTORE PUSH32 0x7000000000000000000000000000000000000000000000000000000000000000 PUSH1 0x40 DUP3 ADD MSTORE POP JUMP JUMPDEST PUSH0 PUSH2 0x3A20 PUSH1 0x41 DUP4 PUSH2 0x3990 JUMP JUMPDEST SWAP2 POP PUSH2 0x3A2B DUP3 PUSH2 0x39A0 JUMP JUMPDEST PUSH1 0x60 DUP3 ADD SWAP1 POP SWAP2 SWAP1 POP JUMP JUMPDEST PUSH0 PUSH1 0x20 DUP3 ADD SWAP1 POP DUP2 DUP2 SUB PUSH0 DUP4 ADD MSTORE PUSH2 0x3A4D DUP2 PUSH2 0x3A14 JUMP JUMPDEST SWAP1 POP SWAP2 SWAP1 POP JUMP JUMPDEST PUSH0 DUP2 SWAP1 POP SWAP2 SWAP1 POP JUMP JUMPDEST PUSH0 PUSH8 0xFFFFFFFFFFFFFFFF DUP3 AND SWAP1 POP SWAP2 SWAP1 POP JUMP JUMPDEST PUSH0 PUSH2 0x3A8A PUSH2 0x3A85 PUSH2 0x3A80 DUP5 PUSH2 0x3A54 JUMP JUMPDEST PUSH2 0x32D9 JUMP JUMPDEST PUSH2 0x3A5D JUMP JUMPDEST SWAP1 POP SWAP2 SWAP1 POP JUMP JUMPDEST PUSH2 0x3A9A DUP2 PUSH2 0x3A70 JUMP JUMPDEST DUP3 MSTORE POP POP JUMP JUMPDEST PUSH0 PUSH1 0x20 DUP3 ADD SWAP1 POP PUSH2 0x3AB3 PUSH0 DUP4 ADD DUP5 PUSH2 0x3A91 JUMP JUMPDEST SWAP3 SWAP2 POP POP JUMP JUMPDEST PUSH32 0x76654141484D616E616765723A205374616B6520616D6F756E742063616E206E PUSH0 DUP3 ADD MSTORE PUSH32 0x6F74206265207A65726F21000000000000000000000000000000000000000000 PUSH1 0x20 DUP3 ADD MSTORE POP JUMP JUMPDEST PUSH0 PUSH2 0x3B13 PUSH1 0x2B DUP4 PUSH2 0x3990 JUMP JUMPDEST SWAP2 POP PUSH2 0x3B1E DUP3 PUSH2 0x3AB9 JUMP JUMPDEST PUSH1 0x40 DUP3 ADD SWAP1 POP SWAP2 SWAP1 POP JUMP JUMPDEST PUSH0 PUSH1 0x20 DUP3 ADD SWAP1 POP DUP2 DUP2 SUB PUSH0 DUP4 ADD MSTORE PUSH2 0x3B40 DUP2 PUSH2 0x3B07 JUMP JUMPDEST SWAP1 POP SWAP2 SWAP1 POP JUMP JUMPDEST PUSH32 0x76654141484D616E616765723A204475652074696D65206D7573742062652067 PUSH0 DUP3 ADD MSTORE PUSH32 0x726561746572207468616E207468652063757272656E742074696D6500000000 PUSH1 0x20 DUP3 ADD MSTORE POP JUMP JUMPDEST PUSH0 PUSH2 0x3BA1 PUSH1 0x3C DUP4 PUSH2 0x3990 JUMP JUMPDEST SWAP2 POP PUSH2 0x3BAC DUP3 PUSH2 0x3B47 JUMP JUMPDEST PUSH1 0x40 DUP3 ADD SWAP1 POP SWAP2 SWAP1 POP JUMP JUMPDEST PUSH0 PUSH1 0x20 DUP3 ADD SWAP1 POP DUP2 DUP2 SUB PUSH0 DUP4 ADD MSTORE PUSH2 0x3BCE DUP2 PUSH2 0x3B95 JUMP JUMPDEST SWAP1 POP SWAP2 SWAP1 POP JUMP JUMPDEST PUSH0 PUSH2 0x3BDF DUP3 PUSH2 0x32A8 JUMP JUMPDEST SWAP2 POP PUSH2 0x3BEA DUP4 PUSH2 0x32A8 JUMP JUMPDEST SWAP3 POP DUP3 PUSH2 0x3BFA JUMPI PUSH2 0x3BF9 PUSH2 0x3933 JUMP JUMPDEST JUMPDEST DUP3 DUP3 MOD SWAP1 POP SWAP3 SWAP2 POP POP JUMP JUMPDEST PUSH32 0x76654141484D616E616765723A20546865206D696E696D756D20737465702073 PUSH0 DUP3 ADD MSTORE PUSH32 0x697A65206D75737420626520604D494E5F535445506000000000000000000000 PUSH1 0x20 DUP3 ADD MSTORE POP JUMP JUMPDEST PUSH0 PUSH2 0x3C5F PUSH1 0x36 DUP4 PUSH2 0x3990 JUMP JUMPDEST SWAP2 POP PUSH2 0x3C6A DUP3 PUSH2 0x3C05 JUMP JUMPDEST PUSH1 0x40 DUP3 ADD SWAP1 POP SWAP2 SWAP1 POP JUMP JUMPDEST PUSH0 PUSH1 0x20 DUP3 ADD SWAP1 POP DUP2 DUP2 SUB PUSH0 DUP4 ADD MSTORE PUSH2 0x3C8C DUP2 PUSH2 0x3C53 JUMP JUMPDEST SWAP1 POP SWAP2 SWAP1 POP JUMP JUMPDEST PUSH0 PUSH1 0x20 DUP3 DUP5 SUB SLT ISZERO PUSH2 0x3CA8 JUMPI PUSH2 0x3CA7 PUSH2 0x321F JUMP JUMPDEST JUMPDEST PUSH0 PUSH2 0x3CB5 DUP5 DUP3 DUP6 ADD PUSH2 0x388E JUMP JUMPDEST SWAP2 POP POP SWAP3 SWAP2 POP POP JUMP JUMPDEST PUSH0 PUSH2 0x3CC8 DUP3 PUSH2 0x32A8 JUMP JUMPDEST SWAP2 POP PUSH2 0x3CD3 DUP4 PUSH2 0x32A8 JUMP JUMPDEST SWAP3 POP DUP3 DUP3 ADD SWAP1 POP DUP1 DUP3 GT ISZERO PUSH2 0x3CEB JUMPI PUSH2 0x3CEA PUSH2 0x37EE JUMP JUMPDEST JUMPDEST SWAP3 SWAP2 POP POP JUMP JUMPDEST PUSH0 PUSH1 0xC0 DUP3 ADD SWAP1 POP PUSH2 0x3D04 PUSH0 DUP4 ADD DUP10 PUSH2 0x35A9 JUMP JUMPDEST PUSH2 0x3D11 PUSH1 0x20 DUP4 ADD DUP9 PUSH2 0x32B1 JUMP JUMPDEST PUSH2 0x3D1E PUSH1 0x40 DUP4 ADD DUP8 PUSH2 0x32B1 JUMP JUMPDEST PUSH2 0x3D2B PUSH1 0x60 DUP4 ADD DUP7 PUSH2 0x32B1 JUMP JUMPDEST PUSH2 0x3D38 PUSH1 0x80 DUP4 ADD DUP6 PUSH2 0x32B1 JUMP JUMPDEST PUSH2 0x3D45 PUSH1 0xA0 DUP4 ADD DUP5 PUSH2 0x32B1 JUMP JUMPDEST SWAP8 SWAP7 POP POP POP POP POP POP POP JUMP JUMPDEST PUSH0 PUSH1 0x40 DUP3 ADD SWAP1 POP PUSH2 0x3D63 PUSH0 DUP4 ADD DUP6 PUSH2 0x35A9 JUMP JUMPDEST PUSH2 0x3D70 PUSH1 0x20 DUP4 ADD DUP5 PUSH2 0x32B1 JUMP JUMPDEST SWAP4 SWAP3 POP POP POP JUMP JUMPDEST PUSH0 PUSH2 0x3D91 PUSH2 0x3D8C PUSH2 0x3D87 DUP5 PUSH2 0x35D1 JUMP JUMPDEST PUSH2 0x32D9 JUMP JUMPDEST PUSH2 0x32A8 JUMP JUMPDEST SWAP1 POP SWAP2 SWAP1 POP JUMP JUMPDEST PUSH2 0x3DA1 DUP2 PUSH2 0x3D77 JUMP JUMPDEST DUP3 MSTORE POP POP JUMP JUMPDEST PUSH0 PUSH1 0xA0 DUP3 ADD SWAP1 POP PUSH2 0x3DBA PUSH0 DUP4 ADD DUP9 PUSH2 0x35A9 JUMP JUMPDEST PUSH2 0x3DC7 PUSH1 0x20 DUP4 ADD DUP8 PUSH2 0x3D98 JUMP JUMPDEST PUSH2 0x3DD4 PUSH1 0x40 DUP4 ADD DUP7 PUSH2 0x32B1 JUMP JUMPDEST PUSH2 0x3DE1 PUSH1 0x60 DUP4 ADD DUP6 PUSH2 0x32B1 JUMP JUMPDEST PUSH2 0x3DEE PUSH1 0x80 DUP4 ADD DUP5 PUSH2 0x32B1 JUMP JUMPDEST SWAP7 SWAP6 POP POP POP POP POP POP JUMP JUMPDEST PUSH32 0x76654141484D616E616765723A2063616C6C6572206973206E6F742074686520 PUSH0 DUP3 ADD MSTORE PUSH32 0x7265776172644469737472696275746F72000000000000000000000000000000 PUSH1 0x20 DUP3 ADD MSTORE POP JUMP JUMPDEST PUSH0 PUSH2 0x3E52 PUSH1 0x31 DUP4 PUSH2 0x3990 JUMP JUMPDEST SWAP2 POP PUSH2 0x3E5D DUP3 PUSH2 0x3DF8 JUMP JUMPDEST PUSH1 0x40 DUP3 ADD SWAP1 POP SWAP2 SWAP1 POP JUMP JUMPDEST PUSH0 PUSH1 0x20 DUP3 ADD SWAP1 POP DUP2 DUP2 SUB PUSH0 DUP4 ADD MSTORE PUSH2 0x3E7F DUP2 PUSH2 0x3E46 JUMP JUMPDEST SWAP1 POP SWAP2 SWAP1 POP JUMP JUMPDEST PUSH0 PUSH1 0x40 DUP3 ADD SWAP1 POP PUSH2 0x3E99 PUSH0 DUP4 ADD DUP6 PUSH2 0x32B1 JUMP JUMPDEST PUSH2 0x3EA6 PUSH1 0x20 DUP4 ADD DUP5 PUSH2 0x32B1 JUMP JUMPDEST SWAP4 SWAP3 POP POP POP JUMP JUMPDEST PUSH0 PUSH1 0x80 DUP3 ADD SWAP1 POP PUSH2 0x3EC0 PUSH0 DUP4 ADD DUP8 PUSH2 0x35A9 JUMP JUMPDEST PUSH2 0x3ECD PUSH1 0x20 DUP4 ADD DUP7 PUSH2 0x32B1 JUMP JUMPDEST PUSH2 0x3EDA PUSH1 0x40 DUP4 ADD DUP6 PUSH2 0x32B1 JUMP JUMPDEST PUSH2 0x3EE7 PUSH1 0x60 DUP4 ADD DUP5 PUSH2 0x32B1 JUMP JUMPDEST SWAP6 SWAP5 POP POP POP POP POP JUMP JUMPDEST PUSH0 PUSH1 0xC0 DUP3 ADD SWAP1 POP PUSH2 0x3F03 PUSH0 DUP4 ADD DUP10 PUSH2 0x35A9 JUMP JUMPDEST PUSH2 0x3F10 PUSH1 0x20 DUP4 ADD DUP9 PUSH2 0x3D98 JUMP JUMPDEST PUSH2 0x3F1D PUSH1 0x40 DUP4 ADD DUP8 PUSH2 0x32B1 JUMP JUMPDEST PUSH2 0x3F2A PUSH1 0x60 DUP4 ADD DUP7 PUSH2 0x32B1 JUMP JUMPDEST PUSH2 0x3F37 PUSH1 0x80 DUP4 ADD DUP6 PUSH2 0x32B1 JUMP JUMPDEST PUSH2 0x3F44 PUSH1 0xA0 DUP4 ADD DUP5 PUSH2 0x32B1 JUMP JUMPDEST SWAP8 SWAP7 POP POP POP POP POP POP POP JUMP JUMPDEST PUSH0 PUSH2 0x3F59 DUP3 PUSH2 0x35D1 JUMP JUMPDEST SWAP2 POP PUSH2 0x3F64 DUP4 PUSH2 0x35D1 JUMP JUMPDEST SWAP3 POP DUP3 DUP3 SUB SWAP1 POP PUSH4 0xFFFFFFFF DUP2 GT ISZERO PUSH2 0x3F80 JUMPI PUSH2 0x3F7F PUSH2 0x37EE JUMP JUMPDEST JUMPDEST SWAP3 SWAP2 POP POP JUMP JUMPDEST PUSH0 PUSH1 0x60 DUP3 ADD SWAP1 POP PUSH2 0x3F99 PUSH0 DUP4 ADD DUP7 PUSH2 0x35A9 JUMP JUMPDEST PUSH2 0x3FA6 PUSH1 0x20 DUP4 ADD DUP6 PUSH2 0x35A9 JUMP JUMPDEST PUSH2 0x3FB3 PUSH1 0x40 DUP4 ADD DUP5 PUSH2 0x32B1 JUMP JUMPDEST SWAP5 SWAP4 POP POP POP POP JUMP JUMPDEST PUSH0 DUP2 SWAP1 POP SWAP2 SWAP1 POP JUMP JUMPDEST PUSH0 PUSH2 0x3FDE PUSH2 0x3FD9 PUSH2 0x3FD4 DUP5 PUSH2 0x3FBB JUMP JUMPDEST PUSH2 0x32D9 JUMP JUMPDEST PUSH2 0x32A8 JUMP JUMPDEST SWAP1 POP SWAP2 SWAP1 POP JUMP JUMPDEST PUSH2 0x3FEE DUP2 PUSH2 0x3FC4 JUMP JUMPDEST DUP3 MSTORE POP POP JUMP JUMPDEST PUSH0 PUSH1 0x40 DUP3 ADD SWAP1 POP PUSH2 0x4007 PUSH0 DUP4 ADD DUP6 PUSH2 0x35A9 JUMP JUMPDEST PUSH2 0x4014 PUSH1 0x20 DUP4 ADD DUP5 PUSH2 0x3FE5 JUMP JUMPDEST SWAP4 SWAP3 POP POP POP JUMP JUMPDEST PUSH0 DUP2 ISZERO ISZERO SWAP1 POP SWAP2 SWAP1 POP JUMP JUMPDEST PUSH2 0x402F DUP2 PUSH2 0x401B JUMP JUMPDEST DUP2 EQ PUSH2 0x4039 JUMPI PUSH0 DUP1 REVERT JUMPDEST POP JUMP JUMPDEST PUSH0 DUP2 MLOAD SWAP1 POP PUSH2 0x404A DUP2 PUSH2 0x4026 JUMP JUMPDEST SWAP3 SWAP2 POP POP JUMP JUMPDEST PUSH0 PUSH1 0x20 DUP3 DUP5 SUB SLT ISZERO PUSH2 0x4065 JUMPI PUSH2 0x4064 PUSH2 0x321F JUMP JUMPDEST JUMPDEST PUSH0 PUSH2 0x4072 DUP5 DUP3 DUP6 ADD PUSH2 0x403C JUMP JUMPDEST SWAP2 POP POP SWAP3 SWAP2 POP POP JUMP JUMPDEST PUSH0 DUP2 MLOAD SWAP1 POP SWAP2 SWAP1 POP JUMP JUMPDEST PUSH0 DUP2 SWAP1 POP SWAP3 SWAP2 POP POP JUMP JUMPDEST PUSH0 JUMPDEST DUP4 DUP2 LT ISZERO PUSH2 0x40AC JUMPI DUP1 DUP3 ADD MLOAD DUP2 DUP5 ADD MSTORE PUSH1 0x20 DUP2 ADD SWAP1 POP PUSH2 0x4091 JUMP JUMPDEST PUSH0 DUP5 DUP5 ADD MSTORE POP POP POP POP JUMP JUMPDEST PUSH0 PUSH2 0x40C1 DUP3 PUSH2 0x407B JUMP JUMPDEST PUSH2 0x40CB DUP2 DUP6 PUSH2 0x4085 JUMP JUMPDEST SWAP4 POP PUSH2 0x40DB DUP2 DUP6 PUSH1 0x20 DUP7 ADD PUSH2 0x408F JUMP JUMPDEST DUP1 DUP5 ADD SWAP2 POP POP SWAP3 SWAP2 POP POP JUMP JUMPDEST PUSH0 PUSH2 0x40F2 DUP3 DUP5 PUSH2 0x40B7 JUMP JUMPDEST SWAP2 POP DUP2 SWAP1 POP SWAP3 SWAP2 POP POP JUMP INVALID LOG2 PUSH5 0x6970667358 0x22 SLT KECCAK256 PUSH26 0x976E144B2AA5491C458F9391D8B58544F0CC203685AB539283E7 0xE0 PUSH17 0x16FFF364736F6C63430008140033000000 "
		},
		"gasEstimates": {
			"creation": {
				"codeDepositCost": "3338200",
				"executionCost": "8718",
				"totalCost": "3346918"
			},
			"external": {
				"accSettledBalance()": "2470",
				"balanceOf(address)": "2919",
				"calcBalanceReceived(address,uint256,uint256)": "infinite",
				"create(uint256,uint256)": "infinite",
				"earned(address)": "2881",
				"estimateLockerAPY(address)": "infinite",
				"exit()": "infinite",
				"extend(uint256)": "infinite",
				"getLocker(address)": "infinite",
				"getLockerInfo(address)": "infinite",
				"getLockersInfo()": "infinite",
				"getReward()": "infinite",
				"initialize(address,address,address,uint256,address)": "infinite",
				"lastRateUpdateTime()": "2538",
				"lastSettledTime()": "2494",
				"lastUpdateTime()": "2492",
				"owner()": "2613",
				"proExtend(uint256)": "infinite",
				"refill(uint256)": "infinite",
				"refresh(uint256,uint256)": "infinite",
				"renounceOwnership()": "infinite",
				"rescueTokens(address,uint256,address)": "infinite",
				"rewardDistributed()": "infinite",
				"rewardDistributedStored()": "2535",
				"rewardDistributor()": "2597",
				"rewardPerToken()": "2548",
				"rewardPerTokenStored()": "2558",
				"rewardRate()": "2514",
				"rewardToken()": "infinite",
				"rewards(address)": "2893",
				"sAAH()": "infinite",
				"setRewardRate(uint256)": "infinite",
				"startTime()": "2492",
				"totalSupply()": "2515",
				"transferOwnership(address)": "infinite",
				"userRewardPerTokenPaid(address)": "2935",
				"veAAH()": "infinite"
			},
			"internal": {
				"_withdraw2()": "infinite"
			}
		},
		"methodIdentifiers": {
			"accSettledBalance()": "c58e2942",
			"balanceOf(address)": "70a08231",
			"calcBalanceReceived(address,uint256,uint256)": "0e67940f",
			"create(uint256,uint256)": "9f7b4579",
			"earned(address)": "008cc262",
			"estimateLockerAPY(address)": "3cdafd19",
			"exit()": "e9fad8ee",
			"extend(uint256)": "9714378c",
			"getLocker(address)": "919884bf",
			"getLockerInfo(address)": "c2add678",
			"getLockersInfo()": "25c2aaa0",
			"getReward()": "3d18b912",
			"initialize(address,address,address,uint256,address)": "530b97a4",
			"lastRateUpdateTime()": "0762bed2",
			"lastSettledTime()": "06131071",
			"lastUpdateTime()": "c8f33c91",
			"owner()": "8da5cb5b",
			"proExtend(uint256)": "ab8088e2",
			"refill(uint256)": "ca9d07ba",
			"refresh(uint256,uint256)": "754ecc26",
			"renounceOwnership()": "715018a6",
			"rescueTokens(address,uint256,address)": "b37fd190",
			"rewardDistributed()": "e9483ac0",
			"rewardDistributedStored()": "f7bc2afd",
			"rewardDistributor()": "acc2166a",
			"rewardPerToken()": "cd3daf9d",
			"rewardPerTokenStored()": "df136d65",
			"rewardRate()": "7b0a47ee",
			"rewardToken()": "f7c618c1",
			"rewards(address)": "0700037d",
			"sAAH()": "845e5182",
			"setRewardRate(uint256)": "9e447fc6",
			"startTime()": "78e97925",
			"totalSupply()": "18160ddd",
			"transferOwnership(address)": "f2fde38b",
			"userRewardPerTokenPaid(address)": "8b876347",
			"veAAH()": "0dad4325"
		}
	},
	"abi": [
		{
			"inputs": [
				{
					"internalType": "address",
					"name": "target",
					"type": "address"
				}
			],
			"name": "AddressEmptyCode",
			"type": "error"
		},
		{
			"inputs": [
				{
					"internalType": "address",
					"name": "account",
					"type": "address"
				}
			],
			"name": "AddressInsufficientBalance",
			"type": "error"
		},
		{
			"inputs": [],
			"name": "FailedInnerCall",
			"type": "error"
		},
		{
			"inputs": [],
			"name": "InvalidInitialization",
			"type": "error"
		},
		{
			"inputs": [],
			"name": "NotInitializing",
			"type": "error"
		},
		{
			"inputs": [
				{
					"internalType": "address",
					"name": "owner",
					"type": "address"
				}
			],
			"name": "OwnableInvalidOwner",
			"type": "error"
		},
		{
			"inputs": [
				{
					"internalType": "address",
					"name": "account",
					"type": "address"
				}
			],
			"name": "OwnableUnauthorizedAccount",
			"type": "error"
		},
		{
			"inputs": [],
			"name": "ReentrancyGuardReentrantCall",
			"type": "error"
		},
		{
			"inputs": [
				{
					"internalType": "address",
					"name": "token",
					"type": "address"
				}
			],
			"name": "SafeERC20FailedOperation",
			"type": "error"
		},
		{
			"anonymous": false,
			"inputs": [
				{
					"indexed": false,
					"internalType": "address",
					"name": "recipient",
					"type": "address"
				},
				{
					"indexed": false,
					"internalType": "uint256",
					"name": "sAAHLocked",
					"type": "uint256"
				},
				{
					"indexed": false,
					"internalType": "uint256",
					"name": "duration",
					"type": "uint256"
				},
				{
					"indexed": false,
					"internalType": "uint256",
					"name": "veAAHReceived",
					"type": "uint256"
				}
			],
			"name": "Create",
			"type": "event"
		},
		{
			"anonymous": false,
			"inputs": [
				{
					"indexed": false,
					"internalType": "address",
					"name": "recipient",
					"type": "address"
				},
				{
					"indexed": false,
					"internalType": "uint256",
					"name": "preDueTime",
					"type": "uint256"
				},
				{
					"indexed": false,
					"internalType": "uint256",
					"name": "newDueTime",
					"type": "uint256"
				},
				{
					"indexed": false,
					"internalType": "uint256",
					"name": "duration",
					"type": "uint256"
				},
				{
					"indexed": false,
					"internalType": "uint256",
					"name": "veAAHReceived",
					"type": "uint256"
				}
			],
			"name": "Extend",
			"type": "event"
		},
		{
			"anonymous": false,
			"inputs": [
				{
					"indexed": false,
					"internalType": "uint64",
					"name": "version",
					"type": "uint64"
				}
			],
			"name": "Initialized",
			"type": "event"
		},
		{
			"anonymous": false,
			"inputs": [
				{
					"indexed": true,
					"internalType": "address",
					"name": "previousOwner",
					"type": "address"
				},
				{
					"indexed": true,
					"internalType": "address",
					"name": "newOwner",
					"type": "address"
				}
			],
			"name": "OwnershipTransferred",
			"type": "event"
		},
		{
			"anonymous": false,
			"inputs": [
				{
					"indexed": false,
					"internalType": "address",
					"name": "recipient",
					"type": "address"
				},
				{
					"indexed": false,
					"internalType": "uint256",
					"name": "preDueTime",
					"type": "uint256"
				},
				{
					"indexed": false,
					"internalType": "uint256",
					"name": "newDueTime",
					"type": "uint256"
				},
				{
					"indexed": false,
					"internalType": "uint256",
					"name": "duration",
					"type": "uint256"
				},
				{
					"indexed": false,
					"internalType": "uint256",
					"name": "veAAHOldBalance",
					"type": "uint256"
				},
				{
					"indexed": false,
					"internalType": "uint256",
					"name": "veAAHBalance",
					"type": "uint256"
				}
			],
			"name": "ProExtend",
			"type": "event"
		},
		{
			"anonymous": false,
			"inputs": [
				{
					"indexed": false,
					"internalType": "address",
					"name": "recipient",
					"type": "address"
				},
				{
					"indexed": false,
					"internalType": "uint256",
					"name": "sAAHRefilled",
					"type": "uint256"
				},
				{
					"indexed": false,
					"internalType": "uint256",
					"name": "veAAHReceived",
					"type": "uint256"
				}
			],
			"name": "Refill",
			"type": "event"
		},
		{
			"anonymous": false,
			"inputs": [
				{
					"indexed": false,
					"internalType": "address",
					"name": "recipient",
					"type": "address"
				},
				{
					"indexed": false,
					"internalType": "uint256",
					"name": "presAAHLocked",
					"type": "uint256"
				},
				{
					"indexed": false,
					"internalType": "uint256",
					"name": "newsAAHLocked",
					"type": "uint256"
				},
				{
					"indexed": false,
					"internalType": "uint256",
					"name": "duration",
					"type": "uint256"
				},
				{
					"indexed": false,
					"internalType": "uint256",
					"name": "preveAAHBalance",
					"type": "uint256"
				},
				{
					"indexed": false,
					"internalType": "uint256",
					"name": "newveAAHBalance",
					"type": "uint256"
				}
			],
			"name": "Refresh",
			"type": "event"
		},
		{
			"anonymous": false,
			"inputs": [
				{
					"indexed": true,
					"internalType": "address",
					"name": "user",
					"type": "address"
				},
				{
					"indexed": false,
					"internalType": "uint256",
					"name": "reward",
					"type": "uint256"
				}
			],
			"name": "RewardPaid",
			"type": "event"
		},
		{
			"anonymous": false,
			"inputs": [
				{
					"indexed": false,
					"internalType": "uint256",
					"name": "oldRewardRate",
					"type": "uint256"
				},
				{
					"indexed": false,
					"internalType": "uint256",
					"name": "newRewardRate",
					"type": "uint256"
				}
			],
			"name": "RewardRateUpdated",
			"type": "event"
		},
		{
			"anonymous": false,
			"inputs": [
				{
					"indexed": true,
					"internalType": "address",
					"name": "user",
					"type": "address"
				},
				{
					"indexed": false,
					"internalType": "uint256",
					"name": "amount",
					"type": "uint256"
				}
			],
			"name": "Staked",
			"type": "event"
		},
		{
			"anonymous": false,
			"inputs": [
				{
					"indexed": false,
					"internalType": "address",
					"name": "recipient",
					"type": "address"
				},
				{
					"indexed": false,
					"internalType": "uint256",
					"name": "veAAHBurned",
					"type": "uint256"
				},
				{
					"indexed": false,
					"internalType": "uint256",
					"name": "sAAHRefunded",
					"type": "uint256"
				}
			],
			"name": "Withdraw",
			"type": "event"
		},
		{
			"anonymous": false,
			"inputs": [
				{
					"indexed": true,
					"internalType": "address",
					"name": "user",
					"type": "address"
				},
				{
					"indexed": false,
					"internalType": "uint256",
					"name": "amount",
					"type": "uint256"
				}
			],
			"name": "Withdrawn",
			"type": "event"
		},
		{
			"inputs": [],
			"name": "accSettledBalance",
			"outputs": [
				{
					"internalType": "uint256",
					"name": "",
					"type": "uint256"
				}
			],
			"stateMutability": "view",
			"type": "function"
		},
		{
			"inputs": [
				{
					"internalType": "address",
					"name": "account",
					"type": "address"
				}
			],
			"name": "balanceOf",
			"outputs": [
				{
					"internalType": "uint256",
					"name": "",
					"type": "uint256"
				}
			],
			"stateMutability": "view",
			"type": "function"
		},
		{
			"inputs": [
				{
					"internalType": "address",
					"name": "_lockerAddress",
					"type": "address"
				},
				{
					"internalType": "uint256",
					"name": "_amount",
					"type": "uint256"
				},
				{
					"internalType": "uint256",
					"name": "_duration",
					"type": "uint256"
				}
			],
			"name": "calcBalanceReceived",
			"outputs": [
				{
					"internalType": "uint256",
					"name": "",
					"type": "uint256"
				}
			],
			"stateMutability": "view",
			"type": "function"
		},
		{
			"inputs": [
				{
					"internalType": "uint256",
					"name": "_amount",
					"type": "uint256"
				},
				{
					"internalType": "uint256",
					"name": "_dueTime",
					"type": "uint256"
				}
			],
			"name": "create",
			"outputs": [],
			"stateMutability": "nonpayable",
			"type": "function"
		},
		{
			"inputs": [
				{
					"internalType": "address",
					"name": "_account",
					"type": "address"
				}
			],
			"name": "earned",
			"outputs": [
				{
					"internalType": "uint256",
					"name": "",
					"type": "uint256"
				}
			],
			"stateMutability": "nonpayable",
			"type": "function"
		},
		{
			"inputs": [
				{
					"internalType": "address",
					"name": "_lockerAddress",
					"type": "address"
				}
			],
			"name": "estimateLockerAPY",
			"outputs": [
				{
					"internalType": "uint256",
					"name": "",
					"type": "uint256"
				}
			],
			"stateMutability": "nonpayable",
			"type": "function"
		},
		{
			"inputs": [],
			"name": "exit",
			"outputs": [],
			"stateMutability": "nonpayable",
			"type": "function"
		},
		{
			"inputs": [
				{
					"internalType": "uint256",
					"name": "_dueTime",
					"type": "uint256"
				}
			],
			"name": "extend",
			"outputs": [],
			"stateMutability": "nonpayable",
			"type": "function"
		},
		{
			"inputs": [
				{
					"internalType": "address",
					"name": "_lockerAddress",
					"type": "address"
				}
			],
			"name": "getLocker",
			"outputs": [
				{
					"internalType": "uint32",
					"name": "",
					"type": "uint32"
				},
				{
					"internalType": "uint32",
					"name": "",
					"type": "uint32"
				},
				{
					"internalType": "uint96",
					"name": "",
					"type": "uint96"
				}
			],
			"stateMutability": "view",
			"type": "function"
		},
		{
			"inputs": [
				{
					"internalType": "address",
					"name": "_lockerAddress",
					"type": "address"
				}
			],
			"name": "getLockerInfo",
			"outputs": [
				{
					"internalType": "uint32",
					"name": "_startTime",
					"type": "uint32"
				},
				{
					"internalType": "uint32",
					"name": "_dueTime",
					"type": "uint32"
				},
				{
					"internalType": "uint32",
					"name": "_duration",
					"type": "uint32"
				},
				{
					"internalType": "uint96",
					"name": "_sAAHAmount",
					"type": "uint96"
				},
				{
					"internalType": "uint256",
					"name": "_veAAHAmount",
					"type": "uint256"
				},
				{
					"internalType": "uint256",
					"name": "_stakedveAAH",
					"type": "uint256"
				},
				{
					"internalType": "uint256",
					"name": "_rewardAmount",
					"type": "uint256"
				},
				{
					"internalType": "uint256",
					"name": "_lockedStatus",
					"type": "uint256"
				}
			],
			"stateMutability": "nonpayable",
			"type": "function"
		},
		{
			"inputs": [],
			"name": "getLockersInfo",
			"outputs": [
				{
					"internalType": "uint256",
					"name": "",
					"type": "uint256"
				},
				{
					"internalType": "uint256",
					"name": "",
					"type": "uint256"
				},
				{
					"internalType": "uint256",
					"name": "",
					"type": "uint256"
				},
				{
					"internalType": "uint256",
					"name": "",
					"type": "uint256"
				}
			],
			"stateMutability": "nonpayable",
			"type": "function"
		},
		{
			"inputs": [],
			"name": "getReward",
			"outputs": [],
			"stateMutability": "nonpayable",
			"type": "function"
		},
		{
			"inputs": [
				{
					"internalType": "contract IveAAH",
					"name": "_veAAH",
					"type": "address"
				},
				{
					"internalType": "contract IStakedAAH",
					"name": "_sAAH",
					"type": "address"
				},
				{
					"internalType": "contract IERC20",
					"name": "_rewardToken",
					"type": "address"
				},
				{
					"internalType": "uint256",
					"name": "_startTime",
					"type": "uint256"
				},
				{
					"internalType": "address",
					"name": "_rewardDistributor",
					"type": "address"
				}
			],
			"name": "initialize",
			"outputs": [],
			"stateMutability": "nonpayable",
			"type": "function"
		},
		{
			"inputs": [],
			"name": "lastRateUpdateTime",
			"outputs": [
				{
					"internalType": "uint256",
					"name": "",
					"type": "uint256"
				}
			],
			"stateMutability": "view",
			"type": "function"
		},
		{
			"inputs": [],
			"name": "lastSettledTime",
			"outputs": [
				{
					"internalType": "uint256",
					"name": "",
					"type": "uint256"
				}
			],
			"stateMutability": "view",
			"type": "function"
		},
		{
			"inputs": [],
			"name": "lastUpdateTime",
			"outputs": [
				{
					"internalType": "uint256",
					"name": "",
					"type": "uint256"
				}
			],
			"stateMutability": "view",
			"type": "function"
		},
		{
			"inputs": [],
			"name": "owner",
			"outputs": [
				{
					"internalType": "address",
					"name": "",
					"type": "address"
				}
			],
			"stateMutability": "view",
			"type": "function"
		},
		{
			"inputs": [
				{
					"internalType": "uint256",
					"name": "_amount",
					"type": "uint256"
				}
			],
			"name": "proExtend",
			"outputs": [],
			"stateMutability": "nonpayable",
			"type": "function"
		},
		{
			"inputs": [
				{
					"internalType": "uint256",
					"name": "_amount",
					"type": "uint256"
				}
			],
			"name": "refill",
			"outputs": [],
			"stateMutability": "nonpayable",
			"type": "function"
		},
		{
			"inputs": [
				{
					"internalType": "uint256",
					"name": "_amount",
					"type": "uint256"
				},
				{
					"internalType": "uint256",
					"name": "_dueTime",
					"type": "uint256"
				}
			],
			"name": "refresh",
			"outputs": [],
			"stateMutability": "nonpayable",
			"type": "function"
		},
		{
			"inputs": [],
			"name": "renounceOwnership",
			"outputs": [],
			"stateMutability": "nonpayable",
			"type": "function"
		},
		{
			"inputs": [
				{
					"internalType": "contract IERC20",
					"name": "_token",
					"type": "address"
				},
				{
					"internalType": "uint256",
					"name": "_amount",
					"type": "uint256"
				},
				{
					"internalType": "address",
					"name": "_to",
					"type": "address"
				}
			],
			"name": "rescueTokens",
			"outputs": [],
			"stateMutability": "nonpayable",
			"type": "function"
		},
		{
			"inputs": [],
			"name": "rewardDistributed",
			"outputs": [
				{
					"internalType": "uint256",
					"name": "",
					"type": "uint256"
				}
			],
			"stateMutability": "view",
			"type": "function"
		},
		{
			"inputs": [],
			"name": "rewardDistributedStored",
			"outputs": [
				{
					"internalType": "uint256",
					"name": "",
					"type": "uint256"
				}
			],
			"stateMutability": "view",
			"type": "function"
		},
		{
			"inputs": [],
			"name": "rewardDistributor",
			"outputs": [
				{
					"internalType": "address",
					"name": "",
					"type": "address"
				}
			],
			"stateMutability": "view",
			"type": "function"
		},
		{
			"inputs": [],
			"name": "rewardPerToken",
			"outputs": [
				{
					"internalType": "uint256",
					"name": "",
					"type": "uint256"
				}
			],
			"stateMutability": "nonpayable",
			"type": "function"
		},
		{
			"inputs": [],
			"name": "rewardPerTokenStored",
			"outputs": [
				{
					"internalType": "uint256",
					"name": "",
					"type": "uint256"
				}
			],
			"stateMutability": "view",
			"type": "function"
		},
		{
			"inputs": [],
			"name": "rewardRate",
			"outputs": [
				{
					"internalType": "uint256",
					"name": "",
					"type": "uint256"
				}
			],
			"stateMutability": "view",
			"type": "function"
		},
		{
			"inputs": [],
			"name": "rewardToken",
			"outputs": [
				{
					"internalType": "contract IERC20",
					"name": "",
					"type": "address"
				}
			],
			"stateMutability": "view",
			"type": "function"
		},
		{
			"inputs": [
				{
					"internalType": "address",
					"name": "",
					"type": "address"
				}
			],
			"name": "rewards",
			"outputs": [
				{
					"internalType": "uint256",
					"name": "",
					"type": "uint256"
				}
			],
			"stateMutability": "view",
			"type": "function"
		},
		{
			"inputs": [],
			"name": "sAAH",
			"outputs": [
				{
					"internalType": "contract IStakedAAH",
					"name": "",
					"type": "address"
				}
			],
			"stateMutability": "view",
			"type": "function"
		},
		{
			"inputs": [
				{
					"internalType": "uint256",
					"name": "_rewardRate",
					"type": "uint256"
				}
			],
			"name": "setRewardRate",
			"outputs": [],
			"stateMutability": "nonpayable",
			"type": "function"
		},
		{
			"inputs": [],
			"name": "startTime",
			"outputs": [
				{
					"internalType": "uint256",
					"name": "",
					"type": "uint256"
				}
			],
			"stateMutability": "view",
			"type": "function"
		},
		{
			"inputs": [],
			"name": "totalSupply",
			"outputs": [
				{
					"internalType": "uint256",
					"name": "",
					"type": "uint256"
				}
			],
			"stateMutability": "view",
			"type": "function"
		},
		{
			"inputs": [
				{
					"internalType": "address",
					"name": "newOwner",
					"type": "address"
				}
			],
			"name": "transferOwnership",
			"outputs": [],
			"stateMutability": "nonpayable",
			"type": "function"
		},
		{
			"inputs": [
				{
					"internalType": "address",
					"name": "",
					"type": "address"
				}
			],
			"name": "userRewardPerTokenPaid",
			"outputs": [
				{
					"internalType": "uint256",
					"name": "",
					"type": "uint256"
				}
			],
			"stateMutability": "view",
			"type": "function"
		},
		{
			"inputs": [],
			"name": "veAAH",
			"outputs": [
				{
					"internalType": "contract IveAAH",
					"name": "",
					"type": "address"
				}
			],
			"stateMutability": "view",
			"type": "function"
		}
	]
}