{
	"data": {
		"bytecode": {
			"linkReferences": {},
			"object": "60806040525f600755348015610013575f80fd5b50613c14806100215f395ff3fe608060405234801561000f575f80fd5b5060043610610156575f3560e01c80637b0a47ee116100c1578063acc2166a1161007a578063acc2166a146103a5578063ca9d07ba146103c3578063e9fad8ee146103df578063f2fde38b146103e9578063f7c618c114610405578063fc799ebe1461042357610156565b80637b0a47ee146102e1578063845e5182146102ff5780638da5cb5b1461031d578063919884bf1461033b5780639714378c1461036d5780639f7b45791461038957610156565b80633cdafd19116101135780633cdafd19146102335780633d18b9121461026357806370a082311461026d578063715018a61461029d578063754ecc26146102a757806378e97925146102c357610156565b80630dad43251461015a5780630e67940f1461017857806318160ddd146101a857806325c2aaa0146101c65780632f54bf6e146101e757806332b5a1b314610217575b5f80fd5b610162610441565b60405161016f9190612b4a565b60405180910390f35b610192600480360381019061018d9190612bd5565b610464565b60405161019f9190612c34565b60405180910390f35b6101b061050a565b6040516101bd9190612c34565b60405180910390f35b6101ce610510565b6040516101de9493929190612c4d565b60405180910390f35b61020160048036038101906101fc9190612c90565b6107a6565b60405161020e9190612cd5565b60405180910390f35b610231600480360381019061022c9190612d9f565b6107e4565b005b61024d60048036038101906102489190612c90565b610b85565b60405161025a9190612c34565b60405180910390f35b61026b610e46565b005b61028760048036038101906102829190612c90565b61104a565b6040516102949190612c34565b60405180910390f35b6102a5611090565b005b6102c160048036038101906102bc9190612e28565b6110a3565b005b6102cb611512565b6040516102d89190612c34565b60405180910390f35b6102e9611518565b6040516102f69190612c34565b60405180910390f35b61030761151e565b6040516103149190612e86565b60405180910390f35b610325611543565b6040516103329190612eae565b60405180910390f35b61035560048036038101906103509190612c90565b611578565b60405161036493929190612f0b565b60405180910390f35b61038760048036038101906103829190612f40565b611620565b005b6103a3600480360381019061039e9190612e28565b61198c565b005b6103ad611ce5565b6040516103ba9190612eae565b60405180910390f35b6103dd60048036038101906103d89190612f40565b611d0a565b005b6103e761204b565b005b61040360048036038101906103fe9190612c90565b61217d565b005b61040d612201565b60405161041a9190612f8b565b60405180910390f35b61042b612226565b6040516104389190612eae565b60405180910390f35b5f8054906101000a900473ffffffffffffffffffffffffffffffffffffffff1681565b5f805f9054906101000a900473ffffffffffffffffffffffffffffffffffffffff1673ffffffffffffffffffffffffffffffffffffffff16630e67940f8585856040518463ffffffff1660e01b81526004016104c293929190612fa4565b602060405180830381865afa1580156104dd573d5f803e3d5ffd5b505050506040513d601f19601f820116820180604052508101906105019190612fed565b90509392505050565b60015481565b5f805f805f80606473ffffffffffffffffffffffffffffffffffffffff1660035f9054906101000a900473ffffffffffffffffffffffffffffffffffffffff166040518060400160405280601181526020017f616363536574746c656442616c616e63650000000000000000000000000000008152506040516020016105979291906130c9565b6040516020818303038152906040526040516105b39190613134565b5f604051808303815f865af19150503d805f81146105ec576040519150601f19603f3d011682016040523d82523d5f602084013e6105f1565b606091505b509150915081610636576040517f08c379a000000000000000000000000000000000000000000000000000000000815260040161062d906131ca565b60405180910390fd5b5f61064b60018361224b90919063ffffffff16565b90505f8054906101000a900473ffffffffffffffffffffffffffffffffffffffff1673ffffffffffffffffffffffffffffffffffffffff166318160ddd6040518163ffffffff1660e01b8152600401602060405180830381865afa1580156106b5573d5f803e3d5ffd5b505050506040513d601f19601f820116820180604052508101906106d99190612fed565b60055f9054906101000a900473ffffffffffffffffffffffffffffffffffffffff1673ffffffffffffffffffffffffffffffffffffffff166370a082315f8054906101000a900473ffffffffffffffffffffffffffffffffffffffff166040518263ffffffff1660e01b81526004016107529190612eae565b602060405180830381865afa15801561076d573d5f803e3d5ffd5b505050506040513d601f19601f820116820180604052508101906107919190612fed565b82600754965096509650965050505090919293565b5f6107af611543565b73ffffffffffffffffffffffffffffffffffffffff168273ffffffffffffffffffffffffffffffffffffffff16149050919050565b5f6107ed6122b0565b90505f815f0160089054906101000a900460ff161590505f825f015f9054906101000a900467ffffffffffffffff1690505f808267ffffffffffffffff161480156108355750825b90505f60018367ffffffffffffffff1614801561086857505f3073ffffffffffffffffffffffffffffffffffffffff163b145b905081158015610876575080155b156108ad576040517ff92ee8a900000000000000000000000000000000000000000000000000000000815260040160405180910390fd5b6001855f015f6101000a81548167ffffffffffffffff021916908367ffffffffffffffff16021790555083156108fa576001855f0160086101000a81548160ff0219169083151502179055505b42881161093c576040517f08c379a00000000000000000000000000000000000000000000000000000000081526004016109339061327e565b60405180910390fd5b610945336122d7565b61094d6122eb565b8a5f806101000a81548173ffffffffffffffffffffffffffffffffffffffff021916908373ffffffffffffffffffffffffffffffffffffffff1602179055508960055f6101000a81548173ffffffffffffffffffffffffffffffffffffffff021916908373ffffffffffffffffffffffffffffffffffffffff1602179055508860045f6101000a81548173ffffffffffffffffffffffffffffffffffffffff021916908373ffffffffffffffffffffffffffffffffffffffff160217905550876008819055508660065f6101000a81548173ffffffffffffffffffffffffffffffffffffffff021916908373ffffffffffffffffffffffffffffffffffffffff1602179055508560035f6101000a81548173ffffffffffffffffffffffffffffffffffffffff021916908373ffffffffffffffffffffffffffffffffffffffff160217905550610b1e5f8054906101000a900473ffffffffffffffffffffffffffffffffffffffff167fffffffffffffffffffffffffffffffffffffffffffffffffffffffffffffffff60055f9054906101000a900473ffffffffffffffffffffffffffffffffffffffff1673ffffffffffffffffffffffffffffffffffffffff166122fd9092919063ffffffff16565b8315610b78575f855f0160086101000a81548160ff0219169083151502179055507fc7f505b2f371ae2175ee4913f4499e1f2633a7b5936321eed1cdaeb6115181d26001604051610b6f91906132e8565b60405180910390a15b5050505050505050505050565b5f805f606473ffffffffffffffffffffffffffffffffffffffff1660035f9054906101000a900473ffffffffffffffffffffffffffffffffffffffff166040518060400160405280601181526020017f616363536574746c656442616c616e6365000000000000000000000000000000815250604051602001610c099291906130c9565b604051602081830303815290604052604051610c259190613134565b5f604051808303815f865af19150503d805f8114610c5e576040519150601f19603f3d011682016040523d82523d5f602084013e610c63565b606091505b509150915081610ca8576040517f08c379a0000000000000000000000000000000000000000000000000000000008152600401610c9f906131ca565b60405180910390fd5b5f610cbd60018361224b90919063ffffffff16565b90505f81600154610cce919061332e565b90505f8103610ce3575f945050505050610e41565b5f805f8054906101000a900473ffffffffffffffffffffffffffffffffffffffff1673ffffffffffffffffffffffffffffffffffffffff1663919884bf896040518263ffffffff1660e01b8152600401610d3d9190612eae565b606060405180830381865afa158015610d58573d5f803e3d5ffd5b505050506040513d601f19601f82011682018060405250810190610d7c91906133b5565b92505063ffffffff1691505f816bffffffffffffffffffffffff1690504283111580610da757505f81145b15610dbb575f975050505050505050610e41565b5f846301e1338060025f8d73ffffffffffffffffffffffffffffffffffffffff1673ffffffffffffffffffffffffffffffffffffffff1681526020019081526020015f2054600754610e0d9190613405565b610e179190613405565b610e219190613473565b9050610e36828261240a90919063ffffffff16565b985050505050505050505b919050565b5f80606473ffffffffffffffffffffffffffffffffffffffff1660035f9054906101000a900473ffffffffffffffffffffffffffffffffffffffff166040518060400160405280600681526020017f7265776172640000000000000000000000000000000000000000000000000000815250604051602001610ec99291906130c9565b604051602081830303815290604052604051610ee59190613134565b5f604051808303815f865af19150503d805f8114610f1e576040519150601f19603f3d011682016040523d82523d5f602084013e610f23565b606091505b509150915081610f68576040517f08c379a0000000000000000000000000000000000000000000000000000000008152600401610f5f906131ca565b60405180910390fd5b5f610f7d60018361224b90919063ffffffff16565b90505f81111561104557610ff660065f9054906101000a900473ffffffffffffffffffffffffffffffffffffffff16338360045f9054906101000a900473ffffffffffffffffffffffffffffffffffffffff1673ffffffffffffffffffffffffffffffffffffffff16612432909392919063ffffffff16565b3373ffffffffffffffffffffffffffffffffffffffff167fe2403640ba68fed3a2f88b7557551d1993f84b99bb10ff833f0cf8db0c5e04868260405161103c9190612c34565b60405180910390a25b505050565b5f60025f8373ffffffffffffffffffffffffffffffffffffffff1673ffffffffffffffffffffffffffffffffffffffff1681526020019081526020015f20549050919050565b6110986124b4565b6110a15f61253b565b565b815f81036110e6576040517f08c379a00000000000000000000000000000000000000000000000000000000081526004016110dd90613513565b60405180910390fd5b81428111611129576040517f08c379a0000000000000000000000000000000000000000000000000000000008152600401611120906135a1565b60405180910390fd5b5f62093a806008548361113c919061332e565b61114691906135bf565b14611186576040517f08c379a000000000000000000000000000000000000000000000000000000000815260040161117d9061365f565b60405180910390fd5b61118e61260c565b5f805f9054906101000a900473ffffffffffffffffffffffffffffffffffffffff1673ffffffffffffffffffffffffffffffffffffffff1663919884bf336040518263ffffffff1660e01b81526004016111e89190612eae565b606060405180830381865afa158015611203573d5f803e3d5ffd5b505050506040513d601f19601f8201168201806040525081019061122791906133b5565b6bffffffffffffffffffffffff16925050508085111561129b5761129a33308388611252919061332e565b60055f9054906101000a900473ffffffffffffffffffffffffffffffffffffffff1673ffffffffffffffffffffffffffffffffffffffff16612432909392919063ffffffff16565b5b5f42856112a8919061332e565b90505f60025f3373ffffffffffffffffffffffffffffffffffffffff1673ffffffffffffffffffffffffffffffffffffffff1681526020019081526020015f205490505f805f9054906101000a900473ffffffffffffffffffffffffffffffffffffffff1673ffffffffffffffffffffffffffffffffffffffff166319225fc0338a866040518463ffffffff1660e01b815260040161134993929190612fa4565b6020604051808303815f875af1158015611365573d5f803e3d5ffd5b505050506040513d601f19601f82011682018060405250810190611389919061367d565b6bffffffffffffffffffffffff1690505f87826040516020016113ad929190613712565b60405160208183030381529060405290505f606673ffffffffffffffffffffffffffffffffffffffff166040518060400160405280600781526020017f636f6e74657874000000000000000000000000000000000000000000000000008152508360405160200161141f929190613790565b60405160208183030381529060405260405161143b9190613134565b5f604051808303815f865af19150503d805f8114611474576040519150601f19603f3d011682016040523d82523d5f602084013e611479565b606091505b50509050806114bd576040517f08c379a00000000000000000000000000000000000000000000000000000000081526004016114b490613835565b60405180910390fd5b7f14480c50968b1e72780f52b2792faa6924fc344438d200c2bdead4130c1506f933878c8888886040516114f696959493929190613853565b60405180910390a150505050505061150c612660565b50505050565b60085481565b60075481565b60055f9054906101000a900473ffffffffffffffffffffffffffffffffffffffff1681565b5f8061154d612677565b9050805f015f9054906101000a900473ffffffffffffffffffffffffffffffffffffffff1691505090565b5f805f805f9054906101000a900473ffffffffffffffffffffffffffffffffffffffff1673ffffffffffffffffffffffffffffffffffffffff1663919884bf856040518263ffffffff1660e01b81526004016115d49190612eae565b606060405180830381865afa1580156115ef573d5f803e3d5ffd5b505050506040513d601f19601f8201168201806040525081019061161391906133b5565b9250925092509193909250565b80428111611663576040517f08c379a000000000000000000000000000000000000000000000000000000000815260040161165a906135a1565b60405180910390fd5b5f62093a8060085483611676919061332e565b61168091906135bf565b146116c0576040517f08c379a00000000000000000000000000000000000000000000000000000000081526004016116b79061365f565b60405180910390fd5b5f805f9054906101000a900473ffffffffffffffffffffffffffffffffffffffff1673ffffffffffffffffffffffffffffffffffffffff1663919884bf336040518263ffffffff1660e01b815260040161171a9190612eae565b606060405180830381865afa158015611735573d5f803e3d5ffd5b505050506040513d601f19601f8201168201806040525081019061175991906133b5565b505090505f8163ffffffff1684611770919061332e565b90505f805f9054906101000a900473ffffffffffffffffffffffffffffffffffffffff1673ffffffffffffffffffffffffffffffffffffffff16638409a12333846040518363ffffffff1660e01b81526004016117ce9291906138b2565b6020604051808303815f875af11580156117ea573d5f803e3d5ffd5b505050506040513d601f19601f8201168201806040525081019061180e919061367d565b6bffffffffffffffffffffffff1690505f8582856040516020016118349392919061390d565b60405160208183030381529060405290505f606673ffffffffffffffffffffffffffffffffffffffff166040518060400160405280600781526020017f636f6e7465787400000000000000000000000000000000000000000000000000815250836040516020016118a6929190613790565b6040516020818303038152906040526040516118c29190613134565b5f604051808303815f865af19150503d805f81146118fb576040519150601f19603f3d011682016040523d82523d5f602084013e611900565b606091505b5050905080611944576040517f08c379a000000000000000000000000000000000000000000000000000000000815260040161193b90613835565b60405180910390fd5b7f661475d2bb7f20a2052fdfd8f597e1e76cdb5c12a6b8ca867b1e2eee4ba14d90338689878760405161197b95949392919061398f565b60405180910390a150505050505050565b815f81036119cf576040517f08c379a00000000000000000000000000000000000000000000000000000000081526004016119c690613513565b60405180910390fd5b81428111611a12576040517f08c379a0000000000000000000000000000000000000000000000000000000008152600401611a09906135a1565b60405180910390fd5b5f62093a8060085483611a25919061332e565b611a2f91906135bf565b14611a6f576040517f08c379a0000000000000000000000000000000000000000000000000000000008152600401611a669061365f565b60405180910390fd5b5f4284611a7c919061332e565b9050611acc33308760055f9054906101000a900473ffffffffffffffffffffffffffffffffffffffff1673ffffffffffffffffffffffffffffffffffffffff16612432909392919063ffffffff16565b5f805f9054906101000a900473ffffffffffffffffffffffffffffffffffffffff1673ffffffffffffffffffffffffffffffffffffffff16635165da303388856040518463ffffffff1660e01b8152600401611b2a93929190612fa4565b6020604051808303815f875af1158015611b46573d5f803e3d5ffd5b505050506040513d601f19601f82011682018060405250810190611b6a919061367d565b6bffffffffffffffffffffffff1690505f8582604051602001611b8e929190613712565b60405160208183030381529060405290505f606673ffffffffffffffffffffffffffffffffffffffff166040518060400160405280600781526020017f636f6e746578740000000000000000000000000000000000000000000000000081525083604051602001611c00929190613790565b604051602081830303815290604052604051611c1c9190613134565b5f604051808303815f865af19150503d805f8114611c55576040519150601f19603f3d011682016040523d82523d5f602084013e611c5a565b606091505b5050905080611c9e576040517f08c379a0000000000000000000000000000000000000000000000000000000008152600401611c9590613835565b60405180910390fd5b7fe3a07e2ac405f9c908f600ba464ed28dd28f04e308ccc0610a33ca7ed1c59abb33898686604051611cd394939291906139e0565b60405180910390a15050505050505050565b60065f9054906101000a900473ffffffffffffffffffffffffffffffffffffffff1681565b805f8103611d4d576040517f08c379a0000000000000000000000000000000000000000000000000000000008152600401611d4490613513565b60405180910390fd5b611d9b33308460055f9054906101000a900473ffffffffffffffffffffffffffffffffffffffff1673ffffffffffffffffffffffffffffffffffffffff16612432909392919063ffffffff16565b5f805f9054906101000a900473ffffffffffffffffffffffffffffffffffffffff1673ffffffffffffffffffffffffffffffffffffffff16630aa3ae7e33856040518363ffffffff1660e01b8152600401611df79291906138b2565b6020604051808303815f875af1158015611e13573d5f803e3d5ffd5b505050506040513d601f19601f82011682018060405250810190611e37919061367d565b6bffffffffffffffffffffffff1690505f805f9054906101000a900473ffffffffffffffffffffffffffffffffffffffff1673ffffffffffffffffffffffffffffffffffffffff1663919884bf336040518263ffffffff1660e01b8152600401611ea19190612eae565b606060405180830381865afa158015611ebc573d5f803e3d5ffd5b505050506040513d601f19601f82011682018060405250810190611ee091906133b5565b505090505f8183604051602001611ef8929190613a23565b60405160208183030381529060405290505f606673ffffffffffffffffffffffffffffffffffffffff166040518060400160405280600781526020017f636f6e746578740000000000000000000000000000000000000000000000000081525083604051602001611f6a929190613790565b604051602081830303815290604052604051611f869190613134565b5f604051808303815f865af19150503d805f8114611fbf576040519150601f19603f3d011682016040523d82523d5f602084013e611fc4565b606091505b5050905080612008576040517f08c379a0000000000000000000000000000000000000000000000000000000008152600401611fff90613835565b60405180910390fd5b7fe5ed0451c3c49e91c18ea603cfa7cd0833f466abb605e6e8a5964c5ffa453cde33878660405161203b93929190612fa4565b60405180910390a1505050505050565b612053610e46565b5f805f9054906101000a900473ffffffffffffffffffffffffffffffffffffffff1673ffffffffffffffffffffffffffffffffffffffff16634eea9a8d336040518263ffffffff1660e01b81526004016120ad9190612eae565b6020604051808303815f875af11580156120c9573d5f803e3d5ffd5b505050506040513d601f19601f820116820180604052508101906120ed919061367d565b6bffffffffffffffffffffffff1690505f60025f3373ffffffffffffffffffffffffffffffffffffffff1673ffffffffffffffffffffffffffffffffffffffff1681526020019081526020015f205490507ff279e6a1f5e320cca91135676d9cb6e44ca8a08c0b88342bcdb1144f6511b56833838360405161217193929190612fa4565b60405180910390a15050565b6121856124b4565b5f73ffffffffffffffffffffffffffffffffffffffff168173ffffffffffffffffffffffffffffffffffffffff16036121f5575f6040517f1e4fbdf70000000000000000000000000000000000000000000000000000000081526004016121ec9190612eae565b60405180910390fd5b6121fe8161253b565b50565b60045f9054906101000a900473ffffffffffffffffffffffffffffffffffffffff1681565b60035f9054906101000a900473ffffffffffffffffffffffffffffffffffffffff1681565b5f6020826122599190613a59565b8351101561229c576040517f08c379a000000000000000000000000000000000000000000000000000000000815260040161229390613ad6565b60405180910390fd5b5f8260208501015190508091505092915050565b5f7ff0c57e16840df040f15088dc2f81fe391c3923bec73e23a9662efc9c229c6a00905090565b6122df61269e565b6122e8816126de565b50565b6122f361269e565b6122fb612762565b565b5f8373ffffffffffffffffffffffffffffffffffffffff1663095ea7b3848460405160240161232d9291906138b2565b604051602081830303815290604052915060e01b6020820180517bffffffffffffffffffffffffffffffffffffffffffffffffffffffff8381831617835250505050905061237b8482612781565b612404576123f9848573ffffffffffffffffffffffffffffffffffffffff1663095ea7b3865f6040516024016123b2929190613b2d565b604051602081830303815290604052915060e01b6020820180517bffffffffffffffffffffffffffffffffffffffffffffffffffffffff8381831617835250505050612840565b6124038482612840565b5b50505050565b5f81670de0b6b3a7640000846124209190613405565b61242a9190613473565b905092915050565b6124ae848573ffffffffffffffffffffffffffffffffffffffff166323b872dd86868660405160240161246793929190613b54565b604051602081830303815290604052915060e01b6020820180517bffffffffffffffffffffffffffffffffffffffffffffffffffffffff8381831617835250505050612840565b50505050565b6124bc6128d5565b73ffffffffffffffffffffffffffffffffffffffff166124da611543565b73ffffffffffffffffffffffffffffffffffffffff1614612539576124fd6128d5565b6040517f118cdaa70000000000000000000000000000000000000000000000000000000081526004016125309190612eae565b60405180910390fd5b565b5f612544612677565b90505f815f015f9054906101000a900473ffffffffffffffffffffffffffffffffffffffff16905082825f015f6101000a81548173ffffffffffffffffffffffffffffffffffffffff021916908373ffffffffffffffffffffffffffffffffffffffff1602179055508273ffffffffffffffffffffffffffffffffffffffff168173ffffffffffffffffffffffffffffffffffffffff167f8be0079c531659141344cd1fd0a4f28419497f9722a3daafe3b4186f6b6457e060405160405180910390a3505050565b5f6126156128dc565b90506002815f015403612654576040517f3ee5aeb500000000000000000000000000000000000000000000000000000000815260040160405180910390fd5b6002815f018190555050565b5f6126696128dc565b90506001815f018190555050565b5f7f9016d09d72d40fdae2fd8ceac6b6234c7706214fd39c1cd1e609a0528c199300905090565b6126a6612903565b6126dc576040517fd7e6bcf800000000000000000000000000000000000000000000000000000000815260040160405180910390fd5b565b6126e661269e565b5f73ffffffffffffffffffffffffffffffffffffffff168173ffffffffffffffffffffffffffffffffffffffff1603612756575f6040517f1e4fbdf700000000000000000000000000000000000000000000000000000000815260040161274d9190612eae565b60405180910390fd5b61275f8161253b565b50565b61276a61269e565b5f6127736128dc565b90506001815f018190555050565b5f805f8473ffffffffffffffffffffffffffffffffffffffff16846040516127a99190613134565b5f604051808303815f865af19150503d805f81146127e2576040519150601f19603f3d011682016040523d82523d5f602084013e6127e7565b606091505b509150915081801561281457505f815114806128135750808060200190518101906128129190613bb3565b5b5b801561283657505f8573ffffffffffffffffffffffffffffffffffffffff163b115b9250505092915050565b5f61286a828473ffffffffffffffffffffffffffffffffffffffff1661292190919063ffffffff16565b90505f81511415801561288e57508080602001905181019061288c9190613bb3565b155b156128d057826040517f5274afe70000000000000000000000000000000000000000000000000000000081526004016128c79190612eae565b60405180910390fd5b505050565b5f33905090565b5f7f9b779b17422d0df92223018b32b4d1fa46e071723d6817e2486d003becc55f00905090565b5f61290c6122b0565b5f0160089054906101000a900460ff16905090565b606061292e83835f612936565b905092915050565b60608147101561297d57306040517fcd7860590000000000000000000000000000000000000000000000000000000081526004016129749190612eae565b60405180910390fd5b5f808573ffffffffffffffffffffffffffffffffffffffff1684866040516129a59190613134565b5f6040518083038185875af1925050503d805f81146129df576040519150601f19603f3d011682016040523d82523d5f602084013e6129e4565b606091505b50915091506129f48683836129ff565b925050509392505050565b606082612a1457612a0f82612a8c565b612a84565b5f8251148015612a3a57505f8473ffffffffffffffffffffffffffffffffffffffff163b145b15612a7c57836040517f9996b315000000000000000000000000000000000000000000000000000000008152600401612a739190612eae565b60405180910390fd5b819050612a85565b5b9392505050565b5f81511115612a9e5780518082602001fd5b6040517f1425ea4200000000000000000000000000000000000000000000000000000000815260040160405180910390fd5b5f73ffffffffffffffffffffffffffffffffffffffff82169050919050565b5f819050919050565b5f612b12612b0d612b0884612ad0565b612aef565b612ad0565b9050919050565b5f612b2382612af8565b9050919050565b5f612b3482612b19565b9050919050565b612b4481612b2a565b82525050565b5f602082019050612b5d5f830184612b3b565b92915050565b5f80fd5b5f612b7182612ad0565b9050919050565b612b8181612b67565b8114612b8b575f80fd5b50565b5f81359050612b9c81612b78565b92915050565b5f819050919050565b612bb481612ba2565b8114612bbe575f80fd5b50565b5f81359050612bcf81612bab565b92915050565b5f805f60608486031215612bec57612beb612b63565b5b5f612bf986828701612b8e565b9350506020612c0a86828701612bc1565b9250506040612c1b86828701612bc1565b9150509250925092565b612c2e81612ba2565b82525050565b5f602082019050612c475f830184612c25565b92915050565b5f608082019050612c605f830187612c25565b612c6d6020830186612c25565b612c7a6040830185612c25565b612c876060830184612c25565b95945050505050565b5f60208284031215612ca557612ca4612b63565b5b5f612cb284828501612b8e565b91505092915050565b5f8115159050919050565b612ccf81612cbb565b82525050565b5f602082019050612ce85f830184612cc6565b92915050565b5f612cf882612b67565b9050919050565b612d0881612cee565b8114612d12575f80fd5b50565b5f81359050612d2381612cff565b92915050565b5f612d3382612b67565b9050919050565b612d4381612d29565b8114612d4d575f80fd5b50565b5f81359050612d5e81612d3a565b92915050565b5f612d6e82612b67565b9050919050565b612d7e81612d64565b8114612d88575f80fd5b50565b5f81359050612d9981612d75565b92915050565b5f805f805f8060c08789031215612db957612db8612b63565b5b5f612dc689828a01612d15565b9650506020612dd789828a01612d50565b9550506040612de889828a01612d8b565b9450506060612df989828a01612bc1565b9350506080612e0a89828a01612b8e565b92505060a0612e1b89828a01612b8e565b9150509295509295509295565b5f8060408385031215612e3e57612e3d612b63565b5b5f612e4b85828601612bc1565b9250506020612e5c85828601612bc1565b9150509250929050565b5f612e7082612b19565b9050919050565b612e8081612e66565b82525050565b5f602082019050612e995f830184612e77565b92915050565b612ea881612b67565b82525050565b5f602082019050612ec15f830184612e9f565b92915050565b5f63ffffffff82169050919050565b612edf81612ec7565b82525050565b5f6bffffffffffffffffffffffff82169050919050565b612f0581612ee5565b82525050565b5f606082019050612f1e5f830186612ed6565b612f2b6020830185612ed6565b612f386040830184612efc565b949350505050565b5f60208284031215612f5557612f54612b63565b5b5f612f6284828501612bc1565b91505092915050565b5f612f7582612b19565b9050919050565b612f8581612f6b565b82525050565b5f602082019050612f9e5f830184612f7c565b92915050565b5f606082019050612fb75f830186612e9f565b612fc46020830185612c25565b612fd16040830184612c25565b949350505050565b5f81519050612fe781612bab565b92915050565b5f6020828403121561300257613001612b63565b5b5f61300f84828501612fd9565b91505092915050565b5f8160601b9050919050565b5f61302e82613018565b9050919050565b5f61303f82613024565b9050919050565b61305761305282612b67565b613035565b82525050565b5f81519050919050565b5f81905092915050565b5f5b8381101561308e578082015181840152602081019050613073565b5f8484015250505050565b5f6130a38261305d565b6130ad8185613067565b93506130bd818560208601613071565b80840191505092915050565b5f6130d48285613046565b6014820191506130e48284613099565b91508190509392505050565b5f81519050919050565b5f81905092915050565b5f61310e826130f0565b61311881856130fa565b9350613128818560208601613071565b80840191505092915050565b5f61313f8284613104565b915081905092915050565b5f82825260208201905092915050565b7f76654141484d616e616765723a206765742061737065637420636f6e746563745f8201527f206572726f720000000000000000000000000000000000000000000000000000602082015250565b5f6131b460268361314a565b91506131bf8261315a565b604082019050919050565b5f6020820190508181035f8301526131e1816131a8565b9050919050565b7f76654141484d616e616765723a2053746172742074696d65206d7573742062655f8201527f2067726561746572207468616e2074686520626c6f636b2074696d657374616d60208201527f7000000000000000000000000000000000000000000000000000000000000000604082015250565b5f61326860418361314a565b9150613273826131e8565b606082019050919050565b5f6020820190508181035f8301526132958161325c565b9050919050565b5f819050919050565b5f67ffffffffffffffff82169050919050565b5f6132d26132cd6132c88461329c565b612aef565b6132a5565b9050919050565b6132e2816132b8565b82525050565b5f6020820190506132fb5f8301846132d9565b92915050565b7f4e487b71000000000000000000000000000000000000000000000000000000005f52601160045260245ffd5b5f61333882612ba2565b915061334383612ba2565b925082820390508181111561335b5761335a613301565b5b92915050565b61336a81612ec7565b8114613374575f80fd5b50565b5f8151905061338581613361565b92915050565b61339481612ee5565b811461339e575f80fd5b50565b5f815190506133af8161338b565b92915050565b5f805f606084860312156133cc576133cb612b63565b5b5f6133d986828701613377565b93505060206133ea86828701613377565b92505060406133fb868287016133a1565b9150509250925092565b5f61340f82612ba2565b915061341a83612ba2565b925082820261342881612ba2565b9150828204841483151761343f5761343e613301565b5b5092915050565b7f4e487b71000000000000000000000000000000000000000000000000000000005f52601260045260245ffd5b5f61347d82612ba2565b915061348883612ba2565b92508261349857613497613446565b5b828204905092915050565b7f76654141484d616e616765723a205374616b6520616d6f756e742063616e206e5f8201527f6f74206265207a65726f21000000000000000000000000000000000000000000602082015250565b5f6134fd602b8361314a565b9150613508826134a3565b604082019050919050565b5f6020820190508181035f83015261352a816134f1565b9050919050565b7f76654141484d616e616765723a204475652074696d65206d75737420626520675f8201527f726561746572207468616e207468652063757272656e742074696d6500000000602082015250565b5f61358b603c8361314a565b915061359682613531565b604082019050919050565b5f6020820190508181035f8301526135b88161357f565b9050919050565b5f6135c982612ba2565b91506135d483612ba2565b9250826135e4576135e3613446565b5b828206905092915050565b7f76654141484d616e616765723a20546865206d696e696d756d207374657020735f8201527f697a65206d75737420626520604d494e5f535445506000000000000000000000602082015250565b5f61364960368361314a565b9150613654826135ef565b604082019050919050565b5f6020820190508181035f8301526136768161363d565b9050919050565b5f6020828403121561369257613691612b63565b5b5f61369f848285016133a1565b91505092915050565b5f819050919050565b6136c26136bd82612ba2565b6136a8565b82525050565b7f2c000000000000000000000000000000000000000000000000000000000000005f82015250565b5f6136fc600183613067565b9150613707826136c8565b600182019050919050565b5f61371d82856136b1565b60208201915061372c826136f0565b915061373882846136b1565b6020820191508190509392505050565b5f601f19601f8301169050919050565b5f6137628261305d565b61376c818561314a565b935061377c818560208601613071565b61378581613748565b840191505092915050565b5f6040820190508181035f8301526137a88185613758565b905081810360208301526137bc8184613758565b90509392505050565b7f76654141484d616e616765723a2073656e642061737065637420636f6e7465635f8201527f74206572726f7200000000000000000000000000000000000000000000000000602082015250565b5f61381f60278361314a565b915061382a826137c5565b604082019050919050565b5f6020820190508181035f83015261384c81613813565b9050919050565b5f60c0820190506138665f830189612e9f565b6138736020830188612c25565b6138806040830187612c25565b61388d6060830186612c25565b61389a6080830185612c25565b6138a760a0830184612c25565b979650505050505050565b5f6040820190506138c55f830185612e9f565b6138d26020830184612c25565b9392505050565b5f8160e01b9050919050565b5f6138ef826138d9565b9050919050565b61390761390282612ec7565b6138e5565b82525050565b5f61391882866136b1565b602082019150613927826136f0565b915061393382856136b1565b602082019150613942826136f0565b915061394e82846138f6565b600482019150819050949350505050565b5f61397961397461396f84612ec7565b612aef565b612ba2565b9050919050565b6139898161395f565b82525050565b5f60a0820190506139a25f830188612e9f565b6139af6020830187613980565b6139bc6040830186612c25565b6139c96060830185612c25565b6139d66080830184612c25565b9695505050505050565b5f6080820190506139f35f830187612e9f565b613a006020830186612c25565b613a0d6040830185612c25565b613a1a6060830184612c25565b95945050505050565b5f613a2e82856138f6565b600482019150613a3d826136f0565b9150613a4982846136b1565b6020820191508190509392505050565b5f613a6382612ba2565b9150613a6e83612ba2565b9250828201905080821115613a8657613a85613301565b5b92915050565b7f746f55696e743235365f6f75744f66426f756e647300000000000000000000005f82015250565b5f613ac060158361314a565b9150613acb82613a8c565b602082019050919050565b5f6020820190508181035f830152613aed81613ab4565b9050919050565b5f819050919050565b5f613b17613b12613b0d84613af4565b612aef565b612ba2565b9050919050565b613b2781613afd565b82525050565b5f604082019050613b405f830185612e9f565b613b4d6020830184613b1e565b9392505050565b5f606082019050613b675f830186612e9f565b613b746020830185612e9f565b613b816040830184612c25565b949350505050565b613b9281612cbb565b8114613b9c575f80fd5b50565b5f81519050613bad81613b89565b92915050565b5f60208284031215613bc857613bc7612b63565b5b5f613bd584828501613b9f565b9150509291505056fea26469706673582212202918d9b888e3379f62161637f3966963df6bd90a00e748828de95933c110020a64736f6c63430008140033",
			"opcodes": "PUSH1 0x80 PUSH1 0x40 MSTORE PUSH0 PUSH1 0x7 SSTORE CALLVALUE DUP1 ISZERO PUSH2 0x13 JUMPI PUSH0 DUP1 REVERT JUMPDEST POP PUSH2 0x3C14 DUP1 PUSH2 0x21 PUSH0 CODECOPY PUSH0 RETURN INVALID PUSH1 0x80 PUSH1 0x40 MSTORE CALLVALUE DUP1 ISZERO PUSH2 0xF JUMPI PUSH0 DUP1 REVERT JUMPDEST POP PUSH1 0x4 CALLDATASIZE LT PUSH2 0x156 JUMPI PUSH0 CALLDATALOAD PUSH1 0xE0 SHR DUP1 PUSH4 0x7B0A47EE GT PUSH2 0xC1 JUMPI DUP1 PUSH4 0xACC2166A GT PUSH2 0x7A JUMPI DUP1 PUSH4 0xACC2166A EQ PUSH2 0x3A5 JUMPI DUP1 PUSH4 0xCA9D07BA EQ PUSH2 0x3C3 JUMPI DUP1 PUSH4 0xE9FAD8EE EQ PUSH2 0x3DF JUMPI DUP1 PUSH4 0xF2FDE38B EQ PUSH2 0x3E9 JUMPI DUP1 PUSH4 0xF7C618C1 EQ PUSH2 0x405 JUMPI DUP1 PUSH4 0xFC799EBE EQ PUSH2 0x423 JUMPI PUSH2 0x156 JUMP JUMPDEST DUP1 PUSH4 0x7B0A47EE EQ PUSH2 0x2E1 JUMPI DUP1 PUSH4 0x845E5182 EQ PUSH2 0x2FF JUMPI DUP1 PUSH4 0x8DA5CB5B EQ PUSH2 0x31D JUMPI DUP1 PUSH4 0x919884BF EQ PUSH2 0x33B JUMPI DUP1 PUSH4 0x9714378C EQ PUSH2 0x36D JUMPI DUP1 PUSH4 0x9F7B4579 EQ PUSH2 0x389 JUMPI PUSH2 0x156 JUMP JUMPDEST DUP1 PUSH4 0x3CDAFD19 GT PUSH2 0x113 JUMPI DUP1 PUSH4 0x3CDAFD19 EQ PUSH2 0x233 JUMPI DUP1 PUSH4 0x3D18B912 EQ PUSH2 0x263 JUMPI DUP1 PUSH4 0x70A08231 EQ PUSH2 0x26D JUMPI DUP1 PUSH4 0x715018A6 EQ PUSH2 0x29D JUMPI DUP1 PUSH4 0x754ECC26 EQ PUSH2 0x2A7 JUMPI DUP1 PUSH4 0x78E97925 EQ PUSH2 0x2C3 JUMPI PUSH2 0x156 JUMP JUMPDEST DUP1 PUSH4 0xDAD4325 EQ PUSH2 0x15A JUMPI DUP1 PUSH4 0xE67940F EQ PUSH2 0x178 JUMPI DUP1 PUSH4 0x18160DDD EQ PUSH2 0x1A8 JUMPI DUP1 PUSH4 0x25C2AAA0 EQ PUSH2 0x1C6 JUMPI DUP1 PUSH4 0x2F54BF6E EQ PUSH2 0x1E7 JUMPI DUP1 PUSH4 0x32B5A1B3 EQ PUSH2 0x217 JUMPI JUMPDEST PUSH0 DUP1 REVERT JUMPDEST PUSH2 0x162 PUSH2 0x441 JUMP JUMPDEST PUSH1 0x40 MLOAD PUSH2 0x16F SWAP2 SWAP1 PUSH2 0x2B4A JUMP JUMPDEST PUSH1 0x40 MLOAD DUP1 SWAP2 SUB SWAP1 RETURN JUMPDEST PUSH2 0x192 PUSH1 0x4 DUP1 CALLDATASIZE SUB DUP2 ADD SWAP1 PUSH2 0x18D SWAP2 SWAP1 PUSH2 0x2BD5 JUMP JUMPDEST PUSH2 0x464 JUMP JUMPDEST PUSH1 0x40 MLOAD PUSH2 0x19F SWAP2 SWAP1 PUSH2 0x2C34 JUMP JUMPDEST PUSH1 0x40 MLOAD DUP1 SWAP2 SUB SWAP1 RETURN JUMPDEST PUSH2 0x1B0 PUSH2 0x50A JUMP JUMPDEST PUSH1 0x40 MLOAD PUSH2 0x1BD SWAP2 SWAP1 PUSH2 0x2C34 JUMP JUMPDEST PUSH1 0x40 MLOAD DUP1 SWAP2 SUB SWAP1 RETURN JUMPDEST PUSH2 0x1CE PUSH2 0x510 JUMP JUMPDEST PUSH1 0x40 MLOAD PUSH2 0x1DE SWAP5 SWAP4 SWAP3 SWAP2 SWAP1 PUSH2 0x2C4D JUMP JUMPDEST PUSH1 0x40 MLOAD DUP1 SWAP2 SUB SWAP1 RETURN JUMPDEST PUSH2 0x201 PUSH1 0x4 DUP1 CALLDATASIZE SUB DUP2 ADD SWAP1 PUSH2 0x1FC SWAP2 SWAP1 PUSH2 0x2C90 JUMP JUMPDEST PUSH2 0x7A6 JUMP JUMPDEST PUSH1 0x40 MLOAD PUSH2 0x20E SWAP2 SWAP1 PUSH2 0x2CD5 JUMP JUMPDEST PUSH1 0x40 MLOAD DUP1 SWAP2 SUB SWAP1 RETURN JUMPDEST PUSH2 0x231 PUSH1 0x4 DUP1 CALLDATASIZE SUB DUP2 ADD SWAP1 PUSH2 0x22C SWAP2 SWAP1 PUSH2 0x2D9F JUMP JUMPDEST PUSH2 0x7E4 JUMP JUMPDEST STOP JUMPDEST PUSH2 0x24D PUSH1 0x4 DUP1 CALLDATASIZE SUB DUP2 ADD SWAP1 PUSH2 0x248 SWAP2 SWAP1 PUSH2 0x2C90 JUMP JUMPDEST PUSH2 0xB85 JUMP JUMPDEST PUSH1 0x40 MLOAD PUSH2 0x25A SWAP2 SWAP1 PUSH2 0x2C34 JUMP JUMPDEST PUSH1 0x40 MLOAD DUP1 SWAP2 SUB SWAP1 RETURN JUMPDEST PUSH2 0x26B PUSH2 0xE46 JUMP JUMPDEST STOP JUMPDEST PUSH2 0x287 PUSH1 0x4 DUP1 CALLDATASIZE SUB DUP2 ADD SWAP1 PUSH2 0x282 SWAP2 SWAP1 PUSH2 0x2C90 JUMP JUMPDEST PUSH2 0x104A JUMP JUMPDEST PUSH1 0x40 MLOAD PUSH2 0x294 SWAP2 SWAP1 PUSH2 0x2C34 JUMP JUMPDEST PUSH1 0x40 MLOAD DUP1 SWAP2 SUB SWAP1 RETURN JUMPDEST PUSH2 0x2A5 PUSH2 0x1090 JUMP JUMPDEST STOP JUMPDEST PUSH2 0x2C1 PUSH1 0x4 DUP1 CALLDATASIZE SUB DUP2 ADD SWAP1 PUSH2 0x2BC SWAP2 SWAP1 PUSH2 0x2E28 JUMP JUMPDEST PUSH2 0x10A3 JUMP JUMPDEST STOP JUMPDEST PUSH2 0x2CB PUSH2 0x1512 JUMP JUMPDEST PUSH1 0x40 MLOAD PUSH2 0x2D8 SWAP2 SWAP1 PUSH2 0x2C34 JUMP JUMPDEST PUSH1 0x40 MLOAD DUP1 SWAP2 SUB SWAP1 RETURN JUMPDEST PUSH2 0x2E9 PUSH2 0x1518 JUMP JUMPDEST PUSH1 0x40 MLOAD PUSH2 0x2F6 SWAP2 SWAP1 PUSH2 0x2C34 JUMP JUMPDEST PUSH1 0x40 MLOAD DUP1 SWAP2 SUB SWAP1 RETURN JUMPDEST PUSH2 0x307 PUSH2 0x151E JUMP JUMPDEST PUSH1 0x40 MLOAD PUSH2 0x314 SWAP2 SWAP1 PUSH2 0x2E86 JUMP JUMPDEST PUSH1 0x40 MLOAD DUP1 SWAP2 SUB SWAP1 RETURN JUMPDEST PUSH2 0x325 PUSH2 0x1543 JUMP JUMPDEST PUSH1 0x40 MLOAD PUSH2 0x332 SWAP2 SWAP1 PUSH2 0x2EAE JUMP JUMPDEST PUSH1 0x40 MLOAD DUP1 SWAP2 SUB SWAP1 RETURN JUMPDEST PUSH2 0x355 PUSH1 0x4 DUP1 CALLDATASIZE SUB DUP2 ADD SWAP1 PUSH2 0x350 SWAP2 SWAP1 PUSH2 0x2C90 JUMP JUMPDEST PUSH2 0x1578 JUMP JUMPDEST PUSH1 0x40 MLOAD PUSH2 0x364 SWAP4 SWAP3 SWAP2 SWAP1 PUSH2 0x2F0B JUMP JUMPDEST PUSH1 0x40 MLOAD DUP1 SWAP2 SUB SWAP1 RETURN JUMPDEST PUSH2 0x387 PUSH1 0x4 DUP1 CALLDATASIZE SUB DUP2 ADD SWAP1 PUSH2 0x382 SWAP2 SWAP1 PUSH2 0x2F40 JUMP JUMPDEST PUSH2 0x1620 JUMP JUMPDEST STOP JUMPDEST PUSH2 0x3A3 PUSH1 0x4 DUP1 CALLDATASIZE SUB DUP2 ADD SWAP1 PUSH2 0x39E SWAP2 SWAP1 PUSH2 0x2E28 JUMP JUMPDEST PUSH2 0x198C JUMP JUMPDEST STOP JUMPDEST PUSH2 0x3AD PUSH2 0x1CE5 JUMP JUMPDEST PUSH1 0x40 MLOAD PUSH2 0x3BA SWAP2 SWAP1 PUSH2 0x2EAE JUMP JUMPDEST PUSH1 0x40 MLOAD DUP1 SWAP2 SUB SWAP1 RETURN JUMPDEST PUSH2 0x3DD PUSH1 0x4 DUP1 CALLDATASIZE SUB DUP2 ADD SWAP1 PUSH2 0x3D8 SWAP2 SWAP1 PUSH2 0x2F40 JUMP JUMPDEST PUSH2 0x1D0A JUMP JUMPDEST STOP JUMPDEST PUSH2 0x3E7 PUSH2 0x204B JUMP JUMPDEST STOP JUMPDEST PUSH2 0x403 PUSH1 0x4 DUP1 CALLDATASIZE SUB DUP2 ADD SWAP1 PUSH2 0x3FE SWAP2 SWAP1 PUSH2 0x2C90 JUMP JUMPDEST PUSH2 0x217D JUMP JUMPDEST STOP JUMPDEST PUSH2 0x40D PUSH2 0x2201 JUMP JUMPDEST PUSH1 0x40 MLOAD PUSH2 0x41A SWAP2 SWAP1 PUSH2 0x2F8B JUMP JUMPDEST PUSH1 0x40 MLOAD DUP1 SWAP2 SUB SWAP1 RETURN JUMPDEST PUSH2 0x42B PUSH2 0x2226 JUMP JUMPDEST PUSH1 0x40 MLOAD PUSH2 0x438 SWAP2 SWAP1 PUSH2 0x2EAE JUMP JUMPDEST PUSH1 0x40 MLOAD DUP1 SWAP2 SUB SWAP1 RETURN JUMPDEST PUSH0 DUP1 SLOAD SWAP1 PUSH2 0x100 EXP SWAP1 DIV PUSH20 0xFFFFFFFFFFFFFFFFFFFFFFFFFFFFFFFFFFFFFFFF AND DUP2 JUMP JUMPDEST PUSH0 DUP1 PUSH0 SWAP1 SLOAD SWAP1 PUSH2 0x100 EXP SWAP1 DIV PUSH20 0xFFFFFFFFFFFFFFFFFFFFFFFFFFFFFFFFFFFFFFFF AND PUSH20 0xFFFFFFFFFFFFFFFFFFFFFFFFFFFFFFFFFFFFFFFF AND PUSH4 0xE67940F DUP6 DUP6 DUP6 PUSH1 0x40 MLOAD DUP5 PUSH4 0xFFFFFFFF AND PUSH1 0xE0 SHL DUP2 MSTORE PUSH1 0x4 ADD PUSH2 0x4C2 SWAP4 SWAP3 SWAP2 SWAP1 PUSH2 0x2FA4 JUMP JUMPDEST PUSH1 0x20 PUSH1 0x40 MLOAD DUP1 DUP4 SUB DUP2 DUP7 GAS STATICCALL ISZERO DUP1 ISZERO PUSH2 0x4DD JUMPI RETURNDATASIZE PUSH0 DUP1 RETURNDATACOPY RETURNDATASIZE PUSH0 REVERT JUMPDEST POP POP POP POP PUSH1 0x40 MLOAD RETURNDATASIZE PUSH1 0x1F NOT PUSH1 0x1F DUP3 ADD AND DUP3 ADD DUP1 PUSH1 0x40 MSTORE POP DUP2 ADD SWAP1 PUSH2 0x501 SWAP2 SWAP1 PUSH2 0x2FED JUMP JUMPDEST SWAP1 POP SWAP4 SWAP3 POP POP POP JUMP JUMPDEST PUSH1 0x1 SLOAD DUP2 JUMP JUMPDEST PUSH0 DUP1 PUSH0 DUP1 PUSH0 DUP1 PUSH1 0x64 PUSH20 0xFFFFFFFFFFFFFFFFFFFFFFFFFFFFFFFFFFFFFFFF AND PUSH1 0x3 PUSH0 SWAP1 SLOAD SWAP1 PUSH2 0x100 EXP SWAP1 DIV PUSH20 0xFFFFFFFFFFFFFFFFFFFFFFFFFFFFFFFFFFFFFFFF AND PUSH1 0x40 MLOAD DUP1 PUSH1 0x40 ADD PUSH1 0x40 MSTORE DUP1 PUSH1 0x11 DUP2 MSTORE PUSH1 0x20 ADD PUSH32 0x616363536574746C656442616C616E6365000000000000000000000000000000 DUP2 MSTORE POP PUSH1 0x40 MLOAD PUSH1 0x20 ADD PUSH2 0x597 SWAP3 SWAP2 SWAP1 PUSH2 0x30C9 JUMP JUMPDEST PUSH1 0x40 MLOAD PUSH1 0x20 DUP2 DUP4 SUB SUB DUP2 MSTORE SWAP1 PUSH1 0x40 MSTORE PUSH1 0x40 MLOAD PUSH2 0x5B3 SWAP2 SWAP1 PUSH2 0x3134 JUMP JUMPDEST PUSH0 PUSH1 0x40 MLOAD DUP1 DUP4 SUB DUP2 PUSH0 DUP7 GAS CALL SWAP2 POP POP RETURNDATASIZE DUP1 PUSH0 DUP2 EQ PUSH2 0x5EC JUMPI PUSH1 0x40 MLOAD SWAP2 POP PUSH1 0x1F NOT PUSH1 0x3F RETURNDATASIZE ADD AND DUP3 ADD PUSH1 0x40 MSTORE RETURNDATASIZE DUP3 MSTORE RETURNDATASIZE PUSH0 PUSH1 0x20 DUP5 ADD RETURNDATACOPY PUSH2 0x5F1 JUMP JUMPDEST PUSH1 0x60 SWAP2 POP JUMPDEST POP SWAP2 POP SWAP2 POP DUP2 PUSH2 0x636 JUMPI PUSH1 0x40 MLOAD PUSH32 0x8C379A000000000000000000000000000000000000000000000000000000000 DUP2 MSTORE PUSH1 0x4 ADD PUSH2 0x62D SWAP1 PUSH2 0x31CA JUMP JUMPDEST PUSH1 0x40 MLOAD DUP1 SWAP2 SUB SWAP1 REVERT JUMPDEST PUSH0 PUSH2 0x64B PUSH1 0x1 DUP4 PUSH2 0x224B SWAP1 SWAP2 SWAP1 PUSH4 0xFFFFFFFF AND JUMP JUMPDEST SWAP1 POP PUSH0 DUP1 SLOAD SWAP1 PUSH2 0x100 EXP SWAP1 DIV PUSH20 0xFFFFFFFFFFFFFFFFFFFFFFFFFFFFFFFFFFFFFFFF AND PUSH20 0xFFFFFFFFFFFFFFFFFFFFFFFFFFFFFFFFFFFFFFFF AND PUSH4 0x18160DDD PUSH1 0x40 MLOAD DUP2 PUSH4 0xFFFFFFFF AND PUSH1 0xE0 SHL DUP2 MSTORE PUSH1 0x4 ADD PUSH1 0x20 PUSH1 0x40 MLOAD DUP1 DUP4 SUB DUP2 DUP7 GAS STATICCALL ISZERO DUP1 ISZERO PUSH2 0x6B5 JUMPI RETURNDATASIZE PUSH0 DUP1 RETURNDATACOPY RETURNDATASIZE PUSH0 REVERT JUMPDEST POP POP POP POP PUSH1 0x40 MLOAD RETURNDATASIZE PUSH1 0x1F NOT PUSH1 0x1F DUP3 ADD AND DUP3 ADD DUP1 PUSH1 0x40 MSTORE POP DUP2 ADD SWAP1 PUSH2 0x6D9 SWAP2 SWAP1 PUSH2 0x2FED JUMP JUMPDEST PUSH1 0x5 PUSH0 SWAP1 SLOAD SWAP1 PUSH2 0x100 EXP SWAP1 DIV PUSH20 0xFFFFFFFFFFFFFFFFFFFFFFFFFFFFFFFFFFFFFFFF AND PUSH20 0xFFFFFFFFFFFFFFFFFFFFFFFFFFFFFFFFFFFFFFFF AND PUSH4 0x70A08231 PUSH0 DUP1 SLOAD SWAP1 PUSH2 0x100 EXP SWAP1 DIV PUSH20 0xFFFFFFFFFFFFFFFFFFFFFFFFFFFFFFFFFFFFFFFF AND PUSH1 0x40 MLOAD DUP3 PUSH4 0xFFFFFFFF AND PUSH1 0xE0 SHL DUP2 MSTORE PUSH1 0x4 ADD PUSH2 0x752 SWAP2 SWAP1 PUSH2 0x2EAE JUMP JUMPDEST PUSH1 0x20 PUSH1 0x40 MLOAD DUP1 DUP4 SUB DUP2 DUP7 GAS STATICCALL ISZERO DUP1 ISZERO PUSH2 0x76D JUMPI RETURNDATASIZE PUSH0 DUP1 RETURNDATACOPY RETURNDATASIZE PUSH0 REVERT JUMPDEST POP POP POP POP PUSH1 0x40 MLOAD RETURNDATASIZE PUSH1 0x1F NOT PUSH1 0x1F DUP3 ADD AND DUP3 ADD DUP1 PUSH1 0x40 MSTORE POP DUP2 ADD SWAP1 PUSH2 0x791 SWAP2 SWAP1 PUSH2 0x2FED JUMP JUMPDEST DUP3 PUSH1 0x7 SLOAD SWAP7 POP SWAP7 POP SWAP7 POP SWAP7 POP POP POP POP SWAP1 SWAP2 SWAP3 SWAP4 JUMP JUMPDEST PUSH0 PUSH2 0x7AF PUSH2 0x1543 JUMP JUMPDEST PUSH20 0xFFFFFFFFFFFFFFFFFFFFFFFFFFFFFFFFFFFFFFFF AND DUP3 PUSH20 0xFFFFFFFFFFFFFFFFFFFFFFFFFFFFFFFFFFFFFFFF AND EQ SWAP1 POP SWAP2 SWAP1 POP JUMP JUMPDEST PUSH0 PUSH2 0x7ED PUSH2 0x22B0 JUMP JUMPDEST SWAP1 POP PUSH0 DUP2 PUSH0 ADD PUSH1 0x8 SWAP1 SLOAD SWAP1 PUSH2 0x100 EXP SWAP1 DIV PUSH1 0xFF AND ISZERO SWAP1 POP PUSH0 DUP3 PUSH0 ADD PUSH0 SWAP1 SLOAD SWAP1 PUSH2 0x100 EXP SWAP1 DIV PUSH8 0xFFFFFFFFFFFFFFFF AND SWAP1 POP PUSH0 DUP1 DUP3 PUSH8 0xFFFFFFFFFFFFFFFF AND EQ DUP1 ISZERO PUSH2 0x835 JUMPI POP DUP3 JUMPDEST SWAP1 POP PUSH0 PUSH1 0x1 DUP4 PUSH8 0xFFFFFFFFFFFFFFFF AND EQ DUP1 ISZERO PUSH2 0x868 JUMPI POP PUSH0 ADDRESS PUSH20 0xFFFFFFFFFFFFFFFFFFFFFFFFFFFFFFFFFFFFFFFF AND EXTCODESIZE EQ JUMPDEST SWAP1 POP DUP2 ISZERO DUP1 ISZERO PUSH2 0x876 JUMPI POP DUP1 ISZERO JUMPDEST ISZERO PUSH2 0x8AD JUMPI PUSH1 0x40 MLOAD PUSH32 0xF92EE8A900000000000000000000000000000000000000000000000000000000 DUP2 MSTORE PUSH1 0x4 ADD PUSH1 0x40 MLOAD DUP1 SWAP2 SUB SWAP1 REVERT JUMPDEST PUSH1 0x1 DUP6 PUSH0 ADD PUSH0 PUSH2 0x100 EXP DUP2 SLOAD DUP2 PUSH8 0xFFFFFFFFFFFFFFFF MUL NOT AND SWAP1 DUP4 PUSH8 0xFFFFFFFFFFFFFFFF AND MUL OR SWAP1 SSTORE POP DUP4 ISZERO PUSH2 0x8FA JUMPI PUSH1 0x1 DUP6 PUSH0 ADD PUSH1 0x8 PUSH2 0x100 EXP DUP2 SLOAD DUP2 PUSH1 0xFF MUL NOT AND SWAP1 DUP4 ISZERO ISZERO MUL OR SWAP1 SSTORE POP JUMPDEST TIMESTAMP DUP9 GT PUSH2 0x93C JUMPI PUSH1 0x40 MLOAD PUSH32 0x8C379A000000000000000000000000000000000000000000000000000000000 DUP2 MSTORE PUSH1 0x4 ADD PUSH2 0x933 SWAP1 PUSH2 0x327E JUMP JUMPDEST PUSH1 0x40 MLOAD DUP1 SWAP2 SUB SWAP1 REVERT JUMPDEST PUSH2 0x945 CALLER PUSH2 0x22D7 JUMP JUMPDEST PUSH2 0x94D PUSH2 0x22EB JUMP JUMPDEST DUP11 PUSH0 DUP1 PUSH2 0x100 EXP DUP2 SLOAD DUP2 PUSH20 0xFFFFFFFFFFFFFFFFFFFFFFFFFFFFFFFFFFFFFFFF MUL NOT AND SWAP1 DUP4 PUSH20 0xFFFFFFFFFFFFFFFFFFFFFFFFFFFFFFFFFFFFFFFF AND MUL OR SWAP1 SSTORE POP DUP10 PUSH1 0x5 PUSH0 PUSH2 0x100 EXP DUP2 SLOAD DUP2 PUSH20 0xFFFFFFFFFFFFFFFFFFFFFFFFFFFFFFFFFFFFFFFF MUL NOT AND SWAP1 DUP4 PUSH20 0xFFFFFFFFFFFFFFFFFFFFFFFFFFFFFFFFFFFFFFFF AND MUL OR SWAP1 SSTORE POP DUP9 PUSH1 0x4 PUSH0 PUSH2 0x100 EXP DUP2 SLOAD DUP2 PUSH20 0xFFFFFFFFFFFFFFFFFFFFFFFFFFFFFFFFFFFFFFFF MUL NOT AND SWAP1 DUP4 PUSH20 0xFFFFFFFFFFFFFFFFFFFFFFFFFFFFFFFFFFFFFFFF AND MUL OR SWAP1 SSTORE POP DUP8 PUSH1 0x8 DUP2 SWAP1 SSTORE POP DUP7 PUSH1 0x6 PUSH0 PUSH2 0x100 EXP DUP2 SLOAD DUP2 PUSH20 0xFFFFFFFFFFFFFFFFFFFFFFFFFFFFFFFFFFFFFFFF MUL NOT AND SWAP1 DUP4 PUSH20 0xFFFFFFFFFFFFFFFFFFFFFFFFFFFFFFFFFFFFFFFF AND MUL OR SWAP1 SSTORE POP DUP6 PUSH1 0x3 PUSH0 PUSH2 0x100 EXP DUP2 SLOAD DUP2 PUSH20 0xFFFFFFFFFFFFFFFFFFFFFFFFFFFFFFFFFFFFFFFF MUL NOT AND SWAP1 DUP4 PUSH20 0xFFFFFFFFFFFFFFFFFFFFFFFFFFFFFFFFFFFFFFFF AND MUL OR SWAP1 SSTORE POP PUSH2 0xB1E PUSH0 DUP1 SLOAD SWAP1 PUSH2 0x100 EXP SWAP1 DIV PUSH20 0xFFFFFFFFFFFFFFFFFFFFFFFFFFFFFFFFFFFFFFFF AND PUSH32 0xFFFFFFFFFFFFFFFFFFFFFFFFFFFFFFFFFFFFFFFFFFFFFFFFFFFFFFFFFFFFFFFF PUSH1 0x5 PUSH0 SWAP1 SLOAD SWAP1 PUSH2 0x100 EXP SWAP1 DIV PUSH20 0xFFFFFFFFFFFFFFFFFFFFFFFFFFFFFFFFFFFFFFFF AND PUSH20 0xFFFFFFFFFFFFFFFFFFFFFFFFFFFFFFFFFFFFFFFF AND PUSH2 0x22FD SWAP1 SWAP3 SWAP2 SWAP1 PUSH4 0xFFFFFFFF AND JUMP JUMPDEST DUP4 ISZERO PUSH2 0xB78 JUMPI PUSH0 DUP6 PUSH0 ADD PUSH1 0x8 PUSH2 0x100 EXP DUP2 SLOAD DUP2 PUSH1 0xFF MUL NOT AND SWAP1 DUP4 ISZERO ISZERO MUL OR SWAP1 SSTORE POP PUSH32 0xC7F505B2F371AE2175EE4913F4499E1F2633A7B5936321EED1CDAEB6115181D2 PUSH1 0x1 PUSH1 0x40 MLOAD PUSH2 0xB6F SWAP2 SWAP1 PUSH2 0x32E8 JUMP JUMPDEST PUSH1 0x40 MLOAD DUP1 SWAP2 SUB SWAP1 LOG1 JUMPDEST POP POP POP POP POP POP POP POP POP POP POP JUMP JUMPDEST PUSH0 DUP1 PUSH0 PUSH1 0x64 PUSH20 0xFFFFFFFFFFFFFFFFFFFFFFFFFFFFFFFFFFFFFFFF AND PUSH1 0x3 PUSH0 SWAP1 SLOAD SWAP1 PUSH2 0x100 EXP SWAP1 DIV PUSH20 0xFFFFFFFFFFFFFFFFFFFFFFFFFFFFFFFFFFFFFFFF AND PUSH1 0x40 MLOAD DUP1 PUSH1 0x40 ADD PUSH1 0x40 MSTORE DUP1 PUSH1 0x11 DUP2 MSTORE PUSH1 0x20 ADD PUSH32 0x616363536574746C656442616C616E6365000000000000000000000000000000 DUP2 MSTORE POP PUSH1 0x40 MLOAD PUSH1 0x20 ADD PUSH2 0xC09 SWAP3 SWAP2 SWAP1 PUSH2 0x30C9 JUMP JUMPDEST PUSH1 0x40 MLOAD PUSH1 0x20 DUP2 DUP4 SUB SUB DUP2 MSTORE SWAP1 PUSH1 0x40 MSTORE PUSH1 0x40 MLOAD PUSH2 0xC25 SWAP2 SWAP1 PUSH2 0x3134 JUMP JUMPDEST PUSH0 PUSH1 0x40 MLOAD DUP1 DUP4 SUB DUP2 PUSH0 DUP7 GAS CALL SWAP2 POP POP RETURNDATASIZE DUP1 PUSH0 DUP2 EQ PUSH2 0xC5E JUMPI PUSH1 0x40 MLOAD SWAP2 POP PUSH1 0x1F NOT PUSH1 0x3F RETURNDATASIZE ADD AND DUP3 ADD PUSH1 0x40 MSTORE RETURNDATASIZE DUP3 MSTORE RETURNDATASIZE PUSH0 PUSH1 0x20 DUP5 ADD RETURNDATACOPY PUSH2 0xC63 JUMP JUMPDEST PUSH1 0x60 SWAP2 POP JUMPDEST POP SWAP2 POP SWAP2 POP DUP2 PUSH2 0xCA8 JUMPI PUSH1 0x40 MLOAD PUSH32 0x8C379A000000000000000000000000000000000000000000000000000000000 DUP2 MSTORE PUSH1 0x4 ADD PUSH2 0xC9F SWAP1 PUSH2 0x31CA JUMP JUMPDEST PUSH1 0x40 MLOAD DUP1 SWAP2 SUB SWAP1 REVERT JUMPDEST PUSH0 PUSH2 0xCBD PUSH1 0x1 DUP4 PUSH2 0x224B SWAP1 SWAP2 SWAP1 PUSH4 0xFFFFFFFF AND JUMP JUMPDEST SWAP1 POP PUSH0 DUP2 PUSH1 0x1 SLOAD PUSH2 0xCCE SWAP2 SWAP1 PUSH2 0x332E JUMP JUMPDEST SWAP1 POP PUSH0 DUP2 SUB PUSH2 0xCE3 JUMPI PUSH0 SWAP5 POP POP POP POP POP PUSH2 0xE41 JUMP JUMPDEST PUSH0 DUP1 PUSH0 DUP1 SLOAD SWAP1 PUSH2 0x100 EXP SWAP1 DIV PUSH20 0xFFFFFFFFFFFFFFFFFFFFFFFFFFFFFFFFFFFFFFFF AND PUSH20 0xFFFFFFFFFFFFFFFFFFFFFFFFFFFFFFFFFFFFFFFF AND PUSH4 0x919884BF DUP10 PUSH1 0x40 MLOAD DUP3 PUSH4 0xFFFFFFFF AND PUSH1 0xE0 SHL DUP2 MSTORE PUSH1 0x4 ADD PUSH2 0xD3D SWAP2 SWAP1 PUSH2 0x2EAE JUMP JUMPDEST PUSH1 0x60 PUSH1 0x40 MLOAD DUP1 DUP4 SUB DUP2 DUP7 GAS STATICCALL ISZERO DUP1 ISZERO PUSH2 0xD58 JUMPI RETURNDATASIZE PUSH0 DUP1 RETURNDATACOPY RETURNDATASIZE PUSH0 REVERT JUMPDEST POP POP POP POP PUSH1 0x40 MLOAD RETURNDATASIZE PUSH1 0x1F NOT PUSH1 0x1F DUP3 ADD AND DUP3 ADD DUP1 PUSH1 0x40 MSTORE POP DUP2 ADD SWAP1 PUSH2 0xD7C SWAP2 SWAP1 PUSH2 0x33B5 JUMP JUMPDEST SWAP3 POP POP PUSH4 0xFFFFFFFF AND SWAP2 POP PUSH0 DUP2 PUSH12 0xFFFFFFFFFFFFFFFFFFFFFFFF AND SWAP1 POP TIMESTAMP DUP4 GT ISZERO DUP1 PUSH2 0xDA7 JUMPI POP PUSH0 DUP2 EQ JUMPDEST ISZERO PUSH2 0xDBB JUMPI PUSH0 SWAP8 POP POP POP POP POP POP POP POP PUSH2 0xE41 JUMP JUMPDEST PUSH0 DUP5 PUSH4 0x1E13380 PUSH1 0x2 PUSH0 DUP14 PUSH20 0xFFFFFFFFFFFFFFFFFFFFFFFFFFFFFFFFFFFFFFFF AND PUSH20 0xFFFFFFFFFFFFFFFFFFFFFFFFFFFFFFFFFFFFFFFF AND DUP2 MSTORE PUSH1 0x20 ADD SWAP1 DUP2 MSTORE PUSH1 0x20 ADD PUSH0 KECCAK256 SLOAD PUSH1 0x7 SLOAD PUSH2 0xE0D SWAP2 SWAP1 PUSH2 0x3405 JUMP JUMPDEST PUSH2 0xE17 SWAP2 SWAP1 PUSH2 0x3405 JUMP JUMPDEST PUSH2 0xE21 SWAP2 SWAP1 PUSH2 0x3473 JUMP JUMPDEST SWAP1 POP PUSH2 0xE36 DUP3 DUP3 PUSH2 0x240A SWAP1 SWAP2 SWAP1 PUSH4 0xFFFFFFFF AND JUMP JUMPDEST SWAP9 POP POP POP POP POP POP POP POP POP JUMPDEST SWAP2 SWAP1 POP JUMP JUMPDEST PUSH0 DUP1 PUSH1 0x64 PUSH20 0xFFFFFFFFFFFFFFFFFFFFFFFFFFFFFFFFFFFFFFFF AND PUSH1 0x3 PUSH0 SWAP1 SLOAD SWAP1 PUSH2 0x100 EXP SWAP1 DIV PUSH20 0xFFFFFFFFFFFFFFFFFFFFFFFFFFFFFFFFFFFFFFFF AND PUSH1 0x40 MLOAD DUP1 PUSH1 0x40 ADD PUSH1 0x40 MSTORE DUP1 PUSH1 0x6 DUP2 MSTORE PUSH1 0x20 ADD PUSH32 0x7265776172640000000000000000000000000000000000000000000000000000 DUP2 MSTORE POP PUSH1 0x40 MLOAD PUSH1 0x20 ADD PUSH2 0xEC9 SWAP3 SWAP2 SWAP1 PUSH2 0x30C9 JUMP JUMPDEST PUSH1 0x40 MLOAD PUSH1 0x20 DUP2 DUP4 SUB SUB DUP2 MSTORE SWAP1 PUSH1 0x40 MSTORE PUSH1 0x40 MLOAD PUSH2 0xEE5 SWAP2 SWAP1 PUSH2 0x3134 JUMP JUMPDEST PUSH0 PUSH1 0x40 MLOAD DUP1 DUP4 SUB DUP2 PUSH0 DUP7 GAS CALL SWAP2 POP POP RETURNDATASIZE DUP1 PUSH0 DUP2 EQ PUSH2 0xF1E JUMPI PUSH1 0x40 MLOAD SWAP2 POP PUSH1 0x1F NOT PUSH1 0x3F RETURNDATASIZE ADD AND DUP3 ADD PUSH1 0x40 MSTORE RETURNDATASIZE DUP3 MSTORE RETURNDATASIZE PUSH0 PUSH1 0x20 DUP5 ADD RETURNDATACOPY PUSH2 0xF23 JUMP JUMPDEST PUSH1 0x60 SWAP2 POP JUMPDEST POP SWAP2 POP SWAP2 POP DUP2 PUSH2 0xF68 JUMPI PUSH1 0x40 MLOAD PUSH32 0x8C379A000000000000000000000000000000000000000000000000000000000 DUP2 MSTORE PUSH1 0x4 ADD PUSH2 0xF5F SWAP1 PUSH2 0x31CA JUMP JUMPDEST PUSH1 0x40 MLOAD DUP1 SWAP2 SUB SWAP1 REVERT JUMPDEST PUSH0 PUSH2 0xF7D PUSH1 0x1 DUP4 PUSH2 0x224B SWAP1 SWAP2 SWAP1 PUSH4 0xFFFFFFFF AND JUMP JUMPDEST SWAP1 POP PUSH0 DUP2 GT ISZERO PUSH2 0x1045 JUMPI PUSH2 0xFF6 PUSH1 0x6 PUSH0 SWAP1 SLOAD SWAP1 PUSH2 0x100 EXP SWAP1 DIV PUSH20 0xFFFFFFFFFFFFFFFFFFFFFFFFFFFFFFFFFFFFFFFF AND CALLER DUP4 PUSH1 0x4 PUSH0 SWAP1 SLOAD SWAP1 PUSH2 0x100 EXP SWAP1 DIV PUSH20 0xFFFFFFFFFFFFFFFFFFFFFFFFFFFFFFFFFFFFFFFF AND PUSH20 0xFFFFFFFFFFFFFFFFFFFFFFFFFFFFFFFFFFFFFFFF AND PUSH2 0x2432 SWAP1 SWAP4 SWAP3 SWAP2 SWAP1 PUSH4 0xFFFFFFFF AND JUMP JUMPDEST CALLER PUSH20 0xFFFFFFFFFFFFFFFFFFFFFFFFFFFFFFFFFFFFFFFF AND PUSH32 0xE2403640BA68FED3A2F88B7557551D1993F84B99BB10FF833F0CF8DB0C5E0486 DUP3 PUSH1 0x40 MLOAD PUSH2 0x103C SWAP2 SWAP1 PUSH2 0x2C34 JUMP JUMPDEST PUSH1 0x40 MLOAD DUP1 SWAP2 SUB SWAP1 LOG2 JUMPDEST POP POP POP JUMP JUMPDEST PUSH0 PUSH1 0x2 PUSH0 DUP4 PUSH20 0xFFFFFFFFFFFFFFFFFFFFFFFFFFFFFFFFFFFFFFFF AND PUSH20 0xFFFFFFFFFFFFFFFFFFFFFFFFFFFFFFFFFFFFFFFF AND DUP2 MSTORE PUSH1 0x20 ADD SWAP1 DUP2 MSTORE PUSH1 0x20 ADD PUSH0 KECCAK256 SLOAD SWAP1 POP SWAP2 SWAP1 POP JUMP JUMPDEST PUSH2 0x1098 PUSH2 0x24B4 JUMP JUMPDEST PUSH2 0x10A1 PUSH0 PUSH2 0x253B JUMP JUMPDEST JUMP JUMPDEST DUP2 PUSH0 DUP2 SUB PUSH2 0x10E6 JUMPI PUSH1 0x40 MLOAD PUSH32 0x8C379A000000000000000000000000000000000000000000000000000000000 DUP2 MSTORE PUSH1 0x4 ADD PUSH2 0x10DD SWAP1 PUSH2 0x3513 JUMP JUMPDEST PUSH1 0x40 MLOAD DUP1 SWAP2 SUB SWAP1 REVERT JUMPDEST DUP2 TIMESTAMP DUP2 GT PUSH2 0x1129 JUMPI PUSH1 0x40 MLOAD PUSH32 0x8C379A000000000000000000000000000000000000000000000000000000000 DUP2 MSTORE PUSH1 0x4 ADD PUSH2 0x1120 SWAP1 PUSH2 0x35A1 JUMP JUMPDEST PUSH1 0x40 MLOAD DUP1 SWAP2 SUB SWAP1 REVERT JUMPDEST PUSH0 PUSH3 0x93A80 PUSH1 0x8 SLOAD DUP4 PUSH2 0x113C SWAP2 SWAP1 PUSH2 0x332E JUMP JUMPDEST PUSH2 0x1146 SWAP2 SWAP1 PUSH2 0x35BF JUMP JUMPDEST EQ PUSH2 0x1186 JUMPI PUSH1 0x40 MLOAD PUSH32 0x8C379A000000000000000000000000000000000000000000000000000000000 DUP2 MSTORE PUSH1 0x4 ADD PUSH2 0x117D SWAP1 PUSH2 0x365F JUMP JUMPDEST PUSH1 0x40 MLOAD DUP1 SWAP2 SUB SWAP1 REVERT JUMPDEST PUSH2 0x118E PUSH2 0x260C JUMP JUMPDEST PUSH0 DUP1 PUSH0 SWAP1 SLOAD SWAP1 PUSH2 0x100 EXP SWAP1 DIV PUSH20 0xFFFFFFFFFFFFFFFFFFFFFFFFFFFFFFFFFFFFFFFF AND PUSH20 0xFFFFFFFFFFFFFFFFFFFFFFFFFFFFFFFFFFFFFFFF AND PUSH4 0x919884BF CALLER PUSH1 0x40 MLOAD DUP3 PUSH4 0xFFFFFFFF AND PUSH1 0xE0 SHL DUP2 MSTORE PUSH1 0x4 ADD PUSH2 0x11E8 SWAP2 SWAP1 PUSH2 0x2EAE JUMP JUMPDEST PUSH1 0x60 PUSH1 0x40 MLOAD DUP1 DUP4 SUB DUP2 DUP7 GAS STATICCALL ISZERO DUP1 ISZERO PUSH2 0x1203 JUMPI RETURNDATASIZE PUSH0 DUP1 RETURNDATACOPY RETURNDATASIZE PUSH0 REVERT JUMPDEST POP POP POP POP PUSH1 0x40 MLOAD RETURNDATASIZE PUSH1 0x1F NOT PUSH1 0x1F DUP3 ADD AND DUP3 ADD DUP1 PUSH1 0x40 MSTORE POP DUP2 ADD SWAP1 PUSH2 0x1227 SWAP2 SWAP1 PUSH2 0x33B5 JUMP JUMPDEST PUSH12 0xFFFFFFFFFFFFFFFFFFFFFFFF AND SWAP3 POP POP POP DUP1 DUP6 GT ISZERO PUSH2 0x129B JUMPI PUSH2 0x129A CALLER ADDRESS DUP4 DUP9 PUSH2 0x1252 SWAP2 SWAP1 PUSH2 0x332E JUMP JUMPDEST PUSH1 0x5 PUSH0 SWAP1 SLOAD SWAP1 PUSH2 0x100 EXP SWAP1 DIV PUSH20 0xFFFFFFFFFFFFFFFFFFFFFFFFFFFFFFFFFFFFFFFF AND PUSH20 0xFFFFFFFFFFFFFFFFFFFFFFFFFFFFFFFFFFFFFFFF AND PUSH2 0x2432 SWAP1 SWAP4 SWAP3 SWAP2 SWAP1 PUSH4 0xFFFFFFFF AND JUMP JUMPDEST JUMPDEST PUSH0 TIMESTAMP DUP6 PUSH2 0x12A8 SWAP2 SWAP1 PUSH2 0x332E JUMP JUMPDEST SWAP1 POP PUSH0 PUSH1 0x2 PUSH0 CALLER PUSH20 0xFFFFFFFFFFFFFFFFFFFFFFFFFFFFFFFFFFFFFFFF AND PUSH20 0xFFFFFFFFFFFFFFFFFFFFFFFFFFFFFFFFFFFFFFFF AND DUP2 MSTORE PUSH1 0x20 ADD SWAP1 DUP2 MSTORE PUSH1 0x20 ADD PUSH0 KECCAK256 SLOAD SWAP1 POP PUSH0 DUP1 PUSH0 SWAP1 SLOAD SWAP1 PUSH2 0x100 EXP SWAP1 DIV PUSH20 0xFFFFFFFFFFFFFFFFFFFFFFFFFFFFFFFFFFFFFFFF AND PUSH20 0xFFFFFFFFFFFFFFFFFFFFFFFFFFFFFFFFFFFFFFFF AND PUSH4 0x19225FC0 CALLER DUP11 DUP7 PUSH1 0x40 MLOAD DUP5 PUSH4 0xFFFFFFFF AND PUSH1 0xE0 SHL DUP2 MSTORE PUSH1 0x4 ADD PUSH2 0x1349 SWAP4 SWAP3 SWAP2 SWAP1 PUSH2 0x2FA4 JUMP JUMPDEST PUSH1 0x20 PUSH1 0x40 MLOAD DUP1 DUP4 SUB DUP2 PUSH0 DUP8 GAS CALL ISZERO DUP1 ISZERO PUSH2 0x1365 JUMPI RETURNDATASIZE PUSH0 DUP1 RETURNDATACOPY RETURNDATASIZE PUSH0 REVERT JUMPDEST POP POP POP POP PUSH1 0x40 MLOAD RETURNDATASIZE PUSH1 0x1F NOT PUSH1 0x1F DUP3 ADD AND DUP3 ADD DUP1 PUSH1 0x40 MSTORE POP DUP2 ADD SWAP1 PUSH2 0x1389 SWAP2 SWAP1 PUSH2 0x367D JUMP JUMPDEST PUSH12 0xFFFFFFFFFFFFFFFFFFFFFFFF AND SWAP1 POP PUSH0 DUP8 DUP3 PUSH1 0x40 MLOAD PUSH1 0x20 ADD PUSH2 0x13AD SWAP3 SWAP2 SWAP1 PUSH2 0x3712 JUMP JUMPDEST PUSH1 0x40 MLOAD PUSH1 0x20 DUP2 DUP4 SUB SUB DUP2 MSTORE SWAP1 PUSH1 0x40 MSTORE SWAP1 POP PUSH0 PUSH1 0x66 PUSH20 0xFFFFFFFFFFFFFFFFFFFFFFFFFFFFFFFFFFFFFFFF AND PUSH1 0x40 MLOAD DUP1 PUSH1 0x40 ADD PUSH1 0x40 MSTORE DUP1 PUSH1 0x7 DUP2 MSTORE PUSH1 0x20 ADD PUSH32 0x636F6E7465787400000000000000000000000000000000000000000000000000 DUP2 MSTORE POP DUP4 PUSH1 0x40 MLOAD PUSH1 0x20 ADD PUSH2 0x141F SWAP3 SWAP2 SWAP1 PUSH2 0x3790 JUMP JUMPDEST PUSH1 0x40 MLOAD PUSH1 0x20 DUP2 DUP4 SUB SUB DUP2 MSTORE SWAP1 PUSH1 0x40 MSTORE PUSH1 0x40 MLOAD PUSH2 0x143B SWAP2 SWAP1 PUSH2 0x3134 JUMP JUMPDEST PUSH0 PUSH1 0x40 MLOAD DUP1 DUP4 SUB DUP2 PUSH0 DUP7 GAS CALL SWAP2 POP POP RETURNDATASIZE DUP1 PUSH0 DUP2 EQ PUSH2 0x1474 JUMPI PUSH1 0x40 MLOAD SWAP2 POP PUSH1 0x1F NOT PUSH1 0x3F RETURNDATASIZE ADD AND DUP3 ADD PUSH1 0x40 MSTORE RETURNDATASIZE DUP3 MSTORE RETURNDATASIZE PUSH0 PUSH1 0x20 DUP5 ADD RETURNDATACOPY PUSH2 0x1479 JUMP JUMPDEST PUSH1 0x60 SWAP2 POP JUMPDEST POP POP SWAP1 POP DUP1 PUSH2 0x14BD JUMPI PUSH1 0x40 MLOAD PUSH32 0x8C379A000000000000000000000000000000000000000000000000000000000 DUP2 MSTORE PUSH1 0x4 ADD PUSH2 0x14B4 SWAP1 PUSH2 0x3835 JUMP JUMPDEST PUSH1 0x40 MLOAD DUP1 SWAP2 SUB SWAP1 REVERT JUMPDEST PUSH32 0x14480C50968B1E72780F52B2792FAA6924FC344438D200C2BDEAD4130C1506F9 CALLER DUP8 DUP13 DUP9 DUP9 DUP9 PUSH1 0x40 MLOAD PUSH2 0x14F6 SWAP7 SWAP6 SWAP5 SWAP4 SWAP3 SWAP2 SWAP1 PUSH2 0x3853 JUMP JUMPDEST PUSH1 0x40 MLOAD DUP1 SWAP2 SUB SWAP1 LOG1 POP POP POP POP POP POP PUSH2 0x150C PUSH2 0x2660 JUMP JUMPDEST POP POP POP POP JUMP JUMPDEST PUSH1 0x8 SLOAD DUP2 JUMP JUMPDEST PUSH1 0x7 SLOAD DUP2 JUMP JUMPDEST PUSH1 0x5 PUSH0 SWAP1 SLOAD SWAP1 PUSH2 0x100 EXP SWAP1 DIV PUSH20 0xFFFFFFFFFFFFFFFFFFFFFFFFFFFFFFFFFFFFFFFF AND DUP2 JUMP JUMPDEST PUSH0 DUP1 PUSH2 0x154D PUSH2 0x2677 JUMP JUMPDEST SWAP1 POP DUP1 PUSH0 ADD PUSH0 SWAP1 SLOAD SWAP1 PUSH2 0x100 EXP SWAP1 DIV PUSH20 0xFFFFFFFFFFFFFFFFFFFFFFFFFFFFFFFFFFFFFFFF AND SWAP2 POP POP SWAP1 JUMP JUMPDEST PUSH0 DUP1 PUSH0 DUP1 PUSH0 SWAP1 SLOAD SWAP1 PUSH2 0x100 EXP SWAP1 DIV PUSH20 0xFFFFFFFFFFFFFFFFFFFFFFFFFFFFFFFFFFFFFFFF AND PUSH20 0xFFFFFFFFFFFFFFFFFFFFFFFFFFFFFFFFFFFFFFFF AND PUSH4 0x919884BF DUP6 PUSH1 0x40 MLOAD DUP3 PUSH4 0xFFFFFFFF AND PUSH1 0xE0 SHL DUP2 MSTORE PUSH1 0x4 ADD PUSH2 0x15D4 SWAP2 SWAP1 PUSH2 0x2EAE JUMP JUMPDEST PUSH1 0x60 PUSH1 0x40 MLOAD DUP1 DUP4 SUB DUP2 DUP7 GAS STATICCALL ISZERO DUP1 ISZERO PUSH2 0x15EF JUMPI RETURNDATASIZE PUSH0 DUP1 RETURNDATACOPY RETURNDATASIZE PUSH0 REVERT JUMPDEST POP POP POP POP PUSH1 0x40 MLOAD RETURNDATASIZE PUSH1 0x1F NOT PUSH1 0x1F DUP3 ADD AND DUP3 ADD DUP1 PUSH1 0x40 MSTORE POP DUP2 ADD SWAP1 PUSH2 0x1613 SWAP2 SWAP1 PUSH2 0x33B5 JUMP JUMPDEST SWAP3 POP SWAP3 POP SWAP3 POP SWAP2 SWAP4 SWAP1 SWAP3 POP JUMP JUMPDEST DUP1 TIMESTAMP DUP2 GT PUSH2 0x1663 JUMPI PUSH1 0x40 MLOAD PUSH32 0x8C379A000000000000000000000000000000000000000000000000000000000 DUP2 MSTORE PUSH1 0x4 ADD PUSH2 0x165A SWAP1 PUSH2 0x35A1 JUMP JUMPDEST PUSH1 0x40 MLOAD DUP1 SWAP2 SUB SWAP1 REVERT JUMPDEST PUSH0 PUSH3 0x93A80 PUSH1 0x8 SLOAD DUP4 PUSH2 0x1676 SWAP2 SWAP1 PUSH2 0x332E JUMP JUMPDEST PUSH2 0x1680 SWAP2 SWAP1 PUSH2 0x35BF JUMP JUMPDEST EQ PUSH2 0x16C0 JUMPI PUSH1 0x40 MLOAD PUSH32 0x8C379A000000000000000000000000000000000000000000000000000000000 DUP2 MSTORE PUSH1 0x4 ADD PUSH2 0x16B7 SWAP1 PUSH2 0x365F JUMP JUMPDEST PUSH1 0x40 MLOAD DUP1 SWAP2 SUB SWAP1 REVERT JUMPDEST PUSH0 DUP1 PUSH0 SWAP1 SLOAD SWAP1 PUSH2 0x100 EXP SWAP1 DIV PUSH20 0xFFFFFFFFFFFFFFFFFFFFFFFFFFFFFFFFFFFFFFFF AND PUSH20 0xFFFFFFFFFFFFFFFFFFFFFFFFFFFFFFFFFFFFFFFF AND PUSH4 0x919884BF CALLER PUSH1 0x40 MLOAD DUP3 PUSH4 0xFFFFFFFF AND PUSH1 0xE0 SHL DUP2 MSTORE PUSH1 0x4 ADD PUSH2 0x171A SWAP2 SWAP1 PUSH2 0x2EAE JUMP JUMPDEST PUSH1 0x60 PUSH1 0x40 MLOAD DUP1 DUP4 SUB DUP2 DUP7 GAS STATICCALL ISZERO DUP1 ISZERO PUSH2 0x1735 JUMPI RETURNDATASIZE PUSH0 DUP1 RETURNDATACOPY RETURNDATASIZE PUSH0 REVERT JUMPDEST POP POP POP POP PUSH1 0x40 MLOAD RETURNDATASIZE PUSH1 0x1F NOT PUSH1 0x1F DUP3 ADD AND DUP3 ADD DUP1 PUSH1 0x40 MSTORE POP DUP2 ADD SWAP1 PUSH2 0x1759 SWAP2 SWAP1 PUSH2 0x33B5 JUMP JUMPDEST POP POP SWAP1 POP PUSH0 DUP2 PUSH4 0xFFFFFFFF AND DUP5 PUSH2 0x1770 SWAP2 SWAP1 PUSH2 0x332E JUMP JUMPDEST SWAP1 POP PUSH0 DUP1 PUSH0 SWAP1 SLOAD SWAP1 PUSH2 0x100 EXP SWAP1 DIV PUSH20 0xFFFFFFFFFFFFFFFFFFFFFFFFFFFFFFFFFFFFFFFF AND PUSH20 0xFFFFFFFFFFFFFFFFFFFFFFFFFFFFFFFFFFFFFFFF AND PUSH4 0x8409A123 CALLER DUP5 PUSH1 0x40 MLOAD DUP4 PUSH4 0xFFFFFFFF AND PUSH1 0xE0 SHL DUP2 MSTORE PUSH1 0x4 ADD PUSH2 0x17CE SWAP3 SWAP2 SWAP1 PUSH2 0x38B2 JUMP JUMPDEST PUSH1 0x20 PUSH1 0x40 MLOAD DUP1 DUP4 SUB DUP2 PUSH0 DUP8 GAS CALL ISZERO DUP1 ISZERO PUSH2 0x17EA JUMPI RETURNDATASIZE PUSH0 DUP1 RETURNDATACOPY RETURNDATASIZE PUSH0 REVERT JUMPDEST POP POP POP POP PUSH1 0x40 MLOAD RETURNDATASIZE PUSH1 0x1F NOT PUSH1 0x1F DUP3 ADD AND DUP3 ADD DUP1 PUSH1 0x40 MSTORE POP DUP2 ADD SWAP1 PUSH2 0x180E SWAP2 SWAP1 PUSH2 0x367D JUMP JUMPDEST PUSH12 0xFFFFFFFFFFFFFFFFFFFFFFFF AND SWAP1 POP PUSH0 DUP6 DUP3 DUP6 PUSH1 0x40 MLOAD PUSH1 0x20 ADD PUSH2 0x1834 SWAP4 SWAP3 SWAP2 SWAP1 PUSH2 0x390D JUMP JUMPDEST PUSH1 0x40 MLOAD PUSH1 0x20 DUP2 DUP4 SUB SUB DUP2 MSTORE SWAP1 PUSH1 0x40 MSTORE SWAP1 POP PUSH0 PUSH1 0x66 PUSH20 0xFFFFFFFFFFFFFFFFFFFFFFFFFFFFFFFFFFFFFFFF AND PUSH1 0x40 MLOAD DUP1 PUSH1 0x40 ADD PUSH1 0x40 MSTORE DUP1 PUSH1 0x7 DUP2 MSTORE PUSH1 0x20 ADD PUSH32 0x636F6E7465787400000000000000000000000000000000000000000000000000 DUP2 MSTORE POP DUP4 PUSH1 0x40 MLOAD PUSH1 0x20 ADD PUSH2 0x18A6 SWAP3 SWAP2 SWAP1 PUSH2 0x3790 JUMP JUMPDEST PUSH1 0x40 MLOAD PUSH1 0x20 DUP2 DUP4 SUB SUB DUP2 MSTORE SWAP1 PUSH1 0x40 MSTORE PUSH1 0x40 MLOAD PUSH2 0x18C2 SWAP2 SWAP1 PUSH2 0x3134 JUMP JUMPDEST PUSH0 PUSH1 0x40 MLOAD DUP1 DUP4 SUB DUP2 PUSH0 DUP7 GAS CALL SWAP2 POP POP RETURNDATASIZE DUP1 PUSH0 DUP2 EQ PUSH2 0x18FB JUMPI PUSH1 0x40 MLOAD SWAP2 POP PUSH1 0x1F NOT PUSH1 0x3F RETURNDATASIZE ADD AND DUP3 ADD PUSH1 0x40 MSTORE RETURNDATASIZE DUP3 MSTORE RETURNDATASIZE PUSH0 PUSH1 0x20 DUP5 ADD RETURNDATACOPY PUSH2 0x1900 JUMP JUMPDEST PUSH1 0x60 SWAP2 POP JUMPDEST POP POP SWAP1 POP DUP1 PUSH2 0x1944 JUMPI PUSH1 0x40 MLOAD PUSH32 0x8C379A000000000000000000000000000000000000000000000000000000000 DUP2 MSTORE PUSH1 0x4 ADD PUSH2 0x193B SWAP1 PUSH2 0x3835 JUMP JUMPDEST PUSH1 0x40 MLOAD DUP1 SWAP2 SUB SWAP1 REVERT JUMPDEST PUSH32 0x661475D2BB7F20A2052FDFD8F597E1E76CDB5C12A6B8CA867B1E2EEE4BA14D90 CALLER DUP7 DUP10 DUP8 DUP8 PUSH1 0x40 MLOAD PUSH2 0x197B SWAP6 SWAP5 SWAP4 SWAP3 SWAP2 SWAP1 PUSH2 0x398F JUMP JUMPDEST PUSH1 0x40 MLOAD DUP1 SWAP2 SUB SWAP1 LOG1 POP POP POP POP POP POP POP JUMP JUMPDEST DUP2 PUSH0 DUP2 SUB PUSH2 0x19CF JUMPI PUSH1 0x40 MLOAD PUSH32 0x8C379A000000000000000000000000000000000000000000000000000000000 DUP2 MSTORE PUSH1 0x4 ADD PUSH2 0x19C6 SWAP1 PUSH2 0x3513 JUMP JUMPDEST PUSH1 0x40 MLOAD DUP1 SWAP2 SUB SWAP1 REVERT JUMPDEST DUP2 TIMESTAMP DUP2 GT PUSH2 0x1A12 JUMPI PUSH1 0x40 MLOAD PUSH32 0x8C379A000000000000000000000000000000000000000000000000000000000 DUP2 MSTORE PUSH1 0x4 ADD PUSH2 0x1A09 SWAP1 PUSH2 0x35A1 JUMP JUMPDEST PUSH1 0x40 MLOAD DUP1 SWAP2 SUB SWAP1 REVERT JUMPDEST PUSH0 PUSH3 0x93A80 PUSH1 0x8 SLOAD DUP4 PUSH2 0x1A25 SWAP2 SWAP1 PUSH2 0x332E JUMP JUMPDEST PUSH2 0x1A2F SWAP2 SWAP1 PUSH2 0x35BF JUMP JUMPDEST EQ PUSH2 0x1A6F JUMPI PUSH1 0x40 MLOAD PUSH32 0x8C379A000000000000000000000000000000000000000000000000000000000 DUP2 MSTORE PUSH1 0x4 ADD PUSH2 0x1A66 SWAP1 PUSH2 0x365F JUMP JUMPDEST PUSH1 0x40 MLOAD DUP1 SWAP2 SUB SWAP1 REVERT JUMPDEST PUSH0 TIMESTAMP DUP5 PUSH2 0x1A7C SWAP2 SWAP1 PUSH2 0x332E JUMP JUMPDEST SWAP1 POP PUSH2 0x1ACC CALLER ADDRESS DUP8 PUSH1 0x5 PUSH0 SWAP1 SLOAD SWAP1 PUSH2 0x100 EXP SWAP1 DIV PUSH20 0xFFFFFFFFFFFFFFFFFFFFFFFFFFFFFFFFFFFFFFFF AND PUSH20 0xFFFFFFFFFFFFFFFFFFFFFFFFFFFFFFFFFFFFFFFF AND PUSH2 0x2432 SWAP1 SWAP4 SWAP3 SWAP2 SWAP1 PUSH4 0xFFFFFFFF AND JUMP JUMPDEST PUSH0 DUP1 PUSH0 SWAP1 SLOAD SWAP1 PUSH2 0x100 EXP SWAP1 DIV PUSH20 0xFFFFFFFFFFFFFFFFFFFFFFFFFFFFFFFFFFFFFFFF AND PUSH20 0xFFFFFFFFFFFFFFFFFFFFFFFFFFFFFFFFFFFFFFFF AND PUSH4 0x5165DA30 CALLER DUP9 DUP6 PUSH1 0x40 MLOAD DUP5 PUSH4 0xFFFFFFFF AND PUSH1 0xE0 SHL DUP2 MSTORE PUSH1 0x4 ADD PUSH2 0x1B2A SWAP4 SWAP3 SWAP2 SWAP1 PUSH2 0x2FA4 JUMP JUMPDEST PUSH1 0x20 PUSH1 0x40 MLOAD DUP1 DUP4 SUB DUP2 PUSH0 DUP8 GAS CALL ISZERO DUP1 ISZERO PUSH2 0x1B46 JUMPI RETURNDATASIZE PUSH0 DUP1 RETURNDATACOPY RETURNDATASIZE PUSH0 REVERT JUMPDEST POP POP POP POP PUSH1 0x40 MLOAD RETURNDATASIZE PUSH1 0x1F NOT PUSH1 0x1F DUP3 ADD AND DUP3 ADD DUP1 PUSH1 0x40 MSTORE POP DUP2 ADD SWAP1 PUSH2 0x1B6A SWAP2 SWAP1 PUSH2 0x367D JUMP JUMPDEST PUSH12 0xFFFFFFFFFFFFFFFFFFFFFFFF AND SWAP1 POP PUSH0 DUP6 DUP3 PUSH1 0x40 MLOAD PUSH1 0x20 ADD PUSH2 0x1B8E SWAP3 SWAP2 SWAP1 PUSH2 0x3712 JUMP JUMPDEST PUSH1 0x40 MLOAD PUSH1 0x20 DUP2 DUP4 SUB SUB DUP2 MSTORE SWAP1 PUSH1 0x40 MSTORE SWAP1 POP PUSH0 PUSH1 0x66 PUSH20 0xFFFFFFFFFFFFFFFFFFFFFFFFFFFFFFFFFFFFFFFF AND PUSH1 0x40 MLOAD DUP1 PUSH1 0x40 ADD PUSH1 0x40 MSTORE DUP1 PUSH1 0x7 DUP2 MSTORE PUSH1 0x20 ADD PUSH32 0x636F6E7465787400000000000000000000000000000000000000000000000000 DUP2 MSTORE POP DUP4 PUSH1 0x40 MLOAD PUSH1 0x20 ADD PUSH2 0x1C00 SWAP3 SWAP2 SWAP1 PUSH2 0x3790 JUMP JUMPDEST PUSH1 0x40 MLOAD PUSH1 0x20 DUP2 DUP4 SUB SUB DUP2 MSTORE SWAP1 PUSH1 0x40 MSTORE PUSH1 0x40 MLOAD PUSH2 0x1C1C SWAP2 SWAP1 PUSH2 0x3134 JUMP JUMPDEST PUSH0 PUSH1 0x40 MLOAD DUP1 DUP4 SUB DUP2 PUSH0 DUP7 GAS CALL SWAP2 POP POP RETURNDATASIZE DUP1 PUSH0 DUP2 EQ PUSH2 0x1C55 JUMPI PUSH1 0x40 MLOAD SWAP2 POP PUSH1 0x1F NOT PUSH1 0x3F RETURNDATASIZE ADD AND DUP3 ADD PUSH1 0x40 MSTORE RETURNDATASIZE DUP3 MSTORE RETURNDATASIZE PUSH0 PUSH1 0x20 DUP5 ADD RETURNDATACOPY PUSH2 0x1C5A JUMP JUMPDEST PUSH1 0x60 SWAP2 POP JUMPDEST POP POP SWAP1 POP DUP1 PUSH2 0x1C9E JUMPI PUSH1 0x40 MLOAD PUSH32 0x8C379A000000000000000000000000000000000000000000000000000000000 DUP2 MSTORE PUSH1 0x4 ADD PUSH2 0x1C95 SWAP1 PUSH2 0x3835 JUMP JUMPDEST PUSH1 0x40 MLOAD DUP1 SWAP2 SUB SWAP1 REVERT JUMPDEST PUSH32 0xE3A07E2AC405F9C908F600BA464ED28DD28F04E308CCC0610A33CA7ED1C59ABB CALLER DUP10 DUP7 DUP7 PUSH1 0x40 MLOAD PUSH2 0x1CD3 SWAP5 SWAP4 SWAP3 SWAP2 SWAP1 PUSH2 0x39E0 JUMP JUMPDEST PUSH1 0x40 MLOAD DUP1 SWAP2 SUB SWAP1 LOG1 POP POP POP POP POP POP POP POP JUMP JUMPDEST PUSH1 0x6 PUSH0 SWAP1 SLOAD SWAP1 PUSH2 0x100 EXP SWAP1 DIV PUSH20 0xFFFFFFFFFFFFFFFFFFFFFFFFFFFFFFFFFFFFFFFF AND DUP2 JUMP JUMPDEST DUP1 PUSH0 DUP2 SUB PUSH2 0x1D4D JUMPI PUSH1 0x40 MLOAD PUSH32 0x8C379A000000000000000000000000000000000000000000000000000000000 DUP2 MSTORE PUSH1 0x4 ADD PUSH2 0x1D44 SWAP1 PUSH2 0x3513 JUMP JUMPDEST PUSH1 0x40 MLOAD DUP1 SWAP2 SUB SWAP1 REVERT JUMPDEST PUSH2 0x1D9B CALLER ADDRESS DUP5 PUSH1 0x5 PUSH0 SWAP1 SLOAD SWAP1 PUSH2 0x100 EXP SWAP1 DIV PUSH20 0xFFFFFFFFFFFFFFFFFFFFFFFFFFFFFFFFFFFFFFFF AND PUSH20 0xFFFFFFFFFFFFFFFFFFFFFFFFFFFFFFFFFFFFFFFF AND PUSH2 0x2432 SWAP1 SWAP4 SWAP3 SWAP2 SWAP1 PUSH4 0xFFFFFFFF AND JUMP JUMPDEST PUSH0 DUP1 PUSH0 SWAP1 SLOAD SWAP1 PUSH2 0x100 EXP SWAP1 DIV PUSH20 0xFFFFFFFFFFFFFFFFFFFFFFFFFFFFFFFFFFFFFFFF AND PUSH20 0xFFFFFFFFFFFFFFFFFFFFFFFFFFFFFFFFFFFFFFFF AND PUSH4 0xAA3AE7E CALLER DUP6 PUSH1 0x40 MLOAD DUP4 PUSH4 0xFFFFFFFF AND PUSH1 0xE0 SHL DUP2 MSTORE PUSH1 0x4 ADD PUSH2 0x1DF7 SWAP3 SWAP2 SWAP1 PUSH2 0x38B2 JUMP JUMPDEST PUSH1 0x20 PUSH1 0x40 MLOAD DUP1 DUP4 SUB DUP2 PUSH0 DUP8 GAS CALL ISZERO DUP1 ISZERO PUSH2 0x1E13 JUMPI RETURNDATASIZE PUSH0 DUP1 RETURNDATACOPY RETURNDATASIZE PUSH0 REVERT JUMPDEST POP POP POP POP PUSH1 0x40 MLOAD RETURNDATASIZE PUSH1 0x1F NOT PUSH1 0x1F DUP3 ADD AND DUP3 ADD DUP1 PUSH1 0x40 MSTORE POP DUP2 ADD SWAP1 PUSH2 0x1E37 SWAP2 SWAP1 PUSH2 0x367D JUMP JUMPDEST PUSH12 0xFFFFFFFFFFFFFFFFFFFFFFFF AND SWAP1 POP PUSH0 DUP1 PUSH0 SWAP1 SLOAD SWAP1 PUSH2 0x100 EXP SWAP1 DIV PUSH20 0xFFFFFFFFFFFFFFFFFFFFFFFFFFFFFFFFFFFFFFFF AND PUSH20 0xFFFFFFFFFFFFFFFFFFFFFFFFFFFFFFFFFFFFFFFF AND PUSH4 0x919884BF CALLER PUSH1 0x40 MLOAD DUP3 PUSH4 0xFFFFFFFF AND PUSH1 0xE0 SHL DUP2 MSTORE PUSH1 0x4 ADD PUSH2 0x1EA1 SWAP2 SWAP1 PUSH2 0x2EAE JUMP JUMPDEST PUSH1 0x60 PUSH1 0x40 MLOAD DUP1 DUP4 SUB DUP2 DUP7 GAS STATICCALL ISZERO DUP1 ISZERO PUSH2 0x1EBC JUMPI RETURNDATASIZE PUSH0 DUP1 RETURNDATACOPY RETURNDATASIZE PUSH0 REVERT JUMPDEST POP POP POP POP PUSH1 0x40 MLOAD RETURNDATASIZE PUSH1 0x1F NOT PUSH1 0x1F DUP3 ADD AND DUP3 ADD DUP1 PUSH1 0x40 MSTORE POP DUP2 ADD SWAP1 PUSH2 0x1EE0 SWAP2 SWAP1 PUSH2 0x33B5 JUMP JUMPDEST POP POP SWAP1 POP PUSH0 DUP2 DUP4 PUSH1 0x40 MLOAD PUSH1 0x20 ADD PUSH2 0x1EF8 SWAP3 SWAP2 SWAP1 PUSH2 0x3A23 JUMP JUMPDEST PUSH1 0x40 MLOAD PUSH1 0x20 DUP2 DUP4 SUB SUB DUP2 MSTORE SWAP1 PUSH1 0x40 MSTORE SWAP1 POP PUSH0 PUSH1 0x66 PUSH20 0xFFFFFFFFFFFFFFFFFFFFFFFFFFFFFFFFFFFFFFFF AND PUSH1 0x40 MLOAD DUP1 PUSH1 0x40 ADD PUSH1 0x40 MSTORE DUP1 PUSH1 0x7 DUP2 MSTORE PUSH1 0x20 ADD PUSH32 0x636F6E7465787400000000000000000000000000000000000000000000000000 DUP2 MSTORE POP DUP4 PUSH1 0x40 MLOAD PUSH1 0x20 ADD PUSH2 0x1F6A SWAP3 SWAP2 SWAP1 PUSH2 0x3790 JUMP JUMPDEST PUSH1 0x40 MLOAD PUSH1 0x20 DUP2 DUP4 SUB SUB DUP2 MSTORE SWAP1 PUSH1 0x40 MSTORE PUSH1 0x40 MLOAD PUSH2 0x1F86 SWAP2 SWAP1 PUSH2 0x3134 JUMP JUMPDEST PUSH0 PUSH1 0x40 MLOAD DUP1 DUP4 SUB DUP2 PUSH0 DUP7 GAS CALL SWAP2 POP POP RETURNDATASIZE DUP1 PUSH0 DUP2 EQ PUSH2 0x1FBF JUMPI PUSH1 0x40 MLOAD SWAP2 POP PUSH1 0x1F NOT PUSH1 0x3F RETURNDATASIZE ADD AND DUP3 ADD PUSH1 0x40 MSTORE RETURNDATASIZE DUP3 MSTORE RETURNDATASIZE PUSH0 PUSH1 0x20 DUP5 ADD RETURNDATACOPY PUSH2 0x1FC4 JUMP JUMPDEST PUSH1 0x60 SWAP2 POP JUMPDEST POP POP SWAP1 POP DUP1 PUSH2 0x2008 JUMPI PUSH1 0x40 MLOAD PUSH32 0x8C379A000000000000000000000000000000000000000000000000000000000 DUP2 MSTORE PUSH1 0x4 ADD PUSH2 0x1FFF SWAP1 PUSH2 0x3835 JUMP JUMPDEST PUSH1 0x40 MLOAD DUP1 SWAP2 SUB SWAP1 REVERT JUMPDEST PUSH32 0xE5ED0451C3C49E91C18EA603CFA7CD0833F466ABB605E6E8A5964C5FFA453CDE CALLER DUP8 DUP7 PUSH1 0x40 MLOAD PUSH2 0x203B SWAP4 SWAP3 SWAP2 SWAP1 PUSH2 0x2FA4 JUMP JUMPDEST PUSH1 0x40 MLOAD DUP1 SWAP2 SUB SWAP1 LOG1 POP POP POP POP POP POP JUMP JUMPDEST PUSH2 0x2053 PUSH2 0xE46 JUMP JUMPDEST PUSH0 DUP1 PUSH0 SWAP1 SLOAD SWAP1 PUSH2 0x100 EXP SWAP1 DIV PUSH20 0xFFFFFFFFFFFFFFFFFFFFFFFFFFFFFFFFFFFFFFFF AND PUSH20 0xFFFFFFFFFFFFFFFFFFFFFFFFFFFFFFFFFFFFFFFF AND PUSH4 0x4EEA9A8D CALLER PUSH1 0x40 MLOAD DUP3 PUSH4 0xFFFFFFFF AND PUSH1 0xE0 SHL DUP2 MSTORE PUSH1 0x4 ADD PUSH2 0x20AD SWAP2 SWAP1 PUSH2 0x2EAE JUMP JUMPDEST PUSH1 0x20 PUSH1 0x40 MLOAD DUP1 DUP4 SUB DUP2 PUSH0 DUP8 GAS CALL ISZERO DUP1 ISZERO PUSH2 0x20C9 JUMPI RETURNDATASIZE PUSH0 DUP1 RETURNDATACOPY RETURNDATASIZE PUSH0 REVERT JUMPDEST POP POP POP POP PUSH1 0x40 MLOAD RETURNDATASIZE PUSH1 0x1F NOT PUSH1 0x1F DUP3 ADD AND DUP3 ADD DUP1 PUSH1 0x40 MSTORE POP DUP2 ADD SWAP1 PUSH2 0x20ED SWAP2 SWAP1 PUSH2 0x367D JUMP JUMPDEST PUSH12 0xFFFFFFFFFFFFFFFFFFFFFFFF AND SWAP1 POP PUSH0 PUSH1 0x2 PUSH0 CALLER PUSH20 0xFFFFFFFFFFFFFFFFFFFFFFFFFFFFFFFFFFFFFFFF AND PUSH20 0xFFFFFFFFFFFFFFFFFFFFFFFFFFFFFFFFFFFFFFFF AND DUP2 MSTORE PUSH1 0x20 ADD SWAP1 DUP2 MSTORE PUSH1 0x20 ADD PUSH0 KECCAK256 SLOAD SWAP1 POP PUSH32 0xF279E6A1F5E320CCA91135676D9CB6E44CA8A08C0B88342BCDB1144F6511B568 CALLER DUP4 DUP4 PUSH1 0x40 MLOAD PUSH2 0x2171 SWAP4 SWAP3 SWAP2 SWAP1 PUSH2 0x2FA4 JUMP JUMPDEST PUSH1 0x40 MLOAD DUP1 SWAP2 SUB SWAP1 LOG1 POP POP JUMP JUMPDEST PUSH2 0x2185 PUSH2 0x24B4 JUMP JUMPDEST PUSH0 PUSH20 0xFFFFFFFFFFFFFFFFFFFFFFFFFFFFFFFFFFFFFFFF AND DUP2 PUSH20 0xFFFFFFFFFFFFFFFFFFFFFFFFFFFFFFFFFFFFFFFF AND SUB PUSH2 0x21F5 JUMPI PUSH0 PUSH1 0x40 MLOAD PUSH32 0x1E4FBDF700000000000000000000000000000000000000000000000000000000 DUP2 MSTORE PUSH1 0x4 ADD PUSH2 0x21EC SWAP2 SWAP1 PUSH2 0x2EAE JUMP JUMPDEST PUSH1 0x40 MLOAD DUP1 SWAP2 SUB SWAP1 REVERT JUMPDEST PUSH2 0x21FE DUP2 PUSH2 0x253B JUMP JUMPDEST POP JUMP JUMPDEST PUSH1 0x4 PUSH0 SWAP1 SLOAD SWAP1 PUSH2 0x100 EXP SWAP1 DIV PUSH20 0xFFFFFFFFFFFFFFFFFFFFFFFFFFFFFFFFFFFFFFFF AND DUP2 JUMP JUMPDEST PUSH1 0x3 PUSH0 SWAP1 SLOAD SWAP1 PUSH2 0x100 EXP SWAP1 DIV PUSH20 0xFFFFFFFFFFFFFFFFFFFFFFFFFFFFFFFFFFFFFFFF AND DUP2 JUMP JUMPDEST PUSH0 PUSH1 0x20 DUP3 PUSH2 0x2259 SWAP2 SWAP1 PUSH2 0x3A59 JUMP JUMPDEST DUP4 MLOAD LT ISZERO PUSH2 0x229C JUMPI PUSH1 0x40 MLOAD PUSH32 0x8C379A000000000000000000000000000000000000000000000000000000000 DUP2 MSTORE PUSH1 0x4 ADD PUSH2 0x2293 SWAP1 PUSH2 0x3AD6 JUMP JUMPDEST PUSH1 0x40 MLOAD DUP1 SWAP2 SUB SWAP1 REVERT JUMPDEST PUSH0 DUP3 PUSH1 0x20 DUP6 ADD ADD MLOAD SWAP1 POP DUP1 SWAP2 POP POP SWAP3 SWAP2 POP POP JUMP JUMPDEST PUSH0 PUSH32 0xF0C57E16840DF040F15088DC2F81FE391C3923BEC73E23A9662EFC9C229C6A00 SWAP1 POP SWAP1 JUMP JUMPDEST PUSH2 0x22DF PUSH2 0x269E JUMP JUMPDEST PUSH2 0x22E8 DUP2 PUSH2 0x26DE JUMP JUMPDEST POP JUMP JUMPDEST PUSH2 0x22F3 PUSH2 0x269E JUMP JUMPDEST PUSH2 0x22FB PUSH2 0x2762 JUMP JUMPDEST JUMP JUMPDEST PUSH0 DUP4 PUSH20 0xFFFFFFFFFFFFFFFFFFFFFFFFFFFFFFFFFFFFFFFF AND PUSH4 0x95EA7B3 DUP5 DUP5 PUSH1 0x40 MLOAD PUSH1 0x24 ADD PUSH2 0x232D SWAP3 SWAP2 SWAP1 PUSH2 0x38B2 JUMP JUMPDEST PUSH1 0x40 MLOAD PUSH1 0x20 DUP2 DUP4 SUB SUB DUP2 MSTORE SWAP1 PUSH1 0x40 MSTORE SWAP2 POP PUSH1 0xE0 SHL PUSH1 0x20 DUP3 ADD DUP1 MLOAD PUSH28 0xFFFFFFFFFFFFFFFFFFFFFFFFFFFFFFFFFFFFFFFFFFFFFFFFFFFFFFFF DUP4 DUP2 DUP4 AND OR DUP4 MSTORE POP POP POP POP SWAP1 POP PUSH2 0x237B DUP5 DUP3 PUSH2 0x2781 JUMP JUMPDEST PUSH2 0x2404 JUMPI PUSH2 0x23F9 DUP5 DUP6 PUSH20 0xFFFFFFFFFFFFFFFFFFFFFFFFFFFFFFFFFFFFFFFF AND PUSH4 0x95EA7B3 DUP7 PUSH0 PUSH1 0x40 MLOAD PUSH1 0x24 ADD PUSH2 0x23B2 SWAP3 SWAP2 SWAP1 PUSH2 0x3B2D JUMP JUMPDEST PUSH1 0x40 MLOAD PUSH1 0x20 DUP2 DUP4 SUB SUB DUP2 MSTORE SWAP1 PUSH1 0x40 MSTORE SWAP2 POP PUSH1 0xE0 SHL PUSH1 0x20 DUP3 ADD DUP1 MLOAD PUSH28 0xFFFFFFFFFFFFFFFFFFFFFFFFFFFFFFFFFFFFFFFFFFFFFFFFFFFFFFFF DUP4 DUP2 DUP4 AND OR DUP4 MSTORE POP POP POP POP PUSH2 0x2840 JUMP JUMPDEST PUSH2 0x2403 DUP5 DUP3 PUSH2 0x2840 JUMP JUMPDEST JUMPDEST POP POP POP POP JUMP JUMPDEST PUSH0 DUP2 PUSH8 0xDE0B6B3A7640000 DUP5 PUSH2 0x2420 SWAP2 SWAP1 PUSH2 0x3405 JUMP JUMPDEST PUSH2 0x242A SWAP2 SWAP1 PUSH2 0x3473 JUMP JUMPDEST SWAP1 POP SWAP3 SWAP2 POP POP JUMP JUMPDEST PUSH2 0x24AE DUP5 DUP6 PUSH20 0xFFFFFFFFFFFFFFFFFFFFFFFFFFFFFFFFFFFFFFFF AND PUSH4 0x23B872DD DUP7 DUP7 DUP7 PUSH1 0x40 MLOAD PUSH1 0x24 ADD PUSH2 0x2467 SWAP4 SWAP3 SWAP2 SWAP1 PUSH2 0x3B54 JUMP JUMPDEST PUSH1 0x40 MLOAD PUSH1 0x20 DUP2 DUP4 SUB SUB DUP2 MSTORE SWAP1 PUSH1 0x40 MSTORE SWAP2 POP PUSH1 0xE0 SHL PUSH1 0x20 DUP3 ADD DUP1 MLOAD PUSH28 0xFFFFFFFFFFFFFFFFFFFFFFFFFFFFFFFFFFFFFFFFFFFFFFFFFFFFFFFF DUP4 DUP2 DUP4 AND OR DUP4 MSTORE POP POP POP POP PUSH2 0x2840 JUMP JUMPDEST POP POP POP POP JUMP JUMPDEST PUSH2 0x24BC PUSH2 0x28D5 JUMP JUMPDEST PUSH20 0xFFFFFFFFFFFFFFFFFFFFFFFFFFFFFFFFFFFFFFFF AND PUSH2 0x24DA PUSH2 0x1543 JUMP JUMPDEST PUSH20 0xFFFFFFFFFFFFFFFFFFFFFFFFFFFFFFFFFFFFFFFF AND EQ PUSH2 0x2539 JUMPI PUSH2 0x24FD PUSH2 0x28D5 JUMP JUMPDEST PUSH1 0x40 MLOAD PUSH32 0x118CDAA700000000000000000000000000000000000000000000000000000000 DUP2 MSTORE PUSH1 0x4 ADD PUSH2 0x2530 SWAP2 SWAP1 PUSH2 0x2EAE JUMP JUMPDEST PUSH1 0x40 MLOAD DUP1 SWAP2 SUB SWAP1 REVERT JUMPDEST JUMP JUMPDEST PUSH0 PUSH2 0x2544 PUSH2 0x2677 JUMP JUMPDEST SWAP1 POP PUSH0 DUP2 PUSH0 ADD PUSH0 SWAP1 SLOAD SWAP1 PUSH2 0x100 EXP SWAP1 DIV PUSH20 0xFFFFFFFFFFFFFFFFFFFFFFFFFFFFFFFFFFFFFFFF AND SWAP1 POP DUP3 DUP3 PUSH0 ADD PUSH0 PUSH2 0x100 EXP DUP2 SLOAD DUP2 PUSH20 0xFFFFFFFFFFFFFFFFFFFFFFFFFFFFFFFFFFFFFFFF MUL NOT AND SWAP1 DUP4 PUSH20 0xFFFFFFFFFFFFFFFFFFFFFFFFFFFFFFFFFFFFFFFF AND MUL OR SWAP1 SSTORE POP DUP3 PUSH20 0xFFFFFFFFFFFFFFFFFFFFFFFFFFFFFFFFFFFFFFFF AND DUP2 PUSH20 0xFFFFFFFFFFFFFFFFFFFFFFFFFFFFFFFFFFFFFFFF AND PUSH32 0x8BE0079C531659141344CD1FD0A4F28419497F9722A3DAAFE3B4186F6B6457E0 PUSH1 0x40 MLOAD PUSH1 0x40 MLOAD DUP1 SWAP2 SUB SWAP1 LOG3 POP POP POP JUMP JUMPDEST PUSH0 PUSH2 0x2615 PUSH2 0x28DC JUMP JUMPDEST SWAP1 POP PUSH1 0x2 DUP2 PUSH0 ADD SLOAD SUB PUSH2 0x2654 JUMPI PUSH1 0x40 MLOAD PUSH32 0x3EE5AEB500000000000000000000000000000000000000000000000000000000 DUP2 MSTORE PUSH1 0x4 ADD PUSH1 0x40 MLOAD DUP1 SWAP2 SUB SWAP1 REVERT JUMPDEST PUSH1 0x2 DUP2 PUSH0 ADD DUP2 SWAP1 SSTORE POP POP JUMP JUMPDEST PUSH0 PUSH2 0x2669 PUSH2 0x28DC JUMP JUMPDEST SWAP1 POP PUSH1 0x1 DUP2 PUSH0 ADD DUP2 SWAP1 SSTORE POP POP JUMP JUMPDEST PUSH0 PUSH32 0x9016D09D72D40FDAE2FD8CEAC6B6234C7706214FD39C1CD1E609A0528C199300 SWAP1 POP SWAP1 JUMP JUMPDEST PUSH2 0x26A6 PUSH2 0x2903 JUMP JUMPDEST PUSH2 0x26DC JUMPI PUSH1 0x40 MLOAD PUSH32 0xD7E6BCF800000000000000000000000000000000000000000000000000000000 DUP2 MSTORE PUSH1 0x4 ADD PUSH1 0x40 MLOAD DUP1 SWAP2 SUB SWAP1 REVERT JUMPDEST JUMP JUMPDEST PUSH2 0x26E6 PUSH2 0x269E JUMP JUMPDEST PUSH0 PUSH20 0xFFFFFFFFFFFFFFFFFFFFFFFFFFFFFFFFFFFFFFFF AND DUP2 PUSH20 0xFFFFFFFFFFFFFFFFFFFFFFFFFFFFFFFFFFFFFFFF AND SUB PUSH2 0x2756 JUMPI PUSH0 PUSH1 0x40 MLOAD PUSH32 0x1E4FBDF700000000000000000000000000000000000000000000000000000000 DUP2 MSTORE PUSH1 0x4 ADD PUSH2 0x274D SWAP2 SWAP1 PUSH2 0x2EAE JUMP JUMPDEST PUSH1 0x40 MLOAD DUP1 SWAP2 SUB SWAP1 REVERT JUMPDEST PUSH2 0x275F DUP2 PUSH2 0x253B JUMP JUMPDEST POP JUMP JUMPDEST PUSH2 0x276A PUSH2 0x269E JUMP JUMPDEST PUSH0 PUSH2 0x2773 PUSH2 0x28DC JUMP JUMPDEST SWAP1 POP PUSH1 0x1 DUP2 PUSH0 ADD DUP2 SWAP1 SSTORE POP POP JUMP JUMPDEST PUSH0 DUP1 PUSH0 DUP5 PUSH20 0xFFFFFFFFFFFFFFFFFFFFFFFFFFFFFFFFFFFFFFFF AND DUP5 PUSH1 0x40 MLOAD PUSH2 0x27A9 SWAP2 SWAP1 PUSH2 0x3134 JUMP JUMPDEST PUSH0 PUSH1 0x40 MLOAD DUP1 DUP4 SUB DUP2 PUSH0 DUP7 GAS CALL SWAP2 POP POP RETURNDATASIZE DUP1 PUSH0 DUP2 EQ PUSH2 0x27E2 JUMPI PUSH1 0x40 MLOAD SWAP2 POP PUSH1 0x1F NOT PUSH1 0x3F RETURNDATASIZE ADD AND DUP3 ADD PUSH1 0x40 MSTORE RETURNDATASIZE DUP3 MSTORE RETURNDATASIZE PUSH0 PUSH1 0x20 DUP5 ADD RETURNDATACOPY PUSH2 0x27E7 JUMP JUMPDEST PUSH1 0x60 SWAP2 POP JUMPDEST POP SWAP2 POP SWAP2 POP DUP2 DUP1 ISZERO PUSH2 0x2814 JUMPI POP PUSH0 DUP2 MLOAD EQ DUP1 PUSH2 0x2813 JUMPI POP DUP1 DUP1 PUSH1 0x20 ADD SWAP1 MLOAD DUP2 ADD SWAP1 PUSH2 0x2812 SWAP2 SWAP1 PUSH2 0x3BB3 JUMP JUMPDEST JUMPDEST JUMPDEST DUP1 ISZERO PUSH2 0x2836 JUMPI POP PUSH0 DUP6 PUSH20 0xFFFFFFFFFFFFFFFFFFFFFFFFFFFFFFFFFFFFFFFF AND EXTCODESIZE GT JUMPDEST SWAP3 POP POP POP SWAP3 SWAP2 POP POP JUMP JUMPDEST PUSH0 PUSH2 0x286A DUP3 DUP5 PUSH20 0xFFFFFFFFFFFFFFFFFFFFFFFFFFFFFFFFFFFFFFFF AND PUSH2 0x2921 SWAP1 SWAP2 SWAP1 PUSH4 0xFFFFFFFF AND JUMP JUMPDEST SWAP1 POP PUSH0 DUP2 MLOAD EQ ISZERO DUP1 ISZERO PUSH2 0x288E JUMPI POP DUP1 DUP1 PUSH1 0x20 ADD SWAP1 MLOAD DUP2 ADD SWAP1 PUSH2 0x288C SWAP2 SWAP1 PUSH2 0x3BB3 JUMP JUMPDEST ISZERO JUMPDEST ISZERO PUSH2 0x28D0 JUMPI DUP3 PUSH1 0x40 MLOAD PUSH32 0x5274AFE700000000000000000000000000000000000000000000000000000000 DUP2 MSTORE PUSH1 0x4 ADD PUSH2 0x28C7 SWAP2 SWAP1 PUSH2 0x2EAE JUMP JUMPDEST PUSH1 0x40 MLOAD DUP1 SWAP2 SUB SWAP1 REVERT JUMPDEST POP POP POP JUMP JUMPDEST PUSH0 CALLER SWAP1 POP SWAP1 JUMP JUMPDEST PUSH0 PUSH32 0x9B779B17422D0DF92223018B32B4D1FA46E071723D6817E2486D003BECC55F00 SWAP1 POP SWAP1 JUMP JUMPDEST PUSH0 PUSH2 0x290C PUSH2 0x22B0 JUMP JUMPDEST PUSH0 ADD PUSH1 0x8 SWAP1 SLOAD SWAP1 PUSH2 0x100 EXP SWAP1 DIV PUSH1 0xFF AND SWAP1 POP SWAP1 JUMP JUMPDEST PUSH1 0x60 PUSH2 0x292E DUP4 DUP4 PUSH0 PUSH2 0x2936 JUMP JUMPDEST SWAP1 POP SWAP3 SWAP2 POP POP JUMP JUMPDEST PUSH1 0x60 DUP2 SELFBALANCE LT ISZERO PUSH2 0x297D JUMPI ADDRESS PUSH1 0x40 MLOAD PUSH32 0xCD78605900000000000000000000000000000000000000000000000000000000 DUP2 MSTORE PUSH1 0x4 ADD PUSH2 0x2974 SWAP2 SWAP1 PUSH2 0x2EAE JUMP JUMPDEST PUSH1 0x40 MLOAD DUP1 SWAP2 SUB SWAP1 REVERT JUMPDEST PUSH0 DUP1 DUP6 PUSH20 0xFFFFFFFFFFFFFFFFFFFFFFFFFFFFFFFFFFFFFFFF AND DUP5 DUP7 PUSH1 0x40 MLOAD PUSH2 0x29A5 SWAP2 SWAP1 PUSH2 0x3134 JUMP JUMPDEST PUSH0 PUSH1 0x40 MLOAD DUP1 DUP4 SUB DUP2 DUP6 DUP8 GAS CALL SWAP3 POP POP POP RETURNDATASIZE DUP1 PUSH0 DUP2 EQ PUSH2 0x29DF JUMPI PUSH1 0x40 MLOAD SWAP2 POP PUSH1 0x1F NOT PUSH1 0x3F RETURNDATASIZE ADD AND DUP3 ADD PUSH1 0x40 MSTORE RETURNDATASIZE DUP3 MSTORE RETURNDATASIZE PUSH0 PUSH1 0x20 DUP5 ADD RETURNDATACOPY PUSH2 0x29E4 JUMP JUMPDEST PUSH1 0x60 SWAP2 POP JUMPDEST POP SWAP2 POP SWAP2 POP PUSH2 0x29F4 DUP7 DUP4 DUP4 PUSH2 0x29FF JUMP JUMPDEST SWAP3 POP POP POP SWAP4 SWAP3 POP POP POP JUMP JUMPDEST PUSH1 0x60 DUP3 PUSH2 0x2A14 JUMPI PUSH2 0x2A0F DUP3 PUSH2 0x2A8C JUMP JUMPDEST PUSH2 0x2A84 JUMP JUMPDEST PUSH0 DUP3 MLOAD EQ DUP1 ISZERO PUSH2 0x2A3A JUMPI POP PUSH0 DUP5 PUSH20 0xFFFFFFFFFFFFFFFFFFFFFFFFFFFFFFFFFFFFFFFF AND EXTCODESIZE EQ JUMPDEST ISZERO PUSH2 0x2A7C JUMPI DUP4 PUSH1 0x40 MLOAD PUSH32 0x9996B31500000000000000000000000000000000000000000000000000000000 DUP2 MSTORE PUSH1 0x4 ADD PUSH2 0x2A73 SWAP2 SWAP1 PUSH2 0x2EAE JUMP JUMPDEST PUSH1 0x40 MLOAD DUP1 SWAP2 SUB SWAP1 REVERT JUMPDEST DUP2 SWAP1 POP PUSH2 0x2A85 JUMP JUMPDEST JUMPDEST SWAP4 SWAP3 POP POP POP JUMP JUMPDEST PUSH0 DUP2 MLOAD GT ISZERO PUSH2 0x2A9E JUMPI DUP1 MLOAD DUP1 DUP3 PUSH1 0x20 ADD REVERT JUMPDEST PUSH1 0x40 MLOAD PUSH32 0x1425EA4200000000000000000000000000000000000000000000000000000000 DUP2 MSTORE PUSH1 0x4 ADD PUSH1 0x40 MLOAD DUP1 SWAP2 SUB SWAP1 REVERT JUMPDEST PUSH0 PUSH20 0xFFFFFFFFFFFFFFFFFFFFFFFFFFFFFFFFFFFFFFFF DUP3 AND SWAP1 POP SWAP2 SWAP1 POP JUMP JUMPDEST PUSH0 DUP2 SWAP1 POP SWAP2 SWAP1 POP JUMP JUMPDEST PUSH0 PUSH2 0x2B12 PUSH2 0x2B0D PUSH2 0x2B08 DUP5 PUSH2 0x2AD0 JUMP JUMPDEST PUSH2 0x2AEF JUMP JUMPDEST PUSH2 0x2AD0 JUMP JUMPDEST SWAP1 POP SWAP2 SWAP1 POP JUMP JUMPDEST PUSH0 PUSH2 0x2B23 DUP3 PUSH2 0x2AF8 JUMP JUMPDEST SWAP1 POP SWAP2 SWAP1 POP JUMP JUMPDEST PUSH0 PUSH2 0x2B34 DUP3 PUSH2 0x2B19 JUMP JUMPDEST SWAP1 POP SWAP2 SWAP1 POP JUMP JUMPDEST PUSH2 0x2B44 DUP2 PUSH2 0x2B2A JUMP JUMPDEST DUP3 MSTORE POP POP JUMP JUMPDEST PUSH0 PUSH1 0x20 DUP3 ADD SWAP1 POP PUSH2 0x2B5D PUSH0 DUP4 ADD DUP5 PUSH2 0x2B3B JUMP JUMPDEST SWAP3 SWAP2 POP POP JUMP JUMPDEST PUSH0 DUP1 REVERT JUMPDEST PUSH0 PUSH2 0x2B71 DUP3 PUSH2 0x2AD0 JUMP JUMPDEST SWAP1 POP SWAP2 SWAP1 POP JUMP JUMPDEST PUSH2 0x2B81 DUP2 PUSH2 0x2B67 JUMP JUMPDEST DUP2 EQ PUSH2 0x2B8B JUMPI PUSH0 DUP1 REVERT JUMPDEST POP JUMP JUMPDEST PUSH0 DUP2 CALLDATALOAD SWAP1 POP PUSH2 0x2B9C DUP2 PUSH2 0x2B78 JUMP JUMPDEST SWAP3 SWAP2 POP POP JUMP JUMPDEST PUSH0 DUP2 SWAP1 POP SWAP2 SWAP1 POP JUMP JUMPDEST PUSH2 0x2BB4 DUP2 PUSH2 0x2BA2 JUMP JUMPDEST DUP2 EQ PUSH2 0x2BBE JUMPI PUSH0 DUP1 REVERT JUMPDEST POP JUMP JUMPDEST PUSH0 DUP2 CALLDATALOAD SWAP1 POP PUSH2 0x2BCF DUP2 PUSH2 0x2BAB JUMP JUMPDEST SWAP3 SWAP2 POP POP JUMP JUMPDEST PUSH0 DUP1 PUSH0 PUSH1 0x60 DUP5 DUP7 SUB SLT ISZERO PUSH2 0x2BEC JUMPI PUSH2 0x2BEB PUSH2 0x2B63 JUMP JUMPDEST JUMPDEST PUSH0 PUSH2 0x2BF9 DUP7 DUP3 DUP8 ADD PUSH2 0x2B8E JUMP JUMPDEST SWAP4 POP POP PUSH1 0x20 PUSH2 0x2C0A DUP7 DUP3 DUP8 ADD PUSH2 0x2BC1 JUMP JUMPDEST SWAP3 POP POP PUSH1 0x40 PUSH2 0x2C1B DUP7 DUP3 DUP8 ADD PUSH2 0x2BC1 JUMP JUMPDEST SWAP2 POP POP SWAP3 POP SWAP3 POP SWAP3 JUMP JUMPDEST PUSH2 0x2C2E DUP2 PUSH2 0x2BA2 JUMP JUMPDEST DUP3 MSTORE POP POP JUMP JUMPDEST PUSH0 PUSH1 0x20 DUP3 ADD SWAP1 POP PUSH2 0x2C47 PUSH0 DUP4 ADD DUP5 PUSH2 0x2C25 JUMP JUMPDEST SWAP3 SWAP2 POP POP JUMP JUMPDEST PUSH0 PUSH1 0x80 DUP3 ADD SWAP1 POP PUSH2 0x2C60 PUSH0 DUP4 ADD DUP8 PUSH2 0x2C25 JUMP JUMPDEST PUSH2 0x2C6D PUSH1 0x20 DUP4 ADD DUP7 PUSH2 0x2C25 JUMP JUMPDEST PUSH2 0x2C7A PUSH1 0x40 DUP4 ADD DUP6 PUSH2 0x2C25 JUMP JUMPDEST PUSH2 0x2C87 PUSH1 0x60 DUP4 ADD DUP5 PUSH2 0x2C25 JUMP JUMPDEST SWAP6 SWAP5 POP POP POP POP POP JUMP JUMPDEST PUSH0 PUSH1 0x20 DUP3 DUP5 SUB SLT ISZERO PUSH2 0x2CA5 JUMPI PUSH2 0x2CA4 PUSH2 0x2B63 JUMP JUMPDEST JUMPDEST PUSH0 PUSH2 0x2CB2 DUP5 DUP3 DUP6 ADD PUSH2 0x2B8E JUMP JUMPDEST SWAP2 POP POP SWAP3 SWAP2 POP POP JUMP JUMPDEST PUSH0 DUP2 ISZERO ISZERO SWAP1 POP SWAP2 SWAP1 POP JUMP JUMPDEST PUSH2 0x2CCF DUP2 PUSH2 0x2CBB JUMP JUMPDEST DUP3 MSTORE POP POP JUMP JUMPDEST PUSH0 PUSH1 0x20 DUP3 ADD SWAP1 POP PUSH2 0x2CE8 PUSH0 DUP4 ADD DUP5 PUSH2 0x2CC6 JUMP JUMPDEST SWAP3 SWAP2 POP POP JUMP JUMPDEST PUSH0 PUSH2 0x2CF8 DUP3 PUSH2 0x2B67 JUMP JUMPDEST SWAP1 POP SWAP2 SWAP1 POP JUMP JUMPDEST PUSH2 0x2D08 DUP2 PUSH2 0x2CEE JUMP JUMPDEST DUP2 EQ PUSH2 0x2D12 JUMPI PUSH0 DUP1 REVERT JUMPDEST POP JUMP JUMPDEST PUSH0 DUP2 CALLDATALOAD SWAP1 POP PUSH2 0x2D23 DUP2 PUSH2 0x2CFF JUMP JUMPDEST SWAP3 SWAP2 POP POP JUMP JUMPDEST PUSH0 PUSH2 0x2D33 DUP3 PUSH2 0x2B67 JUMP JUMPDEST SWAP1 POP SWAP2 SWAP1 POP JUMP JUMPDEST PUSH2 0x2D43 DUP2 PUSH2 0x2D29 JUMP JUMPDEST DUP2 EQ PUSH2 0x2D4D JUMPI PUSH0 DUP1 REVERT JUMPDEST POP JUMP JUMPDEST PUSH0 DUP2 CALLDATALOAD SWAP1 POP PUSH2 0x2D5E DUP2 PUSH2 0x2D3A JUMP JUMPDEST SWAP3 SWAP2 POP POP JUMP JUMPDEST PUSH0 PUSH2 0x2D6E DUP3 PUSH2 0x2B67 JUMP JUMPDEST SWAP1 POP SWAP2 SWAP1 POP JUMP JUMPDEST PUSH2 0x2D7E DUP2 PUSH2 0x2D64 JUMP JUMPDEST DUP2 EQ PUSH2 0x2D88 JUMPI PUSH0 DUP1 REVERT JUMPDEST POP JUMP JUMPDEST PUSH0 DUP2 CALLDATALOAD SWAP1 POP PUSH2 0x2D99 DUP2 PUSH2 0x2D75 JUMP JUMPDEST SWAP3 SWAP2 POP POP JUMP JUMPDEST PUSH0 DUP1 PUSH0 DUP1 PUSH0 DUP1 PUSH1 0xC0 DUP8 DUP10 SUB SLT ISZERO PUSH2 0x2DB9 JUMPI PUSH2 0x2DB8 PUSH2 0x2B63 JUMP JUMPDEST JUMPDEST PUSH0 PUSH2 0x2DC6 DUP10 DUP3 DUP11 ADD PUSH2 0x2D15 JUMP JUMPDEST SWAP7 POP POP PUSH1 0x20 PUSH2 0x2DD7 DUP10 DUP3 DUP11 ADD PUSH2 0x2D50 JUMP JUMPDEST SWAP6 POP POP PUSH1 0x40 PUSH2 0x2DE8 DUP10 DUP3 DUP11 ADD PUSH2 0x2D8B JUMP JUMPDEST SWAP5 POP POP PUSH1 0x60 PUSH2 0x2DF9 DUP10 DUP3 DUP11 ADD PUSH2 0x2BC1 JUMP JUMPDEST SWAP4 POP POP PUSH1 0x80 PUSH2 0x2E0A DUP10 DUP3 DUP11 ADD PUSH2 0x2B8E JUMP JUMPDEST SWAP3 POP POP PUSH1 0xA0 PUSH2 0x2E1B DUP10 DUP3 DUP11 ADD PUSH2 0x2B8E JUMP JUMPDEST SWAP2 POP POP SWAP3 SWAP6 POP SWAP3 SWAP6 POP SWAP3 SWAP6 JUMP JUMPDEST PUSH0 DUP1 PUSH1 0x40 DUP4 DUP6 SUB SLT ISZERO PUSH2 0x2E3E JUMPI PUSH2 0x2E3D PUSH2 0x2B63 JUMP JUMPDEST JUMPDEST PUSH0 PUSH2 0x2E4B DUP6 DUP3 DUP7 ADD PUSH2 0x2BC1 JUMP JUMPDEST SWAP3 POP POP PUSH1 0x20 PUSH2 0x2E5C DUP6 DUP3 DUP7 ADD PUSH2 0x2BC1 JUMP JUMPDEST SWAP2 POP POP SWAP3 POP SWAP3 SWAP1 POP JUMP JUMPDEST PUSH0 PUSH2 0x2E70 DUP3 PUSH2 0x2B19 JUMP JUMPDEST SWAP1 POP SWAP2 SWAP1 POP JUMP JUMPDEST PUSH2 0x2E80 DUP2 PUSH2 0x2E66 JUMP JUMPDEST DUP3 MSTORE POP POP JUMP JUMPDEST PUSH0 PUSH1 0x20 DUP3 ADD SWAP1 POP PUSH2 0x2E99 PUSH0 DUP4 ADD DUP5 PUSH2 0x2E77 JUMP JUMPDEST SWAP3 SWAP2 POP POP JUMP JUMPDEST PUSH2 0x2EA8 DUP2 PUSH2 0x2B67 JUMP JUMPDEST DUP3 MSTORE POP POP JUMP JUMPDEST PUSH0 PUSH1 0x20 DUP3 ADD SWAP1 POP PUSH2 0x2EC1 PUSH0 DUP4 ADD DUP5 PUSH2 0x2E9F JUMP JUMPDEST SWAP3 SWAP2 POP POP JUMP JUMPDEST PUSH0 PUSH4 0xFFFFFFFF DUP3 AND SWAP1 POP SWAP2 SWAP1 POP JUMP JUMPDEST PUSH2 0x2EDF DUP2 PUSH2 0x2EC7 JUMP JUMPDEST DUP3 MSTORE POP POP JUMP JUMPDEST PUSH0 PUSH12 0xFFFFFFFFFFFFFFFFFFFFFFFF DUP3 AND SWAP1 POP SWAP2 SWAP1 POP JUMP JUMPDEST PUSH2 0x2F05 DUP2 PUSH2 0x2EE5 JUMP JUMPDEST DUP3 MSTORE POP POP JUMP JUMPDEST PUSH0 PUSH1 0x60 DUP3 ADD SWAP1 POP PUSH2 0x2F1E PUSH0 DUP4 ADD DUP7 PUSH2 0x2ED6 JUMP JUMPDEST PUSH2 0x2F2B PUSH1 0x20 DUP4 ADD DUP6 PUSH2 0x2ED6 JUMP JUMPDEST PUSH2 0x2F38 PUSH1 0x40 DUP4 ADD DUP5 PUSH2 0x2EFC JUMP JUMPDEST SWAP5 SWAP4 POP POP POP POP JUMP JUMPDEST PUSH0 PUSH1 0x20 DUP3 DUP5 SUB SLT ISZERO PUSH2 0x2F55 JUMPI PUSH2 0x2F54 PUSH2 0x2B63 JUMP JUMPDEST JUMPDEST PUSH0 PUSH2 0x2F62 DUP5 DUP3 DUP6 ADD PUSH2 0x2BC1 JUMP JUMPDEST SWAP2 POP POP SWAP3 SWAP2 POP POP JUMP JUMPDEST PUSH0 PUSH2 0x2F75 DUP3 PUSH2 0x2B19 JUMP JUMPDEST SWAP1 POP SWAP2 SWAP1 POP JUMP JUMPDEST PUSH2 0x2F85 DUP2 PUSH2 0x2F6B JUMP JUMPDEST DUP3 MSTORE POP POP JUMP JUMPDEST PUSH0 PUSH1 0x20 DUP3 ADD SWAP1 POP PUSH2 0x2F9E PUSH0 DUP4 ADD DUP5 PUSH2 0x2F7C JUMP JUMPDEST SWAP3 SWAP2 POP POP JUMP JUMPDEST PUSH0 PUSH1 0x60 DUP3 ADD SWAP1 POP PUSH2 0x2FB7 PUSH0 DUP4 ADD DUP7 PUSH2 0x2E9F JUMP JUMPDEST PUSH2 0x2FC4 PUSH1 0x20 DUP4 ADD DUP6 PUSH2 0x2C25 JUMP JUMPDEST PUSH2 0x2FD1 PUSH1 0x40 DUP4 ADD DUP5 PUSH2 0x2C25 JUMP JUMPDEST SWAP5 SWAP4 POP POP POP POP JUMP JUMPDEST PUSH0 DUP2 MLOAD SWAP1 POP PUSH2 0x2FE7 DUP2 PUSH2 0x2BAB JUMP JUMPDEST SWAP3 SWAP2 POP POP JUMP JUMPDEST PUSH0 PUSH1 0x20 DUP3 DUP5 SUB SLT ISZERO PUSH2 0x3002 JUMPI PUSH2 0x3001 PUSH2 0x2B63 JUMP JUMPDEST JUMPDEST PUSH0 PUSH2 0x300F DUP5 DUP3 DUP6 ADD PUSH2 0x2FD9 JUMP JUMPDEST SWAP2 POP POP SWAP3 SWAP2 POP POP JUMP JUMPDEST PUSH0 DUP2 PUSH1 0x60 SHL SWAP1 POP SWAP2 SWAP1 POP JUMP JUMPDEST PUSH0 PUSH2 0x302E DUP3 PUSH2 0x3018 JUMP JUMPDEST SWAP1 POP SWAP2 SWAP1 POP JUMP JUMPDEST PUSH0 PUSH2 0x303F DUP3 PUSH2 0x3024 JUMP JUMPDEST SWAP1 POP SWAP2 SWAP1 POP JUMP JUMPDEST PUSH2 0x3057 PUSH2 0x3052 DUP3 PUSH2 0x2B67 JUMP JUMPDEST PUSH2 0x3035 JUMP JUMPDEST DUP3 MSTORE POP POP JUMP JUMPDEST PUSH0 DUP2 MLOAD SWAP1 POP SWAP2 SWAP1 POP JUMP JUMPDEST PUSH0 DUP2 SWAP1 POP SWAP3 SWAP2 POP POP JUMP JUMPDEST PUSH0 JUMPDEST DUP4 DUP2 LT ISZERO PUSH2 0x308E JUMPI DUP1 DUP3 ADD MLOAD DUP2 DUP5 ADD MSTORE PUSH1 0x20 DUP2 ADD SWAP1 POP PUSH2 0x3073 JUMP JUMPDEST PUSH0 DUP5 DUP5 ADD MSTORE POP POP POP POP JUMP JUMPDEST PUSH0 PUSH2 0x30A3 DUP3 PUSH2 0x305D JUMP JUMPDEST PUSH2 0x30AD DUP2 DUP6 PUSH2 0x3067 JUMP JUMPDEST SWAP4 POP PUSH2 0x30BD DUP2 DUP6 PUSH1 0x20 DUP7 ADD PUSH2 0x3071 JUMP JUMPDEST DUP1 DUP5 ADD SWAP2 POP POP SWAP3 SWAP2 POP POP JUMP JUMPDEST PUSH0 PUSH2 0x30D4 DUP3 DUP6 PUSH2 0x3046 JUMP JUMPDEST PUSH1 0x14 DUP3 ADD SWAP2 POP PUSH2 0x30E4 DUP3 DUP5 PUSH2 0x3099 JUMP JUMPDEST SWAP2 POP DUP2 SWAP1 POP SWAP4 SWAP3 POP POP POP JUMP JUMPDEST PUSH0 DUP2 MLOAD SWAP1 POP SWAP2 SWAP1 POP JUMP JUMPDEST PUSH0 DUP2 SWAP1 POP SWAP3 SWAP2 POP POP JUMP JUMPDEST PUSH0 PUSH2 0x310E DUP3 PUSH2 0x30F0 JUMP JUMPDEST PUSH2 0x3118 DUP2 DUP6 PUSH2 0x30FA JUMP JUMPDEST SWAP4 POP PUSH2 0x3128 DUP2 DUP6 PUSH1 0x20 DUP7 ADD PUSH2 0x3071 JUMP JUMPDEST DUP1 DUP5 ADD SWAP2 POP POP SWAP3 SWAP2 POP POP JUMP JUMPDEST PUSH0 PUSH2 0x313F DUP3 DUP5 PUSH2 0x3104 JUMP JUMPDEST SWAP2 POP DUP2 SWAP1 POP SWAP3 SWAP2 POP POP JUMP JUMPDEST PUSH0 DUP3 DUP3 MSTORE PUSH1 0x20 DUP3 ADD SWAP1 POP SWAP3 SWAP2 POP POP JUMP JUMPDEST PUSH32 0x76654141484D616E616765723A206765742061737065637420636F6E74656374 PUSH0 DUP3 ADD MSTORE PUSH32 0x206572726F720000000000000000000000000000000000000000000000000000 PUSH1 0x20 DUP3 ADD MSTORE POP JUMP JUMPDEST PUSH0 PUSH2 0x31B4 PUSH1 0x26 DUP4 PUSH2 0x314A JUMP JUMPDEST SWAP2 POP PUSH2 0x31BF DUP3 PUSH2 0x315A JUMP JUMPDEST PUSH1 0x40 DUP3 ADD SWAP1 POP SWAP2 SWAP1 POP JUMP JUMPDEST PUSH0 PUSH1 0x20 DUP3 ADD SWAP1 POP DUP2 DUP2 SUB PUSH0 DUP4 ADD MSTORE PUSH2 0x31E1 DUP2 PUSH2 0x31A8 JUMP JUMPDEST SWAP1 POP SWAP2 SWAP1 POP JUMP JUMPDEST PUSH32 0x76654141484D616E616765723A2053746172742074696D65206D757374206265 PUSH0 DUP3 ADD MSTORE PUSH32 0x2067726561746572207468616E2074686520626C6F636B2074696D657374616D PUSH1 0x20 DUP3 ADD MSTORE PUSH32 0x7000000000000000000000000000000000000000000000000000000000000000 PUSH1 0x40 DUP3 ADD MSTORE POP JUMP JUMPDEST PUSH0 PUSH2 0x3268 PUSH1 0x41 DUP4 PUSH2 0x314A JUMP JUMPDEST SWAP2 POP PUSH2 0x3273 DUP3 PUSH2 0x31E8 JUMP JUMPDEST PUSH1 0x60 DUP3 ADD SWAP1 POP SWAP2 SWAP1 POP JUMP JUMPDEST PUSH0 PUSH1 0x20 DUP3 ADD SWAP1 POP DUP2 DUP2 SUB PUSH0 DUP4 ADD MSTORE PUSH2 0x3295 DUP2 PUSH2 0x325C JUMP JUMPDEST SWAP1 POP SWAP2 SWAP1 POP JUMP JUMPDEST PUSH0 DUP2 SWAP1 POP SWAP2 SWAP1 POP JUMP JUMPDEST PUSH0 PUSH8 0xFFFFFFFFFFFFFFFF DUP3 AND SWAP1 POP SWAP2 SWAP1 POP JUMP JUMPDEST PUSH0 PUSH2 0x32D2 PUSH2 0x32CD PUSH2 0x32C8 DUP5 PUSH2 0x329C JUMP JUMPDEST PUSH2 0x2AEF JUMP JUMPDEST PUSH2 0x32A5 JUMP JUMPDEST SWAP1 POP SWAP2 SWAP1 POP JUMP JUMPDEST PUSH2 0x32E2 DUP2 PUSH2 0x32B8 JUMP JUMPDEST DUP3 MSTORE POP POP JUMP JUMPDEST PUSH0 PUSH1 0x20 DUP3 ADD SWAP1 POP PUSH2 0x32FB PUSH0 DUP4 ADD DUP5 PUSH2 0x32D9 JUMP JUMPDEST SWAP3 SWAP2 POP POP JUMP JUMPDEST PUSH32 0x4E487B7100000000000000000000000000000000000000000000000000000000 PUSH0 MSTORE PUSH1 0x11 PUSH1 0x4 MSTORE PUSH1 0x24 PUSH0 REVERT JUMPDEST PUSH0 PUSH2 0x3338 DUP3 PUSH2 0x2BA2 JUMP JUMPDEST SWAP2 POP PUSH2 0x3343 DUP4 PUSH2 0x2BA2 JUMP JUMPDEST SWAP3 POP DUP3 DUP3 SUB SWAP1 POP DUP2 DUP2 GT ISZERO PUSH2 0x335B JUMPI PUSH2 0x335A PUSH2 0x3301 JUMP JUMPDEST JUMPDEST SWAP3 SWAP2 POP POP JUMP JUMPDEST PUSH2 0x336A DUP2 PUSH2 0x2EC7 JUMP JUMPDEST DUP2 EQ PUSH2 0x3374 JUMPI PUSH0 DUP1 REVERT JUMPDEST POP JUMP JUMPDEST PUSH0 DUP2 MLOAD SWAP1 POP PUSH2 0x3385 DUP2 PUSH2 0x3361 JUMP JUMPDEST SWAP3 SWAP2 POP POP JUMP JUMPDEST PUSH2 0x3394 DUP2 PUSH2 0x2EE5 JUMP JUMPDEST DUP2 EQ PUSH2 0x339E JUMPI PUSH0 DUP1 REVERT JUMPDEST POP JUMP JUMPDEST PUSH0 DUP2 MLOAD SWAP1 POP PUSH2 0x33AF DUP2 PUSH2 0x338B JUMP JUMPDEST SWAP3 SWAP2 POP POP JUMP JUMPDEST PUSH0 DUP1 PUSH0 PUSH1 0x60 DUP5 DUP7 SUB SLT ISZERO PUSH2 0x33CC JUMPI PUSH2 0x33CB PUSH2 0x2B63 JUMP JUMPDEST JUMPDEST PUSH0 PUSH2 0x33D9 DUP7 DUP3 DUP8 ADD PUSH2 0x3377 JUMP JUMPDEST SWAP4 POP POP PUSH1 0x20 PUSH2 0x33EA DUP7 DUP3 DUP8 ADD PUSH2 0x3377 JUMP JUMPDEST SWAP3 POP POP PUSH1 0x40 PUSH2 0x33FB DUP7 DUP3 DUP8 ADD PUSH2 0x33A1 JUMP JUMPDEST SWAP2 POP POP SWAP3 POP SWAP3 POP SWAP3 JUMP JUMPDEST PUSH0 PUSH2 0x340F DUP3 PUSH2 0x2BA2 JUMP JUMPDEST SWAP2 POP PUSH2 0x341A DUP4 PUSH2 0x2BA2 JUMP JUMPDEST SWAP3 POP DUP3 DUP3 MUL PUSH2 0x3428 DUP2 PUSH2 0x2BA2 JUMP JUMPDEST SWAP2 POP DUP3 DUP3 DIV DUP5 EQ DUP4 ISZERO OR PUSH2 0x343F JUMPI PUSH2 0x343E PUSH2 0x3301 JUMP JUMPDEST JUMPDEST POP SWAP3 SWAP2 POP POP JUMP JUMPDEST PUSH32 0x4E487B7100000000000000000000000000000000000000000000000000000000 PUSH0 MSTORE PUSH1 0x12 PUSH1 0x4 MSTORE PUSH1 0x24 PUSH0 REVERT JUMPDEST PUSH0 PUSH2 0x347D DUP3 PUSH2 0x2BA2 JUMP JUMPDEST SWAP2 POP PUSH2 0x3488 DUP4 PUSH2 0x2BA2 JUMP JUMPDEST SWAP3 POP DUP3 PUSH2 0x3498 JUMPI PUSH2 0x3497 PUSH2 0x3446 JUMP JUMPDEST JUMPDEST DUP3 DUP3 DIV SWAP1 POP SWAP3 SWAP2 POP POP JUMP JUMPDEST PUSH32 0x76654141484D616E616765723A205374616B6520616D6F756E742063616E206E PUSH0 DUP3 ADD MSTORE PUSH32 0x6F74206265207A65726F21000000000000000000000000000000000000000000 PUSH1 0x20 DUP3 ADD MSTORE POP JUMP JUMPDEST PUSH0 PUSH2 0x34FD PUSH1 0x2B DUP4 PUSH2 0x314A JUMP JUMPDEST SWAP2 POP PUSH2 0x3508 DUP3 PUSH2 0x34A3 JUMP JUMPDEST PUSH1 0x40 DUP3 ADD SWAP1 POP SWAP2 SWAP1 POP JUMP JUMPDEST PUSH0 PUSH1 0x20 DUP3 ADD SWAP1 POP DUP2 DUP2 SUB PUSH0 DUP4 ADD MSTORE PUSH2 0x352A DUP2 PUSH2 0x34F1 JUMP JUMPDEST SWAP1 POP SWAP2 SWAP1 POP JUMP JUMPDEST PUSH32 0x76654141484D616E616765723A204475652074696D65206D7573742062652067 PUSH0 DUP3 ADD MSTORE PUSH32 0x726561746572207468616E207468652063757272656E742074696D6500000000 PUSH1 0x20 DUP3 ADD MSTORE POP JUMP JUMPDEST PUSH0 PUSH2 0x358B PUSH1 0x3C DUP4 PUSH2 0x314A JUMP JUMPDEST SWAP2 POP PUSH2 0x3596 DUP3 PUSH2 0x3531 JUMP JUMPDEST PUSH1 0x40 DUP3 ADD SWAP1 POP SWAP2 SWAP1 POP JUMP JUMPDEST PUSH0 PUSH1 0x20 DUP3 ADD SWAP1 POP DUP2 DUP2 SUB PUSH0 DUP4 ADD MSTORE PUSH2 0x35B8 DUP2 PUSH2 0x357F JUMP JUMPDEST SWAP1 POP SWAP2 SWAP1 POP JUMP JUMPDEST PUSH0 PUSH2 0x35C9 DUP3 PUSH2 0x2BA2 JUMP JUMPDEST SWAP2 POP PUSH2 0x35D4 DUP4 PUSH2 0x2BA2 JUMP JUMPDEST SWAP3 POP DUP3 PUSH2 0x35E4 JUMPI PUSH2 0x35E3 PUSH2 0x3446 JUMP JUMPDEST JUMPDEST DUP3 DUP3 MOD SWAP1 POP SWAP3 SWAP2 POP POP JUMP JUMPDEST PUSH32 0x76654141484D616E616765723A20546865206D696E696D756D20737465702073 PUSH0 DUP3 ADD MSTORE PUSH32 0x697A65206D75737420626520604D494E5F535445506000000000000000000000 PUSH1 0x20 DUP3 ADD MSTORE POP JUMP JUMPDEST PUSH0 PUSH2 0x3649 PUSH1 0x36 DUP4 PUSH2 0x314A JUMP JUMPDEST SWAP2 POP PUSH2 0x3654 DUP3 PUSH2 0x35EF JUMP JUMPDEST PUSH1 0x40 DUP3 ADD SWAP1 POP SWAP2 SWAP1 POP JUMP JUMPDEST PUSH0 PUSH1 0x20 DUP3 ADD SWAP1 POP DUP2 DUP2 SUB PUSH0 DUP4 ADD MSTORE PUSH2 0x3676 DUP2 PUSH2 0x363D JUMP JUMPDEST SWAP1 POP SWAP2 SWAP1 POP JUMP JUMPDEST PUSH0 PUSH1 0x20 DUP3 DUP5 SUB SLT ISZERO PUSH2 0x3692 JUMPI PUSH2 0x3691 PUSH2 0x2B63 JUMP JUMPDEST JUMPDEST PUSH0 PUSH2 0x369F DUP5 DUP3 DUP6 ADD PUSH2 0x33A1 JUMP JUMPDEST SWAP2 POP POP SWAP3 SWAP2 POP POP JUMP JUMPDEST PUSH0 DUP2 SWAP1 POP SWAP2 SWAP1 POP JUMP JUMPDEST PUSH2 0x36C2 PUSH2 0x36BD DUP3 PUSH2 0x2BA2 JUMP JUMPDEST PUSH2 0x36A8 JUMP JUMPDEST DUP3 MSTORE POP POP JUMP JUMPDEST PUSH32 0x2C00000000000000000000000000000000000000000000000000000000000000 PUSH0 DUP3 ADD MSTORE POP JUMP JUMPDEST PUSH0 PUSH2 0x36FC PUSH1 0x1 DUP4 PUSH2 0x3067 JUMP JUMPDEST SWAP2 POP PUSH2 0x3707 DUP3 PUSH2 0x36C8 JUMP JUMPDEST PUSH1 0x1 DUP3 ADD SWAP1 POP SWAP2 SWAP1 POP JUMP JUMPDEST PUSH0 PUSH2 0x371D DUP3 DUP6 PUSH2 0x36B1 JUMP JUMPDEST PUSH1 0x20 DUP3 ADD SWAP2 POP PUSH2 0x372C DUP3 PUSH2 0x36F0 JUMP JUMPDEST SWAP2 POP PUSH2 0x3738 DUP3 DUP5 PUSH2 0x36B1 JUMP JUMPDEST PUSH1 0x20 DUP3 ADD SWAP2 POP DUP2 SWAP1 POP SWAP4 SWAP3 POP POP POP JUMP JUMPDEST PUSH0 PUSH1 0x1F NOT PUSH1 0x1F DUP4 ADD AND SWAP1 POP SWAP2 SWAP1 POP JUMP JUMPDEST PUSH0 PUSH2 0x3762 DUP3 PUSH2 0x305D JUMP JUMPDEST PUSH2 0x376C DUP2 DUP6 PUSH2 0x314A JUMP JUMPDEST SWAP4 POP PUSH2 0x377C DUP2 DUP6 PUSH1 0x20 DUP7 ADD PUSH2 0x3071 JUMP JUMPDEST PUSH2 0x3785 DUP2 PUSH2 0x3748 JUMP JUMPDEST DUP5 ADD SWAP2 POP POP SWAP3 SWAP2 POP POP JUMP JUMPDEST PUSH0 PUSH1 0x40 DUP3 ADD SWAP1 POP DUP2 DUP2 SUB PUSH0 DUP4 ADD MSTORE PUSH2 0x37A8 DUP2 DUP6 PUSH2 0x3758 JUMP JUMPDEST SWAP1 POP DUP2 DUP2 SUB PUSH1 0x20 DUP4 ADD MSTORE PUSH2 0x37BC DUP2 DUP5 PUSH2 0x3758 JUMP JUMPDEST SWAP1 POP SWAP4 SWAP3 POP POP POP JUMP JUMPDEST PUSH32 0x76654141484D616E616765723A2073656E642061737065637420636F6E746563 PUSH0 DUP3 ADD MSTORE PUSH32 0x74206572726F7200000000000000000000000000000000000000000000000000 PUSH1 0x20 DUP3 ADD MSTORE POP JUMP JUMPDEST PUSH0 PUSH2 0x381F PUSH1 0x27 DUP4 PUSH2 0x314A JUMP JUMPDEST SWAP2 POP PUSH2 0x382A DUP3 PUSH2 0x37C5 JUMP JUMPDEST PUSH1 0x40 DUP3 ADD SWAP1 POP SWAP2 SWAP1 POP JUMP JUMPDEST PUSH0 PUSH1 0x20 DUP3 ADD SWAP1 POP DUP2 DUP2 SUB PUSH0 DUP4 ADD MSTORE PUSH2 0x384C DUP2 PUSH2 0x3813 JUMP JUMPDEST SWAP1 POP SWAP2 SWAP1 POP JUMP JUMPDEST PUSH0 PUSH1 0xC0 DUP3 ADD SWAP1 POP PUSH2 0x3866 PUSH0 DUP4 ADD DUP10 PUSH2 0x2E9F JUMP JUMPDEST PUSH2 0x3873 PUSH1 0x20 DUP4 ADD DUP9 PUSH2 0x2C25 JUMP JUMPDEST PUSH2 0x3880 PUSH1 0x40 DUP4 ADD DUP8 PUSH2 0x2C25 JUMP JUMPDEST PUSH2 0x388D PUSH1 0x60 DUP4 ADD DUP7 PUSH2 0x2C25 JUMP JUMPDEST PUSH2 0x389A PUSH1 0x80 DUP4 ADD DUP6 PUSH2 0x2C25 JUMP JUMPDEST PUSH2 0x38A7 PUSH1 0xA0 DUP4 ADD DUP5 PUSH2 0x2C25 JUMP JUMPDEST SWAP8 SWAP7 POP POP POP POP POP POP POP JUMP JUMPDEST PUSH0 PUSH1 0x40 DUP3 ADD SWAP1 POP PUSH2 0x38C5 PUSH0 DUP4 ADD DUP6 PUSH2 0x2E9F JUMP JUMPDEST PUSH2 0x38D2 PUSH1 0x20 DUP4 ADD DUP5 PUSH2 0x2C25 JUMP JUMPDEST SWAP4 SWAP3 POP POP POP JUMP JUMPDEST PUSH0 DUP2 PUSH1 0xE0 SHL SWAP1 POP SWAP2 SWAP1 POP JUMP JUMPDEST PUSH0 PUSH2 0x38EF DUP3 PUSH2 0x38D9 JUMP JUMPDEST SWAP1 POP SWAP2 SWAP1 POP JUMP JUMPDEST PUSH2 0x3907 PUSH2 0x3902 DUP3 PUSH2 0x2EC7 JUMP JUMPDEST PUSH2 0x38E5 JUMP JUMPDEST DUP3 MSTORE POP POP JUMP JUMPDEST PUSH0 PUSH2 0x3918 DUP3 DUP7 PUSH2 0x36B1 JUMP JUMPDEST PUSH1 0x20 DUP3 ADD SWAP2 POP PUSH2 0x3927 DUP3 PUSH2 0x36F0 JUMP JUMPDEST SWAP2 POP PUSH2 0x3933 DUP3 DUP6 PUSH2 0x36B1 JUMP JUMPDEST PUSH1 0x20 DUP3 ADD SWAP2 POP PUSH2 0x3942 DUP3 PUSH2 0x36F0 JUMP JUMPDEST SWAP2 POP PUSH2 0x394E DUP3 DUP5 PUSH2 0x38F6 JUMP JUMPDEST PUSH1 0x4 DUP3 ADD SWAP2 POP DUP2 SWAP1 POP SWAP5 SWAP4 POP POP POP POP JUMP JUMPDEST PUSH0 PUSH2 0x3979 PUSH2 0x3974 PUSH2 0x396F DUP5 PUSH2 0x2EC7 JUMP JUMPDEST PUSH2 0x2AEF JUMP JUMPDEST PUSH2 0x2BA2 JUMP JUMPDEST SWAP1 POP SWAP2 SWAP1 POP JUMP JUMPDEST PUSH2 0x3989 DUP2 PUSH2 0x395F JUMP JUMPDEST DUP3 MSTORE POP POP JUMP JUMPDEST PUSH0 PUSH1 0xA0 DUP3 ADD SWAP1 POP PUSH2 0x39A2 PUSH0 DUP4 ADD DUP9 PUSH2 0x2E9F JUMP JUMPDEST PUSH2 0x39AF PUSH1 0x20 DUP4 ADD DUP8 PUSH2 0x3980 JUMP JUMPDEST PUSH2 0x39BC PUSH1 0x40 DUP4 ADD DUP7 PUSH2 0x2C25 JUMP JUMPDEST PUSH2 0x39C9 PUSH1 0x60 DUP4 ADD DUP6 PUSH2 0x2C25 JUMP JUMPDEST PUSH2 0x39D6 PUSH1 0x80 DUP4 ADD DUP5 PUSH2 0x2C25 JUMP JUMPDEST SWAP7 SWAP6 POP POP POP POP POP POP JUMP JUMPDEST PUSH0 PUSH1 0x80 DUP3 ADD SWAP1 POP PUSH2 0x39F3 PUSH0 DUP4 ADD DUP8 PUSH2 0x2E9F JUMP JUMPDEST PUSH2 0x3A00 PUSH1 0x20 DUP4 ADD DUP7 PUSH2 0x2C25 JUMP JUMPDEST PUSH2 0x3A0D PUSH1 0x40 DUP4 ADD DUP6 PUSH2 0x2C25 JUMP JUMPDEST PUSH2 0x3A1A PUSH1 0x60 DUP4 ADD DUP5 PUSH2 0x2C25 JUMP JUMPDEST SWAP6 SWAP5 POP POP POP POP POP JUMP JUMPDEST PUSH0 PUSH2 0x3A2E DUP3 DUP6 PUSH2 0x38F6 JUMP JUMPDEST PUSH1 0x4 DUP3 ADD SWAP2 POP PUSH2 0x3A3D DUP3 PUSH2 0x36F0 JUMP JUMPDEST SWAP2 POP PUSH2 0x3A49 DUP3 DUP5 PUSH2 0x36B1 JUMP JUMPDEST PUSH1 0x20 DUP3 ADD SWAP2 POP DUP2 SWAP1 POP SWAP4 SWAP3 POP POP POP JUMP JUMPDEST PUSH0 PUSH2 0x3A63 DUP3 PUSH2 0x2BA2 JUMP JUMPDEST SWAP2 POP PUSH2 0x3A6E DUP4 PUSH2 0x2BA2 JUMP JUMPDEST SWAP3 POP DUP3 DUP3 ADD SWAP1 POP DUP1 DUP3 GT ISZERO PUSH2 0x3A86 JUMPI PUSH2 0x3A85 PUSH2 0x3301 JUMP JUMPDEST JUMPDEST SWAP3 SWAP2 POP POP JUMP JUMPDEST PUSH32 0x746F55696E743235365F6F75744F66426F756E64730000000000000000000000 PUSH0 DUP3 ADD MSTORE POP JUMP JUMPDEST PUSH0 PUSH2 0x3AC0 PUSH1 0x15 DUP4 PUSH2 0x314A JUMP JUMPDEST SWAP2 POP PUSH2 0x3ACB DUP3 PUSH2 0x3A8C JUMP JUMPDEST PUSH1 0x20 DUP3 ADD SWAP1 POP SWAP2 SWAP1 POP JUMP JUMPDEST PUSH0 PUSH1 0x20 DUP3 ADD SWAP1 POP DUP2 DUP2 SUB PUSH0 DUP4 ADD MSTORE PUSH2 0x3AED DUP2 PUSH2 0x3AB4 JUMP JUMPDEST SWAP1 POP SWAP2 SWAP1 POP JUMP JUMPDEST PUSH0 DUP2 SWAP1 POP SWAP2 SWAP1 POP JUMP JUMPDEST PUSH0 PUSH2 0x3B17 PUSH2 0x3B12 PUSH2 0x3B0D DUP5 PUSH2 0x3AF4 JUMP JUMPDEST PUSH2 0x2AEF JUMP JUMPDEST PUSH2 0x2BA2 JUMP JUMPDEST SWAP1 POP SWAP2 SWAP1 POP JUMP JUMPDEST PUSH2 0x3B27 DUP2 PUSH2 0x3AFD JUMP JUMPDEST DUP3 MSTORE POP POP JUMP JUMPDEST PUSH0 PUSH1 0x40 DUP3 ADD SWAP1 POP PUSH2 0x3B40 PUSH0 DUP4 ADD DUP6 PUSH2 0x2E9F JUMP JUMPDEST PUSH2 0x3B4D PUSH1 0x20 DUP4 ADD DUP5 PUSH2 0x3B1E JUMP JUMPDEST SWAP4 SWAP3 POP POP POP JUMP JUMPDEST PUSH0 PUSH1 0x60 DUP3 ADD SWAP1 POP PUSH2 0x3B67 PUSH0 DUP4 ADD DUP7 PUSH2 0x2E9F JUMP JUMPDEST PUSH2 0x3B74 PUSH1 0x20 DUP4 ADD DUP6 PUSH2 0x2E9F JUMP JUMPDEST PUSH2 0x3B81 PUSH1 0x40 DUP4 ADD DUP5 PUSH2 0x2C25 JUMP JUMPDEST SWAP5 SWAP4 POP POP POP POP JUMP JUMPDEST PUSH2 0x3B92 DUP2 PUSH2 0x2CBB JUMP JUMPDEST DUP2 EQ PUSH2 0x3B9C JUMPI PUSH0 DUP1 REVERT JUMPDEST POP JUMP JUMPDEST PUSH0 DUP2 MLOAD SWAP1 POP PUSH2 0x3BAD DUP2 PUSH2 0x3B89 JUMP JUMPDEST SWAP3 SWAP2 POP POP JUMP JUMPDEST PUSH0 PUSH1 0x20 DUP3 DUP5 SUB SLT ISZERO PUSH2 0x3BC8 JUMPI PUSH2 0x3BC7 PUSH2 0x2B63 JUMP JUMPDEST JUMPDEST PUSH0 PUSH2 0x3BD5 DUP5 DUP3 DUP6 ADD PUSH2 0x3B9F JUMP JUMPDEST SWAP2 POP POP SWAP3 SWAP2 POP POP JUMP INVALID LOG2 PUSH5 0x6970667358 0x22 SLT KECCAK256 0x29 XOR 0xD9 0xB8 DUP9 0xE3 CALLDATACOPY SWAP16 PUSH3 0x161637 RETURN SWAP7 PUSH10 0x63DF6BD90A00E748828D 0xE9 MSIZE CALLER 0xC1 LT MUL EXP PUSH5 0x736F6C6343 STOP ADDMOD EQ STOP CALLER "
		},
		"gasEstimates": {
			"creation": {
				"codeDepositCost": "3076000",
				"executionCost": "8391",
				"totalCost": "3084391"
			},
			"external": {
				"aspect()": "2640",
				"balanceOf(address)": "2896",
				"calcBalanceReceived(address,uint256,uint256)": "infinite",
				"create(uint256,uint256)": "infinite",
				"estimateLockerAPY(address)": "infinite",
				"exit()": "infinite",
				"extend(uint256)": "infinite",
				"getLocker(address)": "infinite",
				"getLockersInfo()": "infinite",
				"getReward()": "infinite",
				"initialize(address,address,address,uint256,address,address)": "infinite",
				"isOwner(address)": "2998",
				"owner()": "2634",
				"refill(uint256)": "infinite",
				"refresh(uint256,uint256)": "infinite",
				"renounceOwnership()": "infinite",
				"rewardDistributor()": "2530",
				"rewardRate()": "2448",
				"rewardToken()": "infinite",
				"sAAH()": "infinite",
				"startTime()": "2558",
				"totalSupply()": "2493",
				"transferOwnership(address)": "infinite",
				"veAAH()": "infinite"
			}
		},
		"methodIdentifiers": {
			"aspect()": "fc799ebe",
			"balanceOf(address)": "70a08231",
			"calcBalanceReceived(address,uint256,uint256)": "0e67940f",
			"create(uint256,uint256)": "9f7b4579",
			"estimateLockerAPY(address)": "3cdafd19",
			"exit()": "e9fad8ee",
			"extend(uint256)": "9714378c",
			"getLocker(address)": "919884bf",
			"getLockersInfo()": "25c2aaa0",
			"getReward()": "3d18b912",
			"initialize(address,address,address,uint256,address,address)": "32b5a1b3",
			"isOwner(address)": "2f54bf6e",
			"owner()": "8da5cb5b",
			"refill(uint256)": "ca9d07ba",
			"refresh(uint256,uint256)": "754ecc26",
			"renounceOwnership()": "715018a6",
			"rewardDistributor()": "acc2166a",
			"rewardRate()": "7b0a47ee",
			"rewardToken()": "f7c618c1",
			"sAAH()": "845e5182",
			"startTime()": "78e97925",
			"totalSupply()": "18160ddd",
			"transferOwnership(address)": "f2fde38b",
			"veAAH()": "0dad4325"
		}
	},
	"abi": [
		{
			"inputs": [
				{
					"internalType": "address",
					"name": "target",
					"type": "address"
				}
			],
			"name": "AddressEmptyCode",
			"type": "error"
		},
		{
			"inputs": [
				{
					"internalType": "address",
					"name": "account",
					"type": "address"
				}
			],
			"name": "AddressInsufficientBalance",
			"type": "error"
		},
		{
			"inputs": [],
			"name": "FailedInnerCall",
			"type": "error"
		},
		{
			"inputs": [],
			"name": "InvalidInitialization",
			"type": "error"
		},
		{
			"inputs": [],
			"name": "NotInitializing",
			"type": "error"
		},
		{
			"inputs": [
				{
					"internalType": "address",
					"name": "owner",
					"type": "address"
				}
			],
			"name": "OwnableInvalidOwner",
			"type": "error"
		},
		{
			"inputs": [
				{
					"internalType": "address",
					"name": "account",
					"type": "address"
				}
			],
			"name": "OwnableUnauthorizedAccount",
			"type": "error"
		},
		{
			"inputs": [],
			"name": "ReentrancyGuardReentrantCall",
			"type": "error"
		},
		{
			"inputs": [
				{
					"internalType": "address",
					"name": "token",
					"type": "address"
				}
			],
			"name": "SafeERC20FailedOperation",
			"type": "error"
		},
		{
			"anonymous": false,
			"inputs": [
				{
					"indexed": false,
					"internalType": "address",
					"name": "recipient",
					"type": "address"
				},
				{
					"indexed": false,
					"internalType": "uint256",
					"name": "sAAHLocked",
					"type": "uint256"
				},
				{
					"indexed": false,
					"internalType": "uint256",
					"name": "duration",
					"type": "uint256"
				},
				{
					"indexed": false,
					"internalType": "uint256",
					"name": "veAAHReceived",
					"type": "uint256"
				}
			],
			"name": "Create",
			"type": "event"
		},
		{
			"anonymous": false,
			"inputs": [
				{
					"indexed": false,
					"internalType": "address",
					"name": "recipient",
					"type": "address"
				},
				{
					"indexed": false,
					"internalType": "uint256",
					"name": "preDueTime",
					"type": "uint256"
				},
				{
					"indexed": false,
					"internalType": "uint256",
					"name": "newDueTime",
					"type": "uint256"
				},
				{
					"indexed": false,
					"internalType": "uint256",
					"name": "duration",
					"type": "uint256"
				},
				{
					"indexed": false,
					"internalType": "uint256",
					"name": "veAAHReceived",
					"type": "uint256"
				}
			],
			"name": "Extend",
			"type": "event"
		},
		{
			"anonymous": false,
			"inputs": [
				{
					"indexed": false,
					"internalType": "uint64",
					"name": "version",
					"type": "uint64"
				}
			],
			"name": "Initialized",
			"type": "event"
		},
		{
			"anonymous": false,
			"inputs": [
				{
					"indexed": true,
					"internalType": "address",
					"name": "previousOwner",
					"type": "address"
				},
				{
					"indexed": true,
					"internalType": "address",
					"name": "newOwner",
					"type": "address"
				}
			],
			"name": "OwnershipTransferred",
			"type": "event"
		},
		{
			"anonymous": false,
			"inputs": [
				{
					"indexed": false,
					"internalType": "address",
					"name": "recipient",
					"type": "address"
				},
				{
					"indexed": false,
					"internalType": "uint256",
					"name": "preDueTime",
					"type": "uint256"
				},
				{
					"indexed": false,
					"internalType": "uint256",
					"name": "newDueTime",
					"type": "uint256"
				},
				{
					"indexed": false,
					"internalType": "uint256",
					"name": "duration",
					"type": "uint256"
				},
				{
					"indexed": false,
					"internalType": "uint256",
					"name": "veAAHOldBalance",
					"type": "uint256"
				},
				{
					"indexed": false,
					"internalType": "uint256",
					"name": "veAAHBalance",
					"type": "uint256"
				}
			],
			"name": "ProExtend",
			"type": "event"
		},
		{
			"anonymous": false,
			"inputs": [
				{
					"indexed": false,
					"internalType": "address",
					"name": "recipient",
					"type": "address"
				},
				{
					"indexed": false,
					"internalType": "uint256",
					"name": "sAAHRefilled",
					"type": "uint256"
				},
				{
					"indexed": false,
					"internalType": "uint256",
					"name": "veAAHReceived",
					"type": "uint256"
				}
			],
			"name": "Refill",
			"type": "event"
		},
		{
			"anonymous": false,
			"inputs": [
				{
					"indexed": false,
					"internalType": "address",
					"name": "recipient",
					"type": "address"
				},
				{
					"indexed": false,
					"internalType": "uint256",
					"name": "presAAHLocked",
					"type": "uint256"
				},
				{
					"indexed": false,
					"internalType": "uint256",
					"name": "newsAAHLocked",
					"type": "uint256"
				},
				{
					"indexed": false,
					"internalType": "uint256",
					"name": "duration",
					"type": "uint256"
				},
				{
					"indexed": false,
					"internalType": "uint256",
					"name": "preveAAHBalance",
					"type": "uint256"
				},
				{
					"indexed": false,
					"internalType": "uint256",
					"name": "newveAAHBalance",
					"type": "uint256"
				}
			],
			"name": "Refresh",
			"type": "event"
		},
		{
			"anonymous": false,
			"inputs": [
				{
					"indexed": true,
					"internalType": "address",
					"name": "user",
					"type": "address"
				},
				{
					"indexed": false,
					"internalType": "uint256",
					"name": "reward",
					"type": "uint256"
				}
			],
			"name": "RewardPaid",
			"type": "event"
		},
		{
			"anonymous": false,
			"inputs": [
				{
					"indexed": false,
					"internalType": "uint256",
					"name": "oldRewardRate",
					"type": "uint256"
				},
				{
					"indexed": false,
					"internalType": "uint256",
					"name": "newRewardRate",
					"type": "uint256"
				}
			],
			"name": "RewardRateUpdated",
			"type": "event"
		},
		{
			"anonymous": false,
			"inputs": [
				{
					"indexed": true,
					"internalType": "address",
					"name": "user",
					"type": "address"
				},
				{
					"indexed": false,
					"internalType": "uint256",
					"name": "amount",
					"type": "uint256"
				}
			],
			"name": "Staked",
			"type": "event"
		},
		{
			"anonymous": false,
			"inputs": [
				{
					"indexed": false,
					"internalType": "address",
					"name": "recipient",
					"type": "address"
				},
				{
					"indexed": false,
					"internalType": "uint256",
					"name": "veAAHBurned",
					"type": "uint256"
				},
				{
					"indexed": false,
					"internalType": "uint256",
					"name": "sAAHRefunded",
					"type": "uint256"
				}
			],
			"name": "Withdraw",
			"type": "event"
		},
		{
			"anonymous": false,
			"inputs": [
				{
					"indexed": true,
					"internalType": "address",
					"name": "user",
					"type": "address"
				},
				{
					"indexed": false,
					"internalType": "uint256",
					"name": "amount",
					"type": "uint256"
				}
			],
			"name": "Withdrawn",
			"type": "event"
		},
		{
			"inputs": [],
			"name": "aspect",
			"outputs": [
				{
					"internalType": "address",
					"name": "",
					"type": "address"
				}
			],
			"stateMutability": "view",
			"type": "function"
		},
		{
			"inputs": [
				{
					"internalType": "address",
					"name": "account",
					"type": "address"
				}
			],
			"name": "balanceOf",
			"outputs": [
				{
					"internalType": "uint256",
					"name": "",
					"type": "uint256"
				}
			],
			"stateMutability": "view",
			"type": "function"
		},
		{
			"inputs": [
				{
					"internalType": "address",
					"name": "_lockerAddress",
					"type": "address"
				},
				{
					"internalType": "uint256",
					"name": "_amount",
					"type": "uint256"
				},
				{
					"internalType": "uint256",
					"name": "_duration",
					"type": "uint256"
				}
			],
			"name": "calcBalanceReceived",
			"outputs": [
				{
					"internalType": "uint256",
					"name": "",
					"type": "uint256"
				}
			],
			"stateMutability": "view",
			"type": "function"
		},
		{
			"inputs": [
				{
					"internalType": "uint256",
					"name": "_amount",
					"type": "uint256"
				},
				{
					"internalType": "uint256",
					"name": "_dueTime",
					"type": "uint256"
				}
			],
			"name": "create",
			"outputs": [],
			"stateMutability": "nonpayable",
			"type": "function"
		},
		{
			"inputs": [
				{
					"internalType": "address",
					"name": "_lockerAddress",
					"type": "address"
				}
			],
			"name": "estimateLockerAPY",
			"outputs": [
				{
					"internalType": "uint256",
					"name": "",
					"type": "uint256"
				}
			],
			"stateMutability": "nonpayable",
			"type": "function"
		},
		{
			"inputs": [],
			"name": "exit",
			"outputs": [],
			"stateMutability": "nonpayable",
			"type": "function"
		},
		{
			"inputs": [
				{
					"internalType": "uint256",
					"name": "_dueTime",
					"type": "uint256"
				}
			],
			"name": "extend",
			"outputs": [],
			"stateMutability": "nonpayable",
			"type": "function"
		},
		{
			"inputs": [
				{
					"internalType": "address",
					"name": "_lockerAddress",
					"type": "address"
				}
			],
			"name": "getLocker",
			"outputs": [
				{
					"internalType": "uint32",
					"name": "",
					"type": "uint32"
				},
				{
					"internalType": "uint32",
					"name": "",
					"type": "uint32"
				},
				{
					"internalType": "uint96",
					"name": "",
					"type": "uint96"
				}
			],
			"stateMutability": "view",
			"type": "function"
		},
		{
			"inputs": [],
			"name": "getLockersInfo",
			"outputs": [
				{
					"internalType": "uint256",
					"name": "",
					"type": "uint256"
				},
				{
					"internalType": "uint256",
					"name": "",
					"type": "uint256"
				},
				{
					"internalType": "uint256",
					"name": "",
					"type": "uint256"
				},
				{
					"internalType": "uint256",
					"name": "",
					"type": "uint256"
				}
			],
			"stateMutability": "nonpayable",
			"type": "function"
		},
		{
			"inputs": [],
			"name": "getReward",
			"outputs": [],
			"stateMutability": "nonpayable",
			"type": "function"
		},
		{
			"inputs": [
				{
					"internalType": "contract IveAAH",
					"name": "_veAAH",
					"type": "address"
				},
				{
					"internalType": "contract IStakedAAH",
					"name": "_sAAH",
					"type": "address"
				},
				{
					"internalType": "contract IERC20",
					"name": "_rewardToken",
					"type": "address"
				},
				{
					"internalType": "uint256",
					"name": "_startTime",
					"type": "uint256"
				},
				{
					"internalType": "address",
					"name": "_rewardDistributor",
					"type": "address"
				},
				{
					"internalType": "address",
					"name": "_aspect",
					"type": "address"
				}
			],
			"name": "initialize",
			"outputs": [],
			"stateMutability": "nonpayable",
			"type": "function"
		},
		{
			"inputs": [
				{
					"internalType": "address",
					"name": "_user",
					"type": "address"
				}
			],
			"name": "isOwner",
			"outputs": [
				{
					"internalType": "bool",
					"name": "result",
					"type": "bool"
				}
			],
			"stateMutability": "view",
			"type": "function"
		},
		{
			"inputs": [],
			"name": "owner",
			"outputs": [
				{
					"internalType": "address",
					"name": "",
					"type": "address"
				}
			],
			"stateMutability": "view",
			"type": "function"
		},
		{
			"inputs": [
				{
					"internalType": "uint256",
					"name": "_amount",
					"type": "uint256"
				}
			],
			"name": "refill",
			"outputs": [],
			"stateMutability": "nonpayable",
			"type": "function"
		},
		{
			"inputs": [
				{
					"internalType": "uint256",
					"name": "_amount",
					"type": "uint256"
				},
				{
					"internalType": "uint256",
					"name": "_dueTime",
					"type": "uint256"
				}
			],
			"name": "refresh",
			"outputs": [],
			"stateMutability": "nonpayable",
			"type": "function"
		},
		{
			"inputs": [],
			"name": "renounceOwnership",
			"outputs": [],
			"stateMutability": "nonpayable",
			"type": "function"
		},
		{
			"inputs": [],
			"name": "rewardDistributor",
			"outputs": [
				{
					"internalType": "address",
					"name": "",
					"type": "address"
				}
			],
			"stateMutability": "view",
			"type": "function"
		},
		{
			"inputs": [],
			"name": "rewardRate",
			"outputs": [
				{
					"internalType": "uint256",
					"name": "",
					"type": "uint256"
				}
			],
			"stateMutability": "view",
			"type": "function"
		},
		{
			"inputs": [],
			"name": "rewardToken",
			"outputs": [
				{
					"internalType": "contract IERC20",
					"name": "",
					"type": "address"
				}
			],
			"stateMutability": "view",
			"type": "function"
		},
		{
			"inputs": [],
			"name": "sAAH",
			"outputs": [
				{
					"internalType": "contract IStakedAAH",
					"name": "",
					"type": "address"
				}
			],
			"stateMutability": "view",
			"type": "function"
		},
		{
			"inputs": [],
			"name": "startTime",
			"outputs": [
				{
					"internalType": "uint256",
					"name": "",
					"type": "uint256"
				}
			],
			"stateMutability": "view",
			"type": "function"
		},
		{
			"inputs": [],
			"name": "totalSupply",
			"outputs": [
				{
					"internalType": "uint256",
					"name": "",
					"type": "uint256"
				}
			],
			"stateMutability": "view",
			"type": "function"
		},
		{
			"inputs": [
				{
					"internalType": "address",
					"name": "newOwner",
					"type": "address"
				}
			],
			"name": "transferOwnership",
			"outputs": [],
			"stateMutability": "nonpayable",
			"type": "function"
		},
		{
			"inputs": [],
			"name": "veAAH",
			"outputs": [
				{
					"internalType": "contract IveAAH",
					"name": "",
					"type": "address"
				}
			],
			"stateMutability": "view",
			"type": "function"
		}
	]
}